:100000000C9472000C9494000C9494000C94940042
:100010000C9494000C9494000C9494000C94940010
:100020000C9494000C9494000C9494000C94940000
:100030000C9494000C9494000C9494000C94780408
:100040000C9494000C9494000C9494000C949400E0
:100050000C9494000C9494000C9494000C949400D0
:100060000C9494000C945D050C9494000C942E0553
:100070000C9494000C9494000C9494000C949400B0
:100080000C9494000C9494000C9494000C949400A0
:100090000C9494000C9494000C9494000C94940090
:1000A0000C9494000C9494000C9494000C94940080
:1000B0000C9494000C9494000C9494000C94940070
:1000C0000C9494000C9494000C9494000C94940060
:1000D0000C9494000C9494000C9494000C94940050
:1000E0000C94940011241FBECFEFD1E2DEBFCDBF30
:1000F00000E00CBF12E0A0E0B2E0EEE8F9E100E0C1
:100100000BBF02C007900D92A43FB107D9F71BBEE9
:1001100014E0A4EFB2E001C01D92A233B107E1F7F1
:100120000E945A070C94C50C0C940000CF92DF92E9
:10013000FF920F931F93CF93DF93CDB7DEB728972E
:100140000FB6F894DEBF0FBECDBF009719F0FC01CB
:10015000F08002C091E6F92E80E0C82E82E0D82E11
:100160000F920F92EDB7FEB7D282C1820E9497091B
:100170000F900F9040912C0450912D04CE010196C8
:1001800068E070E00E943D090097E9F00E94960245
:100190008C01CE0101960E94DB08F80191838083D7
:1001A000F8E6FF1621F084E7F81649F404C0C80108
:1001B0000E949E02D5CFC8010E94B302D1CFC801D0
:1001C0000E94C702CDCF0E94FE020E942B032896F8
:1001D0000FB6F894DEBF0FBECDBFDF91CF911F9158
:1001E0000F91FF90DF90CF900895CF93DF93FC01A4
:1001F00062E070E00E948507EB0122E030E008C079
:10020000CF01B9010E948507009741F02F5F3F4F52
:10021000C217D307ACF781E090E002C080E090E025
:10022000DF91CF910895CF92DF92EF92FF920F93DB
:100230001F93CF93DF93009721F00E94DB087C018E
:1002400004C090EDE92E97E0F92EC2E0D0E000E086
:1002500010E083E0C82E82E0D82E16C0CE010E94A6
:10026000F500009781F00F5F1F4F00D00F92EDB7A0
:10027000FEB7D282C182D483C3830E9497090F90B4
:100280000F900F900F902196EC16FD063CF700D0D2
:100290000F928CE192E0EDB7FEB7928381831483D5
:1002A00003830E9497090F900F900F900F90DF919A
:1002B000CF911F910F91FF90EF90DF90CF90089515
:1002C000CF92DF92EF92FF920F931F93CF93DF9322
:1002D000009741F0FC012081222321F00E94DB08DD
:1002E0008C0102C000ED17E0EE24FF24C2E0D0E054
:1002F00023E0C22E22E0D22E17C0CE010E94F500CC
:10030000009789F00894E11CF11C00D00F92EDB722
:10031000FEB7D282C182D483C3830E9497090F9013
:100320000F900F900F9021960C171D0734F700D0F7
:100330000F928CE192E0EDB7FEB792838183F48255
:10034000E3820E9497090F900F9086E292E0EDB74A
:10035000FEB7928381830E9497090F900F90DF91DF
:10036000CF911F910F91FF90EF90DF90CF90089564
:100370001092400310923F0310923E0310923D03EF
:1003800010924203109241031092FC021092FB0261
:100390000895482F20914103309142032F5F3F4F32
:1003A000C90160E470E00E9485079C018091FB0216
:1003B0009091FC022817390759F03093420320939B
:1003C00041032D5B3C4FF901408381E090E00895AB
:1003D00080E090E008958091FB029091FC022091D2
:1003E0004103309142032817390779F0019660E400
:1003F00070E00E9485079093FC028093FB028D5B66
:100400009C4FFC01808190E0089580E090E0089589
:10041000482F20913F03309140032F5F3F4FC90188
:1004200060E470E00E9485079C0180913D039091FB
:100430003E032817390759F03093400320933F03B8
:1004400023503D4FF901408381E090E0089580E022
:1004500090E0089580913D0390913E0320913F03E9
:10046000309140032817390779F0019660E470E075
:100470000E94850790933E0380933D0383509D4FD8
:10048000FC01808190E0089580E090E008958091E3
:10049000FB029091FC0220914103309142038217AC
:1004A000930759F0019660E470E00E9485078D5B28
:1004B0009C4FFC01808190E0089580E090E00895D9
:1004C0008FEF80930B0180930A01089510920B0126
:1004D0001092F40208958FEF80930B018093F40241
:1004E000089521E030E002C0220F331F8A95E2F721
:1004F00020958091F40228232093F40220930B018D
:10050000089521E030E002C0220F331F8A95E2F700
:100510008091F402822B8093F40280930B01089562
:1005200080958093F40280930B01089584E090E01D
:100530000E94AC0708950E9442080895FC01809132
:10054000F5029091F602009739F4F093F602E093E9
:10055000F50213821282089593838283F093F60248
:10056000E093F5020895E091F502F091F6023097DC
:1005700031F49093F6028093F5020895F9012281F7
:10058000338121153105D1F7938382830895CF9369
:10059000DF93FC012091F5023091F602211531051F
:1005A00031F040815181D901C0E0D0E00FC090937B
:1005B000F6028093F502138212821DC012968D916D
:1005C0009C911397ED01009739F0DC018D919C917E
:1005D00011978417950794F3209739F43383228376
:1005E000F093F602E093F50206C08A819B81938323
:1005F0008283FB83EA83DF91CF9108950F931F934A
:10060000CF93DF938AE090E00E94A909C091F502A0
:10061000D091F60209E212E013C000D00F92EDB7BC
:10062000FEB71283018388819981948383830E941A
:1006300097090A80DB81C02D0F900F900F900F90CB
:10064000209759F78AE090E00E94A909DF91CF91A5
:100650001F910F91089509C0FC01228133813093CD
:10066000F6022093F5020E9442088091F5029091D3
:10067000F602009789F708951092B200E6EBF0E0D9
:10068000808180628083E0E7F0E080818160808308
:10069000E1EBF0E0808181608083808182608083F3
:1006A0000895CF93DF930DC08C859D859093F802BC
:1006B0008093F702CE0102960E94CE05CE010E94E1
:1006C0004208C091F702D091F802209721F088816A
:1006D0009981009749F3DF91CF9108958EE090E0E2
:1006E0000E94AC070895EF92FF920F931F93CF9350
:1006F000DF93F82EE92E8B010E946E03EC01DC01E2
:100700001296EF2DFE2D8AE001900D928150E1F7B7
:1007100019830883E091F702F091F802309729F4E9
:10072000D093F802C093F7022FC040E050E020E0E1
:1007300030E001C0FD0180819181280F391F201711
:10074000310734F4A485B585AF01109799F701C03E
:10075000DF014115510579F48D919C911197801B12
:10076000910B11969C938E93BD87AC87D093F80222
:10077000C093F70224C0109751F4021B130B198386
:100780000883FA01D587C4871D861C8618C08D9101
:100790009C911197B901681B790B9801261B370BA7
:1007A000398328838D919C911197821B930B11960D
:1007B0009C938E93FA01D587C487BD87AC87DF9160
:1007C000CF911F910F91FF90EF900895EF92FF92BC
:1007D0000F931F93CF93DF938AE090E00E94A909C3
:1007E000C091F702D091F80200E010E083E3E82E18
:1007F00082E0F82E20C088819981080F191F00D04F
:1008000000D0EDB7FEB73196ADB7BEB71296FC92E9
:10081000EE92119793838283158304830E94970934
:100820000C84DD85C02D8DB79EB706960FB6F89463
:100830009EBF0FBE8DBF2097F1F68AE090E00E9428
:10084000A909DF91CF911F910F91FF90EF9008952B
:1008500009C0FC01248535853093F8022093F70206
:100860000E9442088091F7029091F802009789F760
:1008700008950F931F93CF93DF93CDB7DEB76297A1
:100880000FB6F894DEBF0FBECDBF0EE312E00F929D
:100890000F92EDB7FEB7128301830E9497090F9064
:1008A0000F9040912C0450912D04CE01019668E0E8
:1008B00070E00E943D09009761F0CE0101960E9410
:1008C000DB08BC01009729F0CE0109960E94730352
:1008D000DECF0E94E6030E94280462960FB6F894C9
:1008E000DEBF0FBECDBFDF91CF911F910F91089555
:1008F0001F920F920FB60F920BB60F9211242F93E7
:100900003F934F935F936F937F938F939F93AF9397
:10091000BF93EF93FF93E091F702F091F8023097C5
:1009200049F080819181019791838083009711F430
:100930000E945103FF91EF91BF91AF919F918F91D1
:100940007F916F915F914F913F912F910F900BBECF
:100950000F900FBE0F901F901895F8940E94EB0116
:1009600078948823D1F3843011F090E008958FEFCC
:100970009FEF0895CF93C82F8A3019F48DE00E941D
:10098000BA04F89480918303882359F4C093C60075
:1009900081E0809383030AC0789486EF8A95F1F70B
:1009A000F8948C2F0E9408020097B1F3789481E0AC
:1009B00090E0CF91089583E492E090932D0480938A
:1009C0002C0481E592E090932F0480932E041092E2
:1009D00083030E94B8011092C50087E08093C40091
:1009E000E0ECF0E0808182608083E1ECF0E08081E7
:1009F000886080838081806480838081806180833F
:100A00008081806880830895CF93C82F8A3019F43D
:100A10008DE00E9404058091C00085FFFCCFC0934B
:100A2000C60081E090E0CF910895CF93C82F8A301F
:100A300019F48DE00E94150580918303882331F419
:100A4000C093C60081E08093830303C08C2F0E9473
:100A50000802CF9108950E94470208951F920F92B5
:100A60000FB60F920BB60F9211242F933F934F9313
:100A70005F936F937F938F939F93AF93BF93EF9306
:100A8000FF930E942A02882319F41092830302C064
:100A90008093C600FF91EF91BF91AF919F918F918D
:100AA0007F916F915F914F913F912F910F900BBE6E
:100AB0000F900FBE0F901F9018951F920F920FB6B8
:100AC0000F920BB60F9211241F932F933F934F93C6
:100AD0005F936F937F938F939F93AF93BF93EF93A6
:100AE000FF93CF93DF93CDB7DEB72A97DEBFCDBF9D
:100AF0001091C6001B3161F480915F0290916002F9
:100B00000196817090709093600280935F0224C080
:100B1000143069F01D3009F41AE020915F02309121
:100B200060022115310519F0812F0E941505812FD2
:100B30000E94C901143011F01A3071F484E796E074
:100B40009A838983CE01039662E472E00E940709CA
:100B5000CE0101960E94CE052A96DEBFCDBFDF9161
:100B6000CF91FF91EF91BF91AF919F918F917F9125
:100B70006F915F914F913F912F911F910F900BBEFD
:100B80000F900FBE0F901F90189510928503109232
:100B9000840310922704109226040895CF93DF93C4
:100BA000482FE92F8091840390918503C0912604FA
:100BB000D0912704019620E130E0B9010E94850719
:100BC0008C179D0731F180918403909185030196E4
:100BD000B9010E94850790938503809384038091D7
:100BE000840390918503DC01AA0FBB1F63E0880F8B
:100BF000991F6A95E1F7A80FB91FAA57BC4FC42FD8
:100C0000DE2F8AE009900D928150E1F781E090E0BB
:100C100002C080E090E0DF91CF9108959C01409167
:100C200084035091850380912604909127044817EE
:100C3000590731F18091260490912704019660E1D3
:100C400070E00E948507909327048093260480918A
:100C5000260490912704FC01EE0FFF1FA3E0880FEC
:100C6000991FAA95E1F7E80FF91FD901EA57FC4F40
:100C70008AE001900D928150E1F781E090E00895C3
:100C800080E090E00895EF92FF920F931F93CF932F
:100C9000DF937C0100E010E017C0E801CC0FDD1FFE
:100CA000C80125E0880F991F2A95E1F7C80FD91FC1
:100CB000CE55DD4FC701BE010E94FE08009711F41A
:100CC000CE010BC00F5F1F4F8091A0029091A10237
:100CD0000817190714F380E090E0DF91CF911F917E
:100CE0000F91FF90EF900895AF92BF92CF92DF9255
:100CF000EF92FF920F931F93CF93DF93CDB7DEB7A1
:100D0000CA54D0400FB6F894DEBF0FBECDBF0E94CC
:100D10002B05009709F491C0CE010B960E94710932
:100D2000009729F481E692E00E94B009FFCFCE013E
:100D30000B9666E772E00E94F9088C0180E090E073
:100D400066E772E00E94F9087C0180E090E066E7C7
:100D500072E00E94F9086C0180E090E066E772E0C2
:100D60000E94F9085C010115110559F40F920F92C8
:100D70008BE792E0ADB7BEB712969C938E93119716
:100D800058C0C8016EE772E00E94FE08009791F516
:100D9000E114F10419F0C114D10429F484E892E0BB
:100DA0000E94B0093EC0C7010E94DB088C01C60149
:100DB0000E944306009719F1DC0190968D919C9159
:100DC00091979A838983CE010396A114B10411F0FF
:100DD000B50102C06FE972E00E940709F894C801EA
:100DE00060E071E00E948507CE0101960E947303C6
:100DF000789417C0C8010E944306009729F48CE834
:100E000092E00E94B00919C0DC019096ED91FC912E
:100E10009197C114D10411F0C70102C08FE992E08B
:100E200019950F920F928BE792E0EDB7FEB7928380
:100E300081830E9497090F900F90C65BDF4F0FB61A
:100E4000F894DEBF0FBECDBFDF91CF911F910F9100
:100E5000FF90EF90DF90CF90BF90AF9008950097F4
:100E600041F0FC012081222321F00E94DB089C013B
:100E700002C024E630E000D00F9286EE92E0EDB79B
:100E8000FEB792838183A9014F5F5F4F429FC001EC
:100E9000439F900D529F900D112462E070E00E94DC
:100EA0008507748363830E9497090F900F900F90BA
:100EB0000F900895CF93DF93CDB7DEB72A970FB683
:100EC000F894DEBF0FBECDBF78940E94DB040E9471
:100ED000C5050E943C030F920F9280E392E0EDB7AC
:100EE000FEB7928381830E9497090F900F90F89428
:100EF000CE0101960E940E0678940097C1F3E98115
:100F0000FA81CE0103961995F2CF97FB092E072699
:100F10000AD077FD04D00CD006D000201AF47095CA
:100F200061957F4F0895F6F7909581959F4F0895AD
:100F3000AA1BBB1B51E107C0AA1FBB1FA617B707FF
:100F400010F0A61BB70B881F991F5A95A9F780951B
:100F50009095BC01CD010895CF93DF93AC01823011
:100F6000910510F442E050E0E0912A04F0912B0446
:100F700020E030E0A0E0B0E024C0808191818417BF
:100F80009507D0F08417950771F4828193811097AB
:100F900029F013969C938E9312972CC090932B0458
:100FA00080932A0427C02115310519F08217930771
:100FB00018F49C01BD01EF0192818381DF01E92FCB
:100FC000F82F3097D1F621153105F9F0C901841BAE
:100FD000950B8430910580F48A819B8161157105A0
:100FE00021F0FB019383828304C090932B048093B0
:100FF0002A04FE01329642C0FE01E80FF91F419318
:10100000519302979983888339C0809128049091E5
:101010002904009741F48091F0029091F10290939D
:101020002904809328042091EE023091EF022115CB
:10103000310541F42DB73EB78091F2029091F30251
:10104000281B390BE0912804F0912904E217F307DB
:1010500098F42E1B3F0B2417350770F0CA01029637
:101060002817390748F08E0F9F1F9093290480930B
:1010700028044193519302C0E0E0F0E0CF01DF91FA
:10108000CF9108950F931F93CF93DF939C01009707
:1010900009F48CC0DC01129713961C921E921297D1
:1010A00060912A0470912B046115710589F48D916A
:1010B0009C911197820F931F20912804309129044D
:1010C0002817390769F5B0932904A09328046EC046
:1010D000FB0140E050E001C0FC01EA17FB0730F4DF
:1010E00082819381AF010097B9F71FC0E901229770
:1010F000FB83EA8308811981C901800F911F8E1734
:101100009F0759F480819181800F911F02969983E6
:101110008883828193819B838A834115510529F4B9
:10112000B0932B04A0932A0441C0FA01B383A28395
:10113000C191D191EC0FFD1FAE17BF0781F4F901EA
:10114000929182918C0F9D1F0296DA0111969C93C9
:101150008E938281938113969C938E931297E0E0F5
:10116000F0E002C0FB01BC01DB0112968D919C9165
:1011700013970097B9F7CB0102962D913C911197E7
:10118000820F931F209128043091290428173907D2
:1011900069F4309729F410922B0410922A0402C0AB
:1011A000138212827093290460932804DF91CF91F7
:1011B0001F910F910895FC0188279927E8942191A8
:1011C0002032E9F3293010F02E30C8F32B3241F0F1
:1011D0002D3239F4689404C00E943509820F911DA4
:1011E000219120532A30C0F31EF4909581959F4F92
:1011F000089549EF52E00E940E090895FB01DC01B9
:101200008D91019080190110D9F3990B0895FB017C
:10121000DC0101900D920020E1F70895FA01A191FF
:10122000B081009719F41097E1F0CD01DC01CD01F8
:101230000D90002011F4C00113C0FB012191222365
:1012400019F02015D9F7F3CFFB012191201519F4DE
:101250001E92119606C02223C1F70D900020A1F71F
:10126000D001FA01A193B08308957AE0979F902D61
:10127000879F802D910D11240895CF92DF92EF92D8
:10128000FF920F931F93CF93DF938C016A01FA01B2
:10129000838180FF1AC016161706BCF47B01E80193
:1012A0000EC0C6010E94FB0BFFEF8F3F9F0769F046
:1012B00089930894E108F1088A30910521F021E032
:1012C000E216F10471F7188202C000E010E0C801D4
:1012D000DF91CF911F910F91FF90EF90DF90CF9012
:1012E00008950F931F93CF93DF938C01E0912C040B
:1012F000F0912D04838180FF12C0E80180912C04BD
:1013000090912D040E94FB0B2FEF8F3F920739F035
:1013100089938A30910591F72197188202C000E0E5
:1013200010E0C801DF91CF911F910F910895CF93E5
:10133000DF93CDB7DEB7FE01369661917191809152
:101340002E0490912F04AF010E94DE09DF91CF910E
:10135000089560912E0470912F040E943B0C089513
:101360000F931F93CF93DF938C01E0912E04F091A4
:101370002F04838181FF1AC0C0E0D0E005C0199519
:10138000009711F0CFEFDFEFF80181918F016091AD
:101390002E0470912F04DB011896ED91FC911997A2
:1013A000882369F78AE01995009711F0CFEFDFEFF6
:1013B000CE01DF91CF911F910F9108952F923F920F
:1013C0004F925F926F927F928F929F92AF92BF9255
:1013D000CF92DF92EF92FF920F931F93CF93DF9301
:1013E000CDB7DEB72D970FB6F894DEBF0FBECDBFD9
:1013F0003C017D876C875A01FC011782168283812C
:1014000081FFC8C12E010894411C511CF301938136
:10141000EC85FD8593FD859193FF8191FD87EC8798
:10142000882309F4B3C1853241F493FD859193FF7C
:101430008191FD87EC87853229F490E0B3010E9409
:101440003B0CE4CFFF24EE2410E01032B0F48B32DA
:1014500069F08C3228F4803251F0833271F40BC081
:101460008D3239F0803349F411602CC01260146061
:1014700029C0186027C0106125C017FD2EC0282F75
:1014800020532A3098F416FF08C08F2D880FF82EAD
:10149000FF0CFF0CF80EF20E15C08E2D880FE82EF3
:1014A000EE0CEE0CE80EE20E10620CC08E3221F44F
:1014B00016FD6CC1106406C08C3611F4106802C0B1
:1014C000883659F4EC85FD8593FD859193FF8191D4
:1014D000FD87EC87882309F0B8CF982F9554933077
:1014E00018F09052933038F424E030E0A20EB31E8E
:1014F0003FE339830FC0833631F0833781F0833582
:1015000009F05AC022C0F5018081898322E030E0D1
:10151000A20EB31E21E0C22ED12C420114C092E0D3
:10152000292E312C2A0C3B1CF5018080918016FF5E
:1015300003C06F2D70E002C06FEF7FEFC4010E9407
:10154000F00B6C0151011F7715C082E0282E312C61
:101550002A0C3B1CF5018080918016FF03C06F2D83
:1015600070E002C06FEF7FEFC4010E94E50B6C01D9
:101570001068510113FD1CC006C080E290E0B30169
:101580000E943B0CEA948E2D90E0C816D906A8F371
:101590000FC0F40117FD859117FF81914F0190E075
:1015A000B3010E943B0CE110EA940894C108D108F1
:1015B000C114D10471F7E7C0843611F0893651F5B2
:1015C000F50117FF07C080819181A281B38124E0DA
:1015D00030E008C080819181AA2797FDA095BA2F9D
:1015E00022E030E0A20EB31E012F0F76B7FF08C035
:1015F000B095A095909581959F4FAF4FBF4F0068D4
:10160000BC01CD01A2012AE030E00E94670CD82E77
:10161000D4183FC0853721F41F7E2AE030E020C077
:10162000197F8F36A9F0803720F4883509F0AEC0D5
:101630000BC0803721F0883709F0A8C001C01061C5
:1016400014FF09C0146007C014FF08C0166006C06C
:1016500028E030E005C020E130E002C020E132E0C7
:10166000F50117FF07C0608171818281938144E099
:1016700050E006C06081718180E090E042E050E07F
:10168000A40EB51EA2010E94670CD82ED418012FFB
:101690000F7706FF09C00E7FDF1430F404FF06C089
:1016A00002FD04C00F7E02C01D2D01C01F2D802F22
:1016B00090E004FF0CC0FE01ED0DF11D20812033F0
:1016C00011F4097E09C002FF06C01E5F05C08678BE
:1016D0009070009709F01F5F802E992403FD12C0BF
:1016E00000FF0DC0FD2C1E1550F4FE0CF11A1E2D2E
:1016F00006C080E290E0B3010E943B0C1F5F1E1504
:10170000C0F304C01E1510F4E11A01C0EE2484FEDB
:101710000FC080E390E0B3010E943B0C82FE1FC02B
:1017200081FE03C088E590E010C088E790E00DC01E
:10173000C40186789070009791F081FC02C080E22D
:1017400001C08BE207FD8DE290E0B3010E943B0CEB
:1017500006C080E390E0B3010E943B0CFA94DF14D2
:10176000C0F3DA94F201ED0DF11D808190E0B30138
:101770000E943B0CDD20A9F706C080E290E0B30197
:101780000E943B0CEA94EE20C1F740CEF301868123
:10179000978102C08FEF9FEF2D960FB6F894DEBFB2
:1017A0000FBECDBFDF91CF911F910F91FF90EF90B2
:1017B000DF90CF90BF90AF909F908F907F906F9071
:1017C0005F904F903F902F900895FC0105906150DD
:1017D00070400110D8F7809590958E0F9F1F089547
:1017E000FC016150704001900110D8F780959095F0
:1017F0008E0F9F1F0895CF93DF93EC012B8120FF65
:1018000035C026FF09C02F7B2B838E819F810196D7
:101810009F838E838A8128C022FF0FC0E881F981CF
:101820008081992787FD9095009719F420622B837A
:101830001DC03196F983E88311C0EA85FB85CE018E
:10184000199597FF0BC02B813FEF8F3F930711F442
:1018500080E101C080E2822B8B8308C02E813F8112
:101860002F5F3F4F3F832E8390E002C08FEF9FEFAB
:10187000DF91CF9108950F931F93CF93DF938C0146
:10188000EB018B8181FF1BC082FF0DC02E813F8148
:101890008C819D812817390764F4E881F9810193CF
:1018A000F983E88306C0E885F985802F19950097AC
:1018B00031F48E819F8101969F838E8302C00FEF4A
:1018C0001FEFC801DF91CF911F910F910895FA0189
:1018D000AA27283051F1203181F1E8946F936E7F6F
:1018E0006E5F7F4F8F4F9F4FAF4FB1E03ED0B4E060
:1018F0003CD0670F781F891F9A1FA11D680F791FA1
:101900008A1F911DA11D6A0F711D811D911DA11DB1
:1019100020D009F468943F912AE0269F11243019C1
:10192000305D3193DEF6CF010895462F4770405D5C
:101930004193B3E00FD0C9F7F6CF462F4F70405D0B
:101940004A3318F0495D31FD4052419302D0A9F766
:10195000EACFB4E0A6959795879577956795BA9560
:10196000C9F700976105710508959B01AC010A2E26
:1019700006945795479537952795BA95C9F7620FFD
:0E198000731F841F951FA01D0895F894FFCFBC
:10198E003E200025642069732061207072696D65A8
:10199E00206E756D6265722121210A00636F756E6E
:1019AE00743D25640A002420002D2D3E2564200060
:1019BE002420002D2D3E25642825642920003E3E3E
:1019CE0020000000000001000000000000AD040037
:1019DE00000000000200000000BA04000000000138
:1019EE00006C6F676F75742C20676F6F642062795F
:1019FE0065202121210020090A0D00242000746990
:101A0E006D6572002121212D32323200556E6B6EC2
:101A1E006F776E20636F6D6D616E642E2E2E0000DB
:101A2E0002007072696D6500000000000000000089
:101A3E000000000000000000000000000000000098
:101A4E000000600173756D000000000000000000D2
:101A5E000000000000000000000000000000000078
:101A6E00000000002F0773756D3D25640A0000000D
:041A7E00320420000E
:00000001FF
