:100000000C9472000C9494000C9494000C94940042
:100010000C9494000C9494000C9494000C94940010
:100020000C9494000C9494000C9494000C94940000
:100030000C9494000C9494000C9494000C94D306AB
:100040000C9494000C9494000C9494000C949400E0
:100050000C9494000C9494000C9494000C949400D0
:100060000C9494080C94B8070C9494000C94890791
:100070000C9494000C94FB000C9494000C94940049
:100080000C9494000C9494000C9494000C949400A0
:100090000C9494000C9494000C9494000C94940090
:1000A0000C9494000C9494000C9494000C94940080
:1000B0000C9494000C9494000C9494000C94940070
:1000C0000C9494000C9494000C9494000C94940060
:1000D0000C9494000C9494000C9494000C94940050
:1000E0000C94940011241FBECFEFD1E2DEBFCDBF30
:1000F00000E00CBF14E0A0E0B2E0EEE2FAE200E0C3
:100100000BBF02C007900D92A43CB107D9F71BBEEC
:1001100016E0A4ECB4E001C01D92A930B107E1F7EC
:100120000E94400F0C9415150C940000809880E8F4
:1001300080937C000895EAE7F0E080818068808306
:100140008DED90E00197F1F7808188608083808158
:10015000806480830895FC012081222319F50E9488
:100160009B0081E090E09093C5048093C40480914B
:10017000C4049091C5040097D1F700D00F9280E09D
:1001800092E0EDB7FEB7928381838091C60490918F
:10019000C704948383830E94B8110F900F900F902F
:1001A0000F9008950E94FC109C01B901882777FDEB
:1001B0008095982F0E940B0C29E030EF4CE85AE311
:1001C0000E94D90A20E030E04AE754E40E94D90AAC
:1001D0000E94820CDC01CB01845F91406AE070E0F8
:1001E0000E946F0F7093C7046093C6041092C504F9
:1001F0001092C40408951F920F920FB60F920BB67F
:100200000F9211240F931F932F933F934F935F935C
:100210006F937F938F939F93AF93BF93EF93FF93CE
:10022000CF93DF93CDB7DEB72897DEBFCDBF8091E8
:10023000780090917900EAE7F0E020812F77208321
:1002400000D000D0EDB7FEB731968E010F5F1F4F83
:10025000ADB7BEB712961C930E93119723E232E00E
:10026000338322839370958384830E94FF118DB71B
:100270009EB706960FB6F8949EBF0FBE8DBFC801FD
:100280000E94AB002896DEBFCDBFDF91CF91FF91DA
:10029000EF91BF91AF919F918F917F916F915F91FE
:1002A0004F913F912F911F910F910F900BBE0F9087
:1002B0000FBE0F901F901895CF92DF92FF920F9371
:1002C0001F93CF93DF93CDB7DEB728970FB6F8947F
:1002D000DEBF0FBECDBF009719F0FC01F08002C059
:1002E00091E6F92E86E2C82E82E0D82E0F920F9268
:1002F000EDB7FEB7D282C1820E94B8110F900F9065
:100300004091030650910406CE01019668E070E02A
:100310000E945E110097E9F00E9487038C01CE01D4
:1003200001960E94FC10F80191838083F8E6FF1685
:1003300021F084E7F81649F404C0C8010E948F0335
:10034000D5CFC8010E94A403D1CFC8010E94B80331
:10035000CDCF0E94EF030E941C0428960FB6F8949C
:10036000DEBF0FBECDBFDF91CF911F910F91FF90E8
:10037000DF90CF900895CF93DF93FC0162E070E0AF
:100380000E946F0FEB0122E030E008C0CF01B901FD
:100390000E946F0F009741F02F5F3F4FC217D307A6
:1003A000ACF781E090E002C080E090E0DF91CF9177
:1003B0000895CF92DF92EF92FF920F931F93CF9306
:1003C000DF93009721F00E94FC107C0104C090EDA7
:1003D000E92E97E0F92EC2E0D0E000E010E089E2DB
:1003E000C82E82E0D82E16C0CE010E94BB01009715
:1003F00081F00F5F1F4F00D00F92EDB7FEB7D28292
:10040000C182D483C3830E94B8110F900F900F90C4
:100410000F902196EC16FD063CF700D00F9282E477
:1004200092E0EDB7FEB792838183148303830E9429
:10043000B8110F900F900F900F90DF91CF911F91F7
:100440000F91FF90EF90DF90CF900895CF92DF92C1
:10045000EF92FF920F931F93CF93DF93009741F09A
:10046000FC012081222321F00E94FC108C0102C09B
:1004700000ED17E0EE24FF24C2E0D0E029E2C22E16
:1004800022E0D22E17C0CE010E94BB01009789F056
:100490000894E11CF11C00D00F92EDB7FEB7D28298
:1004A000C182D483C3830E94B8110F900F900F9024
:1004B0000F9021960C171D0734F700D00F9282E49D
:1004C00092E0EDB7FEB792838183F482E3820E94CB
:1004D000B8110F900F908CE492E0EDB7FEB79283C5
:1004E00081830E94B8110F900F90DF91CF911F91DF
:1004F0000F91FF90EF90DF90CF900895009741F01B
:10050000FC012081222321F00E94FC109C0102C0EA
:1005100024E630E000D00F928FE492E0EDB7FEB712
:1005200092838183A9014F5F5F4F429FC001439F28
:10053000900D529F900D112462E070E00E946F0FA9
:10054000748363830E94B8110F900F900F900F90E7
:100550000895109217051092160510921505109225
:10056000140510921905109218051092D3041092D8
:10057000D2040895482F20911805309119052F5F56
:100580003F4FC90160E470E00E946F0F9C018091B1
:10059000D2049091D3042817390759F030931905E4
:1005A00020931805265E3A4FF901408381E090E0E0
:1005B000089580E090E008958091D2049091D30452
:1005C00020911805309119052817390779F00196FF
:1005D00060E470E00E946F0F9093D3048093D20484
:1005E000865E9A4FFC01808190E0089580E090E063
:1005F0000895482F20911605309117052F5F3F4F22
:10060000C90160E470E00E946F0F9C0180911405A5
:10061000909115052817390759F030931705209345
:1006200016052C523B4FF901408381E090E008957C
:1006300080E090E008958091140590911505209137
:100640001605309117052817390779F0019660E4EF
:1006500070E00E946F0F90931505809314058C52E3
:100660009B4FFC01808190E0089580E090E0089528
:100670008091D2049091D3042091180530911905EE
:100680008217930759F0019660E470E00E946F0FA3
:10069000865E9A4FFC01808190E0089580E090E0B2
:1006A00008958FEF80930B0180930A0108951092B3
:1006B0000B011092C80408958FEF80930B01809373
:1006C000C804089521E030E002C0220F331F8A954C
:1006D000E2F720958091C80428232093C804209332
:1006E0000B01089521E030E002C0220F331F8A95EC
:1006F000E2F78091C804822B8093C80480930B0199
:10070000089580958093C80480930B01089584E038
:1007100090E00E94CD0F08950E9463100895FC019F
:100720008091C9049091CA04009739F4F093CA04E7
:10073000E093C90413821282089593838283F09315
:10074000CA04E093C9040895E091C904F091CA0471
:10075000309731F49093CA048093C9040895F90145
:100760002281338121153105D1F793838283089546
:10077000CF93DF93FC012091C9043091CA04211565
:10078000310531F040815181D901C0E0D0E00FC086
:100790009093CA048093C904138212821DC01296DA
:1007A0008D919C911397ED01009739F0DC018D91AB
:1007B0009C9111978417950794F3209739F433830C
:1007C0002283F093CA04E093C90406C08A819B8106
:1007D00093838283FB83EA83DF91CF9108950F9304
:1007E0001F93CF93DF938AE090E00E94CA11C091DB
:1007F000C904D091CA0407E512E013C000D00F92DB
:10080000EDB7FEB712830183888199819483838336
:100810000E94B8110A80DB81C02D0F900F900F90BD
:100820000F90209759F78AE090E00E94CA11DF915B
:10083000CF911F910F91089509C0FC01228133814E
:100840003093CA042093C9040E9463108091C904A4
:100850009091CA04009789F7089510925B05109251
:100860005A051092FD051092FC050895CF93DF9371
:10087000482FE92F80915A0590915B05C091FC05A6
:10088000D091FD05019620E130E0B9010E946F0F83
:100890008C179D0731F180915A0590915B05019667
:1008A000B9010E946F0F90935B0580935A05809168
:1008B0005A0590915B05DC01AA0FBB1F63E0880F0E
:1008C000991F6A95E1F7A80FB91FA45ABA4FC42F10
:1008D000DE2F8AE009900D928150E1F781E090E0EF
:1008E00002C080E090E0DF91CF9108959C0140919B
:1008F0005A0550915B058091FC059091FD054817C4
:10090000590731F18091FC059091FD05019660E158
:1009100070E00E946F0F9093FD058093FC0580911D
:10092000FC059091FD05FC01EE0FFF1FA3E0880F71
:10093000991FAA95E1F7E80FF91FD901E45AFA4F78
:100940008AE001900D928150E1F781E090E00895F6
:1009500080E090E00895EF92FF920F931F93CF9362
:10096000DF937C0100E010E017C0E801CC0FDD1F31
:10097000C80125E0880F991F2A95E1F7C80FD91FF4
:10098000CE55DD4FC701BE010E941F11009711F423
:10099000CE010BC00F5F1F4F8091A0029091A1026A
:1009A0000817190714F380E090E0DF91CF911F91B1
:1009B0000F91FF90EF900895AF92BF92CF92DF9288
:1009C000EF92FF920F931F93CF93DF93CDB7DEB7D4
:1009D000CA54D0400FB6F894DEBF0FBECDBF0E9400
:1009E0008607009709F491C0CE010B960E949211E0
:1009F000009729F481E692E00E94D111FFCFCE0149
:100A00000B9666E772E00E941A118C0180E090E07C
:100A100066E772E00E941A117C0180E090E066E7D0
:100A200072E00E941A116C0180E090E066E772E0CB
:100A30000E941A115C010115110559F40F920F92D1
:100A40008BE792E0ADB7BEB712969C938E93119749
:100A500058C0C8016EE772E00E941F11009791F51F
:100A6000E114F10419F0C114D10429F484E892E0EE
:100A70000E94D1113EC0C7010E94FC108C01C6012A
:100A80000E94AB04009719F1DC0190968D919C9126
:100A900091979A838983CE010396A114B10411F032
:100AA000B50102C06FE972E00E942811F894C801F4
:100AB00060E071E00E946F0FCE0101960E94CE05AA
:100AC000789417C0C8010E94AB04009729F48CE801
:100AD00092E00E94D11119C0DC019096ED91FC9139
:100AE0009197C114D10411F0C70102C08FE992E0BF
:100AF00019950F920F928BE792E0EDB7FEB79283B4
:100B000081830E94B8110F900F90C65BDF4F0FB624
:100B1000F894DEBF0FBECDBFDF91CF911F910F9133
:100B2000FF90EF90DF90CF90BF90AF90089510921C
:100B3000B200E6EBF0E0808180628083E0E7F0E0E5
:100B4000808181608083E1EBF0E08081816080833F
:100B50008081826080830895CF93DF930DC08C8560
:100B60009D859093CC048093CB04CE0102960E9485
:100B70003604CE010E946310C091CB04D091CC0406
:100B8000209721F088819981009749F3DF91CF91D7
:100B900008958EE090E00E94CD0F0895EF92FF92AD
:100BA0000F931F93CF93DF93F82EE92E8B010E94B2
:100BB000C905EC01DC011296EF2DFE2D8AE00190B3
:100BC0000D928150E1F719830883E091CB04F091F5
:100BD000CC04309729F4D093CC04C093CB042FC01D
:100BE00040E050E020E030E001C0FD0180819181D3
:100BF000280F391F2017310734F4A485B585AF01BC
:100C0000109799F701C0DF014115510579F48D91D5
:100C10009C911197801B910B11969C938E93BD878D
:100C2000AC87D093CC04C093CB0424C0109751F46C
:100C3000021B130B19830883FA01D587C4871D860D
:100C40001C8618C08D919C911197B901681B790B76
:100C50009801261B370B398328838D919C9111971E
:100C6000821B930B11969C938E93FA01D587C487B0
:100C7000BD87AC87DF91CF911F910F91FF90EF90CF
:100C80000895EF92FF920F931F93CF93DF938AE023
:100C900090E00E94CA11C091CB04D091CC0400E036
:100CA00010E08AE2E82E83E0F82E20C08881998146
:100CB000080F191F00D000D0EDB7FEB73196ADB7C1
:100CC000BEB71296FC92EE9211979383828315839E
:100CD00004830E94B8110C84DD85C02D8DB79EB7AA
:100CE00006960FB6F8949EBF0FBE8DBF2097F1F603
:100CF0008AE090E00E94CA11DF91CF911F910F917D
:100D0000FF90EF90089509C0FC012485358530934C
:100D1000CC042093CB040E9463108091CB0490916B
:100D2000CC04009789F708950F931F93CF93DF9317
:100D3000CDB7DEB762970FB6F894DEBF0FBECDBF5A
:100D400005E313E00F920F92EDB7FEB71283018314
:100D50000E94B8110F900F90409103065091040625
:100D6000CE01019668E070E00E945E11009761F08C
:100D7000CE0101960E94FC10BC01009729F0CE0123
:100D800009960E94CE05DECF0E9441060E9483068E
:100D900062960FB6F894DEBF0FBECDBFDF91CF9144
:100DA0001F910F9108951F920F920FB60F920BB6DD
:100DB0000F9211242F933F934F935F936F937F93E1
:100DC0008F939F93AF93BF93EF93FF93E091CB04E7
:100DD000F091CC04309749F0808191810197918303
:100DE0008083009711F40E94AC05FF91EF91BF91B1
:100DF000AF919F918F917F916F915F914F913F91B3
:100E00002F910F900BBE0F900FBE0F901F90189553
:100E1000F8940E94DC0278948823D1F3843011F096
:100E200090E008958FEF9FEF0895CF93C82F8A30F9
:100E300019F48DE00E941507F8948091FE0588232F
:100E400059F4C093C60081E08093FE050AC07894EF
:100E500086EF8A95F1F7F8948C2F0E94F90200979B
:100E6000B1F3789481E090E0CF9108958AE393E024
:100E7000909304068093030688E493E0909306061B
:100E8000809305061092FE050E94A9021092C500EB
:100E900087E08093C400E0ECF0E080818260808392
:100EA000E1ECF0E0808188608083808180648083D1
:100EB0008081806180838081806880830895CF9362
:100EC000C82F8A3019F48DE00E945F078091C0001E
:100ED00085FFFCCFC093C60081E090E0CF910895DC
:100EE000CF93C82F8A3019F48DE00E94700780914B
:100EF000FE05882331F4C093C60081E08093FE058F
:100F000003C08C2F0E94F902CF9108950E943803EC
:100F100008951F920F920FB60F920BB60F921124E5
:100F20002F933F934F935F936F937F938F939F93F1
:100F3000AF93BF93EF93FF930E941B03882319F491
:100F40001092FE0502C08093C600FF91EF91BF9101
:100F5000AF919F918F917F916F915F914F913F9151
:100F60002F910F900BBE0F900FBE0F901F901895F2
:100F70001F920F920FB60F920BB60F9211241F9370
:100F80002F933F934F935F936F937F938F939F9391
:100F9000AF93BF93EF93FF93CF93DF93CDB7DEB7BC
:100FA0002A97DEBFCDBF1091C6001B3161F480913E
:100FB0005603909157030196817090709093570358
:100FC0008093560324C0143069F01D3009F41AE0F0
:100FD00020915603309157032115310519F0812FC7
:100FE0000E947007812F0E94BA02143011F01A304B
:100FF00071F48CED94E09A838983CE01039669E3C2
:1010000073E00E942811CE0101960E9436042A96B0
:10101000DEBFCDBFDF91CF91FF91EF91BF91AF9137
:101020009F918F917F916F915F914F913F912F9100
:101030001F910F900BBE0F900FBE0F901F90189531
:10104000209A219A229A23988DB581608DBD80EDDA
:101050008CBD089528980895289A0895CF92DF921C
:10106000EF92FF92DC012C91222331F481E08093F6
:10107000CD040E942A0811C02091CD04213021F016
:10108000223009F044C00BC00E94FC101092CE0424
:101090008093CF0482E08093CD041EBC3EC0C090FC
:1010A000CE04D090CF040E94FC10C82AD92A23E095
:1010B000D694C7942A95E1F7B60180E090E00E94AB
:1010C000D30C20E030E040E85DE30E94D90A0E94A2
:1010D000EC086B017C017093CF046093CE040E94F6
:1010E0002C0800D00F92EDB7FEB7319688E593E05B
:1010F000ADB7BEB712969C938E931197D382C282DE
:101100000E94B8110F900F900F900F9006C00E9490
:101110002C0887E893E00E94D111FF90EF90DF90B8
:10112000CF9008958EBD08951F920F920FB60F9223
:101130000BB60F9211242F933F934F935F936F93AE
:101140007F938F939F93AF93BF93EF93FF93CF932F
:10115000DF93CDB7DEB72A97DEBFCDBF2EB58EE2C7
:1011600098E09A83898300D000D0EDB7FEB731961E
:10117000CE010396ADB7BEB712969C938E9311978E
:1011800083EB93E093838283248315820E94FF1173
:101190008DB79EB706960FB6F8949EBF0FBE8DBF53
:1011A000CE0101960E9436042A96DEBFCDBFDF91A4
:1011B000CF91FF91EF91BF91AF919F918F917F91CF
:1011C0006F915F914F913F912F910F900BBE0F90B8
:1011D0000FBE0F901F901895CF92DF92EF92FF9263
:1011E0000F931F936B017C0120E030E040E05FE44F
:1011F0000E94DA0B87FD11C0C701B60120E030E084
:1012000040E05FE40E94A10A0E94820C8B019C01D5
:10121000005010402040304806C0C701B6010E946F
:10122000820C8B019C01B801C9011F910F91FF90A5
:10123000EF90DF90CF900895A0E0B0E0E2E2F9E017
:101240000C94980FEC014B01FA018881823008F46C
:101250003EC1DB019C91923008F436C1843059F4D0
:10126000943009F034C1998111968C911197981797
:1012700009F027C12CC1943009F426C19230A9F499
:10128000823009F024C1CE0128E0DC010D90CD01AF
:10129000DA010D92AD012150C1F7D40111968C9164
:1012A000119799818923818311C1823009F40CC17E
:1012B000AA80BB80DB0112964D915C911397CC8084
:1012C000DD80EE80FF8014960D911D912D913C9153
:1012D0001797C501841B950BDC0197FF04C0AA2753
:1012E000BB27A81BB90BA032B1050CF067C01816BC
:1012F000190684F5280139010A2E04C076946794F2
:10130000579447940A94D2F741E050E060E070E0CF
:1013100004C0440F551F661F771FAA95D2F741508E
:10132000504060407040402351236223732381E08A
:1013300090E0A0E0B0E0411551056105710519F498
:1013400080E090E0DC018C019D010429152926290B
:1013500037293FC00097E9F1AA0EBB1E26013701CD
:101360000A2E04C076946794579447940A94D2F74F
:1013700041E050E060E070E004C0440F551F661F7C
:10138000771FAA95D2F741505040604070404C21E1
:101390005D216E217F2181E090E0A0E0B0E0411569
:1013A00051056105710519F480E090E0DC016C01E4
:1013B0007D01C428D528E628F7280BC04A155B050F
:1013C00024F400E010E0980104C05A01CC24DD248C
:1013D00076018981D40111969C911197891709F49E
:1013E00045C0882329F00C191D092E093F0908C0A2
:1013F000D701C601801B910BA20BB30B8C019D0181
:1014000037FD04C01182B382A2820BC081E08183C8
:10141000B382A28230952095109501951F4F2F4FD2
:101420003F4F04831583268337830DC0880F991F90
:10143000AA1FBB1F84839583A683B7838281938170
:1014400001979383828384819581A681B781AC01C2
:10145000BD0141505040604070404F3F2FEF520758
:101460002FEF62072FE3720708F30BC08183B3826B
:10147000A2820C0D1D1D2E1D3F1D04831583268386
:10148000378383E08083448155816681778177FF4C
:101490001DC0DB01CA0181709070A070B07076959C
:1014A000679557954795842B952BA62BB72B84834F
:1014B0009583A683B78382819381019693838283E8
:1014C00005C0C6EBD3E003C0E40101C0EF01CE01CB
:1014D000CDB7DEB7E0E10C94B40FA0E2B0E0E3E7F3
:1014E000FAE00C94A60FDC01CB018D839E83AF83C1
:1014F000B88729833A834B835C83CE010596BE016E
:10150000675E7F4F0E947A0ECE010196BE016F5E2C
:101510007F4F0E947A0ECE014996BE016F5E7F4FCB
:10152000AE01475F5F4F0E941C090E94A30D462F2A
:10153000572F682F792FCB01BA01A096E2E00C94C7
:10154000C20FA0E2B0E0E7EAFAE00C94A60FDC01DB
:10155000CB018D839E83AF83B88729833A834B83E6
:101560005C83CE010596BE01675E7F4F0E947A0EB6
:10157000CE010196BE016F5E7F4F0E947A0E8A896E
:1015800091E089278A8BCE014996BE016F5E7F4F1D
:10159000AE01475F5F4F0E941C090E94A30D462FBA
:1015A000572F682F792FCB01BA01A096E2E00C9457
:1015B000C20FA0E2B0E0EFEDFAE00C94980FDC016E
:1015C000CB018D839E83AF83B88729833A834B8376
:1015D0005C83CE010596BE01675E7F4F0E947A0E46
:1015E000CE010196BE016F5E7F4F0E947A0E998DEB
:1015F000923078F089898230C0F0943019F48230CA
:1016000041F4CAC0843019F4923079F4C5C09230E4
:1016100051F481E02A8D9A89291709F480E08A8F94
:10162000CE014996BBC0823051F481E02A8D9A895F
:10163000291709F480E08A8BCE014196AFC04D8C0A
:101640005E8C6F8C78A00D891E892F89388DE0E221
:10165000F0E040E050E0BA01882499245401CC2401
:10166000DD247601C201817090700097D1F0C00E28
:10167000D11EE21EF31EDB01CA01880D991DAA1DB1
:10168000BB1D41E050E060E070E0C016D106E2060C
:10169000F30618F040E050E0BA01480F591F6A1FE6
:1016A0007B1F880C991CAA1CBB1C37FF08C081E05B
:1016B00090E0A0E0B0E0882A992AAA2ABB2A000F6D
:1016C000111F221F331F76946794579447943197C4
:1016D00049F68B8D9C8D2B893C89820F931F029636
:1016E0009C878B8781E02A8D9A89291709F480E0ED
:1016F0008A872B853C8517C0CA018170907000973E
:1017000061F0F694E794D794C79480E090E0A0E06D
:10171000B0E8C82AD92AEA2AFB2A76956795579510
:1017200047952F5F3F4F77FDE7CFC9010BC0440FAF
:10173000551F661F771FF7FC4160CC0CDD1CEE1CAB
:10174000FF1C01974030A0E05A07A0E06A07A0E420
:101750007A0768F38B879C87DB01CA018F779070CB
:10176000A070B07080349105A105B10561F447FD0A
:101770000AC0C114D104E104F10429F0405C5F4FB8
:101780006F4F7F4F40784D875E876F87788B83E000
:101790008987CE01099602C086EB93E00E94A30DD3
:1017A000462F572F682F792FCB01BA01A096E0E181
:1017B0000C94B40FA8E1B0E0E0EEFBE00C94A60FAF
:1017C000DC01CB018D839E83AF83B88729833A8365
:1017D0004B835C83CE010596BE016F5E7F4F0E94F6
:1017E0007A0ECE010196BE01675F7F4F0E947A0E8E
:1017F0008989823058F08985823040F0CE01419647
:10180000BE01675F7F4F0E94E30E01C08FEF6896B5
:10181000E2E00C94C20FCF92DF92EF92FF92CF934F
:10182000DF93CDB7DEB728970FB6F894DEBF0FBEB3
:10183000CDBF6B017C0183E08983D701C601882776
:10184000B7FD83959927AA27BB27282F8A83C11420
:10185000D104E104F10419F482E0898335C08EE1FA
:1018600090E09C838B83222389F080E0C81680E07F
:10187000D80680E0E80680E8F80659F1F094E09494
:10188000D094C094C11CD11CE11CF11CCD82DE821D
:10189000EF82F886C701B6010E94500D0197181615
:1018A000190694F4082E04C0CC0CDD1CEE1CFF1CA1
:1018B0000A94D2F7CD82DE82EF82F8862EE130E004
:1018C000281B390B3C832B83CE0101960E94A30D6C
:1018D00004C060E070E080E09FEC382F292F862F55
:1018E000972FA32FB22FBC01CD0128960FB6F894E5
:1018F000DEBF0FBECDBFDF91CF91FF90EF90DF90A5
:10190000CF900895ACE0B0E0E8E8FCE00C94A40FC0
:10191000DC01CB0189839A83AB83BC83CE01019622
:10192000BE016B5F7F4F0E947A0E8D81823069F11C
:10193000823058F1843039F02F81388537FD25C049
:101940002F31310544F08E81882319F100E010E039
:1019500020E030E822C08EE190E0821B930B0985E5
:101960001A852B853C8504C03695279517950795D4
:101970008A95D2F78E81882381F030952095109535
:1019800001951F4F2F4F3F4F08C000E010E0980116
:1019900004C00FEF1FEF2FEF3FE7B801C9012C96EE
:1019A000E4E00C94C00FA8E0B0E0E9EDFCE00C949A
:1019B000A00F6B017C011A826115710581059105EB
:1019C00019F482E089835EC083E089830EE110E030
:1019D0001C830B83CD82DE82EF82F886C701B601BD
:1019E0000E94500D9C012150304037FF38C0EE2737
:1019F000FF27E21BF30B81E090E0A0E0B0E00E2EA9
:101A000004C0880F991FAA1FBB1F0A94D2F7019721
:101A1000A109B1098C219D21AE21BF2141E050E0F7
:101A200060E070E00097A105B10519F440E050E0D6
:101A3000BA0104C0F694E794D794C794EA95D2F714
:101A4000C42AD52AE62AF72ACD82DE82EF82F886DA
:101A50008EE190E0821B930B9C838B8313C0211536
:101A6000310581F0022E04C0CC0CDD1CEE1CFF1CE5
:101A70000A94D2F7CD82DE82EF82F886021B130B26
:101A80001C830B83CE0101960E94A30D462F572F76
:101A9000682F792FCB01BA012896E8E00C94BC0F8F
:101AA000CF92DF92EF92FF920F931F938B019C01D5
:101AB000003080E0180781E0280780E0380750F404
:101AC0000F3F11052105310509F088F480E090E011
:101AD000DC0116C00030E0E01E07E0E02E07E1E088
:101AE0003E0750F480E190E0A0E0B0E009C088E05B
:101AF00090E0A0E0B0E004C088E190E0A0E0B0E0B9
:101B000040E250E060E070E0481B590B6A0B7B0B31
:101B10006801790104C0F694E794D794C7948A9534
:101B2000D2F7D701C60182549C4FFC018081481B2B
:101B3000510961097109CA011F910F91FF90EF903E
:101B4000DF90CF900895CF92DF92EF92FF920F93A4
:101B50001F93DC0114964D915D916D917C911797C7
:101B60001196EC9111978C91823020F460618FEF87
:101B700090E0A5C0843009F49DC0823009F494C07F
:101B8000411551056105710509F491C012968D91B9
:101B90009C9113972FEF823892070CF059C022E8DE
:101BA0003FEF281B390B2A31310564F56A017B01AF
:101BB000022E04C0F694E794D794C7940A94D2F7FF
:101BC00081E090E0A0E0B0E004C0880F991FAA1F58
:101BD000BB1F2A95D2F70197A109B1098423952348
:101BE000A623B72341E050E060E070E00097A10534
:101BF000B10519F440E050E0BA014C295D296E2985
:101C00007F2903C040E050E0BA01DB01CA018F77B1
:101C10009070A070B07080349105A105B10539F4C1
:101C200047FF09C0405C5F4F6F4F7F4F04C0415C6E
:101C30005F4F6F4F7F4F81E090E0403020E05207D0
:101C400020E0620720E4720738F580E090E024C0CD
:101C5000803891057CF58A019B010F771070207008
:101C60003070003411052105310539F447FF09C0F2
:101C7000405C5F4F6F4F7F4F04C0415C5F4F6F4FC1
:101C80007F4F77FD03C081589F4F06C076956795BB
:101C90005795479580589F4F97E07695679557954C
:101CA00047959A95D1F70BC080E090E005C080E0A1
:101CB00090E005C08FEF90E040E050E0BA01982F2F
:101CC000979599279795A62FAF77E795EE27E795F4
:101CD00086953A2F392B282F2E2B842F952FA32F23
:101CE000B22FBC01CD011F910F91FF90EF90DF90BB
:101CF000CF900895DC01FB014C9111965C911197F6
:101D000012968C911297682F6F7770E0982F991F19
:101D10009927991F13962C911397822F880F892B3F
:101D200090E0221F2227221F2183009739F54115B9
:101D300051056105710511F482E029C082E89FEF29
:101D40009383828327E0440F551F661F771F2A95D0
:101D5000D1F783E0808309C0440F551F661F771FAA
:101D600082819381019793838283403080E058077A
:101D700080E0680780E4780778F320C08F3F910502
:101D800079F4411551056105710519F484E08083EA
:101D9000089564FF03C081E0808310C010820EC0EC
:101DA0008F5790409383828383E0808387E0440F42
:101DB000551F661F771F8A95D1F77064448355833A
:101DC000668377830895CF93FC01DB019081923085
:101DD00008F44CC08C91823008F448C0943069F407
:101DE0002181843039F411968C91119790E0821BF7
:101DF000910944C02223D1F13FC0843021F09230B8
:101E000041F48230B1F111968C9111978823A1F1A0
:101E10002DC0C181823001F111968C911197C817A4
:101E2000D9F48281938112962D913C9113972817B2
:101E3000390794F082179307BCF04481558166817D
:101E4000778114968D919D910D90BC91A02D841752
:101E50009507A607B70718F4CC2341F00DC0481723
:101E600059076A077B0728F4CC2331F081E090E022
:101E700005C080E090E002C08FEF9FEFCF91089502
:101E8000CF93DF93CDB7DEB72A970FB6F894DEBFB6
:101E90000FBECDBF78940E9436070E942D040E9489
:101EA00097050E9496000E9420080F920F928EE5DF
:101EB00092E0EDB7FEB7928381830E94B8110F9034
:101EC0000F90F894CE0101960E94760478940097C2
:101ED000C1F3E981FA81CE0103961995F2CF97FB00
:101EE000092E07260AD077FD04D00CD006D000209A
:101EF0001AF4709561957F4F0895F6F79095819546
:101F00009F4F0895AA1BBB1B51E107C0AA1FBB1F0F
:101F1000A617B70710F0A61BB70B881F991F5A9575
:101F2000A9F780959095BC01CD0108952F923F921D
:101F30004F925F926F927F928F929F92AF92BF92D9
:101F4000CF92DF92EF92FF920F931F93CF93DF9385
:101F5000CDB7DEB7CA1BDB0B0FB6F894DEBF0FBEE2
:101F6000CDBF19942A88398848885F846E847D841F
:101F70008C849B84AA84B984C884DF80EE80FD8031
:101F80000C811B81AA81B981CE0FD11D0FB6F894A7
:101F9000DEBF0FBECDBFED010895CF93DF93AC013F
:101FA0008230910510F442E050E0E0910106F0919A
:101FB000020620E030E0A0E0B0E024C08081918102
:101FC00084179507D0F08417950771F48281938167
:101FD000109729F013969C938E9312972CC0909390
:101FE00002068093010627C02115310519F08217DA
:101FF000930718F49C01BD01EF0192818381DF01F9
:10200000E92FF82F3097D1F621153105F9F0C901E4
:10201000841B950B8430910580F48A819B81611526
:10202000710521F0FB019383828304C09093020623
:1020300080930106FE01329642C0FE01E80FF91FAF
:102040004193519302979983888339C08091FF050A
:1020500090910006009741F48091C0049091C104D2
:10206000909300068093FF052091BE043091BF0439
:102070002115310541F42DB73EB78091C2049091EE
:10208000C304281B390BE091FF05F0910006E2170D
:10209000F30798F42E1B3F0B2417350770F0CA0185
:1020A00002962817390748F08E0F9F1F909300065D
:1020B0008093FF054193519302C0E0E0F0E0CF012F
:1020C000DF91CF9108950F931F93CF93DF939C01DE
:1020D000009709F48CC0DC01129713961C921E9293
:1020E000129760910106709102066115710589F4DD
:1020F0008D919C911197820F931F2091FF05309134
:1021000000062817390769F5B0930006A093FF056C
:102110006EC0FB0140E050E001C0FC01EA17FB0784
:1021200030F482819381AF010097B9F71FC0E901B4
:102130002297FB83EA8308811981C901800F911FCF
:102140008E179F0759F480819181800F911F02960D
:1021500099838883828193819B838A83411551056A
:1021600029F4B0930206A093010641C0FA01B3839B
:10217000A283C191D191EC0FFD1FAE17BF0781F46F
:10218000F901929182918C0F9D1F0296DA011196AE
:102190009C938E938281938113969C938E93129736
:1021A000E0E0F0E002C0FB01BC01DB0112968D9182
:1021B0009C9113970097B9F7CB0102962D913C9112
:1021C0001197820F931F2091FF0530910006281769
:1021D000390769F4309729F410920206109201062B
:1021E00002C013821282709300066093FF05DF9194
:1021F000CF911F910F910895FC0188279927E894AA
:1022000021912032E9F3293010F02E30C8F32B321F
:1022100041F02D3239F4689404C00E945611820FA7
:10222000911D219120532A30C0F31EF49095819581
:102230009F4F089540ED54E00E942F110895FB0137
:10224000DC018D91019080190110D9F3990B08954B
:10225000FB01DC0101900D920020E1F70895FA01E5
:10226000A191B081009719F41097E1F0CD01DC0144
:10227000CD010D90002011F4C00113C0FB0121918C
:10228000222319F02015D9F7F3CFFB012191201556
:1022900019F41E92119606C02223C1F70D9000205A
:1022A000A1F7D001FA01A193B08308957AE0979F36
:1022B000902D879F802D910D11240895CF92DF924C
:1022C000EF92FF920F931F93CF93DF938C016A01DC
:1022D000FA01838180FF1AC016161706BCF47B0131
:1022E000E8010EC0C6010E944B14FFEF8F3F9F070D
:1022F00069F089930894E108F1088A30910521F08A
:1023000021E0E216F10471F7188202C000E010E04B
:10231000C801DF91CF911F910F91FF90EF90DF9057
:10232000CF9008950F931F93CF93DF938C01E0918B
:102330000306F0910406838180FF12C0E8018091BA
:102340000306909104060E944B142FEF8F3F9207D3
:1023500039F089938A30910591F72197188202C04C
:1023600000E010E0C801DF91CF911F910F91089517
:10237000CF93DF93CDB7DEB7FE01369661917191B1
:102380008091050690910606AF010E942E12DF9102
:10239000CF91089560910506709106060E948B14F6
:1023A00008950F931F93CF93DF938C01E09105065F
:1023B000F0910606838181FF1AC0C0E0D0E005C01D
:1023C0001995009711F0CFEFDFEFF80181918F01A0
:1023D0006091050670910606DB011896ED91FC915F
:1023E0001997882369F78AE01995009711F0CFEFC4
:1023F000DFEFCE01DF91CF911F910F9108950F93E1
:102400001F93CF93DF93CDB7DEB72E970FB6F89417
:10241000DEBF0FBECDBF0E891F8986E08C831A8375
:1024200009838FEF9FE79E838D83AE01465E5F4FEA
:10243000CE010196688D798D0E942E12EF81F8856C
:10244000E00FF11F10822E960FB6F894DEBF0FBE7C
:10245000CDBFDF91CF911F910F9108952F923F92A1
:102460004F925F926F927F928F929F92AF92BF92A4
:10247000CF92DF92EF92FF920F931F93CF93DF9350
:10248000CDB7DEB72D970FB6F894DEBF0FBECDBF28
:102490003C017D876C875A01FC011782168283817B
:1024A00081FFC8C12E010894411C511CF301938186
:1024B000EC85FD8593FD859193FF8191FD87EC87E8
:1024C000882309F4B3C1853241F493FD859193FFCC
:1024D0008191FD87EC87853229F490E0B3010E9459
:1024E0008B14E4CFFF24EE2410E01032B0F48B32D2
:1024F00069F08C3228F4803251F0833271F40BC0D1
:102500008D3239F0803349F411602CC012601460B0
:1025100029C0186027C0106125C017FD2EC0282FC4
:1025200020532A3098F416FF08C08F2D880FF82EFC
:10253000FF0CFF0CF80EF20E15C08E2D880FE82E42
:10254000EE0CEE0CE80EE20E10620CC08E3221F49E
:1025500016FD6CC1106406C08C3611F4106802C000
:10256000883659F4EC85FD8593FD859193FF819123
:10257000FD87EC87882309F0B8CF982F95549330C6
:1025800018F09052933038F424E030E0A20EB31EDD
:102590003FE339830FC0833631F0833781F08335D1
:1025A00009F05AC022C0F5018081898322E030E021
:1025B000A20EB31E21E0C22ED12C420114C092E023
:1025C000292E312C2A0C3B1CF5018080918016FFAE
:1025D00003C06F2D70E002C06FEF7FEFC4010E9457
:1025E00040146C0151011F7715C082E0282E312C58
:1025F0002A0C3B1CF5018080918016FF03C06F2DD3
:1026000070E002C06FEF7FEFC4010E9435146C01CF
:102610001068510113FD1CC006C080E290E0B301B8
:102620000E948B14EA948E2D90E0C816D906A8F368
:102630000FC0F40117FD859117FF81914F0190E0C4
:10264000B3010E948B14E110EA940894C108D108E8
:10265000C114D10471F7E7C0843611F0893651F501
:10266000F50117FF07C080819181A281B38124E029
:1026700030E008C080819181AA2797FDA095BA2FEC
:1026800022E030E0A20EB31E012F0F76B7FF08C084
:10269000B095A095909581959F4FAF4FBF4F006823
:1026A000BC01CD01A2012AE030E00E94B714D82E6F
:1026B000D4183FC0853721F41F7E2AE030E020C0C7
:1026C000197F8F36A9F0803720F4883509F0AEC025
:1026D0000BC0803721F0883709F0A8C001C0106115
:1026E00014FF09C0146007C014FF08C0166006C0BC
:1026F00028E030E005C020E130E002C020E132E017
:10270000F50117FF07C0608171818281938144E0E8
:1027100050E006C06081718180E090E042E050E0CE
:10272000A40EB51EA2010E94B714D82ED418012FF2
:102730000F7706FF09C00E7FDF1430F404FF06C0D8
:1027400002FD04C00F7E02C01D2D01C01F2D802F71
:1027500090E004FF0CC0FE01ED0DF11D208120333F
:1027600011F4097E09C002FF06C01E5F05C086780D
:102770009070009709F01F5F802E992403FD12C00E
:1027800000FF0DC0FD2C1E1550F4FE0CF11A1E2D7D
:1027900006C080E290E0B3010E948B141F5F1E15FB
:1027A000C0F304C01E1510F4E11A01C0EE2484FE2B
:1027B0000FC080E390E0B3010E948B1482FE1FC023
:1027C00081FE03C088E590E010C088E790E00DC06E
:1027D000C40186789070009791F081FC02C080E27D
:1027E00001C08BE207FD8DE290E0B3010E948B14E3
:1027F00006C080E390E0B3010E948B14FA94DF14CA
:10280000C0F3DA94F201ED0DF11D808190E0B30187
:102810000E948B14DD20A9F706C080E290E0B3018E
:102820000E948B14EA94EE20C1F740CEF30186811A
:10283000978102C08FEF9FEF2D960FB6F894DEBF01
:102840000FBECDBFDF91CF911F910F91FF90EF9001
:10285000DF90CF90BF90AF909F908F907F906F90C0
:102860005F904F903F902F900895FC01059061502C
:1028700070400110D8F7809590958E0F9F1F089596
:10288000FC016150704001900110D8F7809590953F
:102890008E0F9F1F0895CF93DF93EC012B8120FFB4
:1028A00035C026FF09C02F7B2B838E819F81019627
:1028B0009F838E838A8128C022FF0FC0E881F9811F
:1028C0008081992787FD9095009719F420622B83CA
:1028D0001DC03196F983E88311C0EA85FB85CE01DE
:1028E000199597FF0BC02B813FEF8F3F930711F492
:1028F00080E101C080E2822B8B8308C02E813F8162
:102900002F5F3F4F3F832E8390E002C08FEF9FEFFA
:10291000DF91CF9108950F931F93CF93DF938C0195
:10292000EB018B8181FF1BC082FF0DC02E813F8197
:102930008C819D812817390764F4E881F98101931E
:10294000F983E88306C0E885F985802F19950097FB
:1029500031F48E819F8101969F838E8302C00FEF99
:102960001FEFC801DF91CF911F910F910895FA01D8
:10297000AA27283051F1203181F1E8946F936E7FBE
:102980006E5F7F4F8F4F9F4FAF4FB1E03ED0B4E0AF
:102990003CD0670F781F891F9A1FA11D680F791FF0
:1029A0008A1F911DA11D6A0F711D811D911DA11D01
:1029B00020D009F468943F912AE0269F1124301911
:1029C000305D3193DEF6CF010895462F4770405DAC
:1029D0004193B3E00FD0C9F7F6CF462F4F70405D5B
:1029E0004A3318F0495D31FD4052419302D0A9F7B6
:1029F000EACFB4E0A6959795879577956795BA95B0
:102A0000C9F700976105710508959B01AC010A2E75
:102A100006945795479537952795BA95C9F7620F4C
:0E2A2000731F841F951FA01D0895F894FFCF0B
:102A2E004375727272656E742074656D7065727422
:102A3E00757265206973202564206465677265650B
:102A4E002E0A002564003E20002564206973206153
:102A5E00207072696D65206E756D6265722121211F
:102A6E000A00636F756E743D25640A00242000739E
:102A7E00756D3D25640A002D2D3E25642000242011
:102A8E00006C6F676F75742C20676F6F64206279AE
:102A9E0065202121210020090A0D002420007469DF
:102AAE006D6572002121212D32323200556E6B6E12
:102ABE006F776E20636F6D6D616E642E2E2E00002B
:102ACE0004007072696D65000000000000000000D7
:102ADE0000000000000000000000000000000000E8
:102AEE000000260273756D0000000000000000005B
:102AFE0000000000000000000000000000000000C8
:102B0E00000000007E027463313034370000000094
:102B1E0000000000000000000000000000000000A7
:102B2E00000000000000AB007463373700000000A7
:102B3E000000000000000000000000000000000087
:102B4E0000000000000000002E082D2D3E256428F8
:102B5E0025642920003E3E200000000000010000F8
:102B6E000000000008070000000000020000000046
:102B7E0015070000000001007461736B5F7463370A
:102B8E00372829203A20637272656E745F74656D02
:102B9E0070657261747572202D3E20256420646507
:102BAE00677265652E0A007461736B5F74633737E5
:102BBE002829203A20756E656370656365746420FC
:102BCE007374617465207461736B5F746337372E31
:102BDE002E2E002564000000000000000000000101
:102BEE00020203030303040404040404040405059D
:102BFE000505050505050505050505050505060675
:102C0E000606060606060606060606060606060656
:102C1E000606060606060606060606060606070744
:102C2E000707070707070707070707070707070726
:102C3E000707070707070707070707070707070716
:102C4E000707070707070707070707070707070706
:102C5E0007070707070707070707070707070808F4
:102C6E0008080808080808080808080808080808D6
:102C7E0008080808080808080808080808080808C6
:102C8E0008080808080808080808080808080808B6
:102C9E0008080808080808080808080808080808A6
:102CAE000808080808080808080808080808080896
:102CBE000808080808080808080808080808080886
:102CCE000808080808080808080808080808080876
:102CDE000808080808080808080808080808000076
:042CEE0009062000B3
:00000001FF
