:100000000C9472000C9494000C9494000C94940042
:100010000C9494000C9494000C9494000C94940010
:100020000C9494000C9494000C9494000C94940000
:100030000C9494000C9494000C9494000C949400F0
:100040000C9494000C9494000C9494000C949400E0
:100050000C9494000C9494000C9494000C949400D0
:100060000C9494000C9473020C9494000C9444022D
:100070000C9494000C9494000C9494000C949400B0
:100080000C9494000C9494000C9494000C949400A0
:100090000C9494000C9494000C9494000C94940090
:1000A0000C9494000C9494000C9494000C94940080
:1000B0000C9494000C9494000C9494000C94940070
:1000C0000C9494000C9494000C9494000C94940060
:1000D0000C9494000C9494000C9494000C94940050
:1000E0000C94940011241FBECFEFD1E2DEBFCDBF30
:1000F00000E00CBF12E0A0E0B2E0E2EDF2E100E0CF
:100100000BBF02C007900D92AA38B107D9F71BBEEA
:1001100013E0AAE8B2E001C01D92A232B107E1F7F4
:100120000E94F7030C9467090C940000CF93DF93AF
:10013000FC0162E070E00E945404EB0122E030E038
:1001400008C0CF01B9010E945404009741F02F5F0D
:100150003F4FC217D307ACF781E090E002C080E0C8
:1001600090E0DF91CF910895CF92DF92EF92FF92CE
:100170000F931F93CF93DF93009721F00E94AA055E
:100180007C0104C090EDE92E97E0F92EC2E0D0E0AA
:1001900000E010E080E0C82E82E0D82E16C0CE012C
:1001A0000E949600009781F00F5F1F4F00D00F92C2
:1001B000EDB7FEB7D282C182D483C3830E943906D1
:1001C0000F900F900F900F902196EC16FD063CF7C4
:1001D00000D00F9289E192E0EDB7FEB79283818360
:1001E000148303830E9439060F900F900F900F9095
:1001F000DF91CF911F910F91FF90EF90DF90CF9003
:1002000008951092D4021092D3021092D20210924A
:10021000D1021092D6021092D50210929002109242
:100220008F020895482F2091D5023091D6022F5F7A
:100230003F4FC90160E470E00E9454049C0180912A
:100240008F02909190022817390759F03093D60207
:100250002093D50229523D4FF901408381E090E07F
:10026000089580E090E0089580918F02909190022F
:100270002091D5023091D6022817390779F00196DE
:1002800060E470E00E9454049093900280938F0287
:1002900089529D4FFC01808190E0089580E090E0BC
:1002A0000895482F2091D3023091D4022F5F3F4F01
:1002B000C90160E470E00E9454049C018091D10265
:1002C0009091D2022817390759F03093D402209325
:1002D000D3022F563D4FF901408381E090E008950D
:1002E00080E090E008958091D1029091D202209117
:1002F000D3023091D4022817390779F0019660E4CF
:1003000070E00E9454049093D2028093D1028F56E1
:100310009D4FFC01808190E0089580E090E0089579
:100320008FEF80930B0180930A01089510920B01C7
:1003300010928A0208958FEF80930B0180938A02B6
:10034000089521E030E002C0220F331F8A95E2F7C2
:10035000209580918A02282320938A0220930B0102
:10036000089521E030E002C0220F331F8A95E2F7A2
:1003700080918A02822B80938A0280930B010895D8
:10038000809580938A0280930B010895F8940E94CF
:10039000340178948823D1F3843011F090E00895EB
:1003A0008FEF9FEF0895CF93C82F8A3019F48DE017
:1003B0000E94D301F89480911703882359F4C093C5
:1003C000C60081E0809317030AC0789486EF8A956F
:1003D000F1F7F8948C2F0E9451010097B1F37894B3
:1003E00081E090E0CF9108958EE592E090931D0317
:1003F00080931C038CE692E090931F0380931E036E
:10040000109217030E9401011092C50087E08093AB
:10041000C400E0ECF0E0808182608083E1ECF0E0F9
:100420008081886080838081806480838081806116
:1004300080838081806880830895CF93C82F8A301D
:1004400019F48DE00E941D028091C00085FFFCCF51
:10045000C093C60081E090E0CF910895CF93C82F5C
:100460008A3019F48DE00E942E02809117038823B0
:1004700031F4C093C60081E08093170303C08C2F32
:100480000E945101CF9108951F920F920FB60F92C3
:100490000BB60F9211242F933F934F935F936F935B
:1004A0007F938F939F93AF93BF93EF93FF930E949C
:1004B0007301882319F41092170302C08093C600B9
:1004C000FF91EF91BF91AF919F918F917F916F912C
:1004D0005F914F913F912F910F900BBE0F900FBEE8
:1004E0000F901F9018951F920F920FB60F920BB698
:1004F0000F9211242F933F934F935F936F937F93AA
:100500008F939F93AF93BF93CF93EF93FF93C0913C
:10051000C600C43031F0CD3009F4CAE08C2F0E94FF
:100520002E028C2F0E941201FF91EF91CF91BF916B
:10053000AF919F918F917F916F915F914F913F917B
:100540002F910F900BBE0F900FBE0F901F9018951C
:1005500084E090E00E947B0408950E9411050895B4
:10056000FC0180918B0290918C02009739F4F093FA
:100570008C02E0938B02138212820895938382830C
:10058000F0938C02E0938B020895E0918B02F0913E
:100590008C02309731F490938C0280938B020895F3
:1005A000F9012281338121153105D1F793838283AB
:1005B0000895CF93DF93FC0120918B0230918C0240
:1005C0002115310531F040815181D901C0E0D0E0E1
:1005D0000FC090938C0280938B02138212821DC0F5
:1005E00012968D919C911397ED01009739F0DC01E3
:1005F0008D919C9111978417950794F3209739F466
:1006000033832283F0938C02E0938B0206C08A81AD
:100610009B8193838283FB83EA83DF91CF9108954B
:10062000CF93DF93FC0120918B0230918C02211536
:10063000310531F040815181D901C0E0D0E00FC0D7
:1006400090938C0280938B02138212821DC01296AB
:100650008D919C911397ED01009739F0DC018D91FC
:100660009C9111974817590794F3209739F43383D5
:100670002283F0938C02E0938B0206C08A819B81D7
:1006800093838283FB83EA83DF91CF9108950F9355
:100690001F93CF93DF938AE090E00E944B06C091B6
:1006A0008B02D0918C020AE712E017C000D00F92A3
:1006B000EDB7FEB73196ADB7BEB712961C930E9349
:1006C00011978881828313820E9439060A80DB8118
:1006D000C02D0F900F900F900F90209739F78AE060
:1006E00090E00E944B06DF91CF911F910F910895EA
:1006F00009C0FC012281338130938C0220938B024C
:100700000E94110580918B0290918C02009789F7CD
:100710000895CF92DF92FF920F931F93CF93DF93B1
:10072000CDB7DEB728970FB6F894DEBF0FBECDBFAA
:10073000009719F0FC01108104C011E602C0F02EF0
:1007400004C081E8C82E82E0D82E0F920F92EDB738
:10075000FEB7D282C1820E9439060F900F9040915D
:100760001C0350911D03CE01019668E070E00E94C9
:100770000506009751F10E94A802FE01319620E083
:1007800030E00191402F41564A3148F0405E4A31F5
:1007900030F02F5F3F4F2830310599F70F2DFC01C6
:1007A00000831182183629F0143731F0143651F4D1
:1007B00006C00E94B002C3CF0E94C502C0CF0E94F3
:1007C0001003BDCF0E94D902BACF0E9447030E94F6
:1007D000780328960FB6F894DEBF0FBECDBFDF9129
:1007E000CF911F910F91FF90DF90CF900895CF93FD
:1007F000DF93CDB7DEB7C058D0400FB6F894DEBF58
:100800000FBECDBF0E94F40178948E010F5F1F4F81
:10081000C8010E94520683E2A82E82E0B82E780119
:100820000F920F92EDB7FEB7B282A1820E943906F5
:100830000F900F9040911C0350911D03C70160E879
:1008400070E00E940506009751F1C70166E272E070
:100850000E94C8058C01009719F380E090E066E2E1
:1008600072E00E94C8056C01C8016BE272E00E9450
:10087000CD05009721F4C6010E94B400D1CFC80174
:1008800061E372E00E94CD05009721F4C6010E9449
:100890008903C6CF86E392E00E945206C1CF89E465
:1008A00092E00E945206FFCF97FB092E07260AD03E
:1008B00077FD04D00CD006D000201AF47095619515
:1008C0007F4F0895F6F7909581959F4F0895AA1B45
:1008D000BB1B51E107C0AA1FBB1FA617B70710F02B
:1008E000A61BB70B881F991F5A95A9F7809590955D
:1008F000BC01CD010895CF93DF93AC018230910507
:1009000010F442E050E0E0911A03F0911B0320E064
:1009100030E0A0E0B0E024C0808191818417950789
:10092000D0F08417950771F482819381109729F094
:1009300013969C938E9312972CC090931B038093D5
:100940001A0327C02115310519F08217930718F4EF
:100950009C01BD01EF0192818381DF01E92FF82F16
:100960003097D1F621153105F9F0C901841B950B9B
:100970008430910580F48A819B816115710521F095
:10098000FB019383828304C090931B0380931A031B
:10099000FE01329642C0FE01E80FF91F41935193C8
:1009A00002979983888339C0809118039091190325
:1009B000009741F4809186029091870290931903E9
:1009C000809318032091840230918502211531050E
:1009D00041F42DB73EB78091880290918902281B7F
:1009E000390BE0911803F0911903E217F30798F41B
:1009F0002E1B3F0B2417350770F0CA0102962817EB
:100A0000390748F08E0F9F1F9093190380931803A6
:100A10004193519302C0E0E0F0E0CF01DF91CF912C
:100A200008950F931F93CF93DF939C01009709F4D0
:100A30008CC0DC01129713961C921E921297609143
:100A40001A0370911B036115710589F48D919C91B6
:100A50001197820F931F20911803309119032817C3
:100A6000390769F5B0931903A09318036EC0FB0111
:100A700040E050E001C0FC01EA17FB0730F482813E
:100A80009381AF010097B9F71FC0E9012297FB835B
:100A9000EA8308811981C901800F911F8E179F0772
:100AA00059F480819181800F911F029699838883E8
:100AB000828193819B838A834115510529F4B093E8
:100AC0001B03A0931A0341C0FA01B383A283C1910F
:100AD000D191EC0FFD1FAE17BF0781F4F901929180
:100AE00082918C0F9D1F0296DA0111969C938E9332
:100AF0008281938113969C938E931297E0E0F0E0AD
:100B000002C0FB01BC01DB0112968D919C911397F1
:100B10000097B9F7CB0102962D913C911197820F66
:100B2000931F20911803309119032817390769F48E
:100B3000309729F410921B0310921A0302C01382FB
:100B400012827093190360931803DF91CF911F9164
:100B50000F910895FC0188279927E894219120326C
:100B6000E9F3293010F02E30C8F32B3241F02D324A
:100B700039F4689404C00E94FD05820F911D2191F3
:100B800020532A30C0F31EF4909581959F4F08950D
:100B90004DE852E00E94D6050895FB01DC018D91DD
:100BA000019080190110D9F3990B0895FA01A191D0
:100BB000B081009719F41097E1F0CD01DC01CD016F
:100BC0000D90002011F4C00113C0FB0121912223DC
:100BD00019F02015D9F7F3CFFB012191201519F455
:100BE0001E92119606C02223C1F70D900020A1F796
:100BF000D001FA01A193B08308957AE0979F902DD8
:100C0000879F802D910D11240895CF92DF92EF924E
:100C1000FF920F931F93CF93DF938C016A01FA0128
:100C2000838180FF1AC016161706BCF47B01E80109
:100C30000EC0C6010E949D08FFEF8F3F9F0769F01D
:100C400089930894E108F1088A30910521F021E0A8
:100C5000E216F10471F7188202C000E010E0C8014A
:100C6000DF91CF911F910F91FF90EF90DF90CF9088
:100C70000895CF93DF93CDB7DEB7FE01369661912D
:100C8000719180911E0390911F03AF010E94800615
:100C9000DF91CF91089560911E0370911F030E9410
:100CA000DD0808950F931F93CF93DF938C01E0919C
:100CB0001E03F0911F03838181FF1AC0C0E0D0E0C2
:100CC00005C01995009711F0CFEFDFEFF801819182
:100CD0008F0160911E0370911F03DB011896ED9147
:100CE000FC911997882369F78AE01995009711F00C
:100CF000CFEFDFEFCE01DF91CF911F910F910895DC
:100D00002F923F924F925F926F927F928F929F921B
:100D1000AF92BF92CF92DF92EF92FF920F931F9309
:100D2000CF93DF93CDB7DEB72D970FB6F894DEBF24
:100D30000FBECDBF3C017D876C875A01FC01178235
:100D40001682838181FFC8C12E010894411C511C69
:100D5000F3019381EC85FD8593FD859193FF81914E
:100D6000FD87EC87882309F4B3C1853241F493FDF4
:100D7000859193FF8191FD87EC87853229F490E07E
:100D8000B3010E94DD08E4CFFF24EE2410E010320E
:100D9000B0F48B3269F08C3228F4803251F0833217
:100DA00071F40BC08D3239F0803349F411602CC0DE
:100DB0001260146029C0186027C0106125C017FD9B
:100DC0002EC0282F20532A3098F416FF08C08F2DEC
:100DD000880FF82EFF0CFF0CF80EF20E15C08E2DAA
:100DE000880FE82EEE0CEE0CE80EE20E10620CC03E
:100DF0008E3221F416FD6CC1106406C08C3611F4DD
:100E0000106802C0883659F4EC85FD8593FD859104
:100E100093FF8191FD87EC87882309F0B8CF982F45
:100E20009554933018F09052933038F424E030E029
:100E3000A20EB31E3FE339830FC0833631F08337F0
:100E400081F0833509F05AC022C0F5018081898381
:100E500022E030E0A20EB31E21E0C22ED12C4201CE
:100E600014C092E0292E312C2A0C3B1CF501808005
:100E7000918016FF03C06F2D70E002C06FEF7FEF0F
:100E8000C4010E9492086C0151011F7715C082E0D5
:100E9000282E312C2A0C3B1CF5018080918016FFF6
:100EA00003C06F2D70E002C06FEF7FEFC4010E949E
:100EB00087086C011068510113FD1CC006C080E258
:100EC00090E0B3010E94DD08EA948E2D90E0C816F0
:100ED000D906A8F30FC0F40117FD859117FF819182
:100EE0004F0190E0B3010E94DD08E110EA940894FC
:100EF000C108D108C114D10471F7E7C0843611F0DC
:100F0000893651F5F50117FF07C080819181A281D3
:100F1000B38124E030E008C080819181AA2797FD49
:100F2000A095BA2F22E030E0A20EB31E012F0F765B
:100F3000B7FF08C0B095A095909581959F4FAF4F92
:100F4000BF4F0068BC01CD01A2012AE030E00E9441
:100F50000909D82ED4183FC0853721F41F7E2AE016
:100F600030E020C0197F8F36A9F0803720F4883513
:100F700009F0AEC00BC0803721F0883709F0A8C057
:100F800001C0106114FF09C0146007C014FF08C03D
:100F9000166006C028E030E005C020E130E002C065
:100FA00020E132E0F50117FF07C060817181828185
:100FB000938144E050E006C06081718180E090E060
:100FC00042E050E0A40EB51EA2010E940909D82EED
:100FD000D418012F0F7706FF09C00E7FDF1430F4FD
:100FE00004FF06C002FD04C00F7E02C01D2D01C01B
:100FF0001F2D802F90E004FF0CC0FE01ED0DF11DB0
:101000002081203311F4097E09C002FF06C01E5F53
:1010100005C086789070009709F01F5F802E992494
:1010200003FD12C000FF0DC0FD2C1E1550F4FE0C78
:10103000F11A1E2D06C080E290E0B3010E94DD0887
:101040001F5F1E15C0F304C01E1510F4E11A01C085
:10105000EE2484FE0FC080E390E0B3010E94DD081F
:1010600082FE1FC081FE03C088E590E010C088E7C3
:1010700090E00DC0C40186789070009791F081FCDB
:1010800002C080E201C08BE207FD8DE290E0B30177
:101090000E94DD0806C080E390E0B3010E94DD08F5
:1010A000FA94DF14C0F3DA94F201ED0DF11D8081A2
:1010B00090E0B3010E94DD08DD20A9F706C080E2C0
:1010C00090E0B3010E94DD08EA94EE20C1F740CE23
:1010D000F3018681978102C08FEF9FEF2D960FB6A7
:1010E000F894DEBF0FBECDBFDF91CF911F910F915E
:1010F000FF90EF90DF90CF90BF90AF909F908F9038
:101100007F906F905F904F903F902F900895FC01DB
:101110000590615070400110D8F7809590958E0F22
:101120009F1F0895FC016150704001900110D8F795
:10113000809590958E0F9F1F0895CF93DF93EC01BC
:101140002B8120FF35C026FF09C02F7B2B838E818A
:101150009F8101969F838E838A8128C022FF0FC0C2
:10116000E881F9818081992787FD9095009719F48E
:1011700020622B831DC03196F983E88311C0EA8574
:10118000FB85CE01199597FF0BC02B813FEF8F3F59
:10119000930711F480E101C080E2822B8B8308C0A9
:1011A0002E813F812F5F3F4F3F832E8390E002C00F
:1011B0008FEF9FEFDF91CF9108950F931F93CF9300
:1011C000DF938C01EB018B8181FF1BC082FF0DC07F
:1011D0002E813F818C819D812817390764F4E88135
:1011E000F9810193F983E88306C0E885F985802FAA
:1011F0001995009731F48E819F8101969F838E838C
:1012000002C00FEF1FEFC801DF91CF911F910F9127
:101210000895FA01AA27283051F1203181F1E8948C
:101220006F936E7F6E5F7F4F8F4F9F4FAF4FB1E0D9
:101230003ED0B4E03CD0670F781F891F9A1FA11DD4
:10124000680F791F8A1F911DA11D6A0F711D811DD5
:10125000911DA11D20D009F468943F912AE0269F9A
:1012600011243019305D3193DEF6CF010895462FF9
:101270004770405D4193B3E00FD0C9F7F6CF462FDA
:101280004F70405D4A3318F0495D31FD4052419343
:1012900002D0A9F7EACFB4E0A69597958795779500
:1012A0006795BA95C9F700976105710508959B0187
:1012B000AC010A2E06945795479537952795BA9510
:1012C000C9F7620F731F841F951FA01D0895F8941E
:0212D000FFCF4E
:1012D20025642069732061207072696D65206E75C6
:1012E2006D6265722121210A00636F756E743D255E
:1012F200640A002420000A0D0920007072696D65DD
:10130200006C69737400556E6B6E6F776E20636F3D
:101312006D6D616E642E2E2E006C6F676F75742C6E
:1013220020676F6F6420627965212121200000000F
:101332000001000000000000C601000000000002E1
:1013420000000000D301000000002D2D3E25632087
:0A135200003E2000000022032000EE
:00000001FF
