:100000000C9472000C9494000C9494000C94940042
:100010000C9494000C9494000C9494000C94940010
:100020000C9494000C9494000C9494000C94940000
:100030000C9494000C9494000C9494000C949400F0
:100040000C9494000C9494000C9494000C949400E0
:100050000C9494000C9494000C9494000C949400D0
:100060000C9494000C9494000C9494000C949400C0
:100070000C9494000C9494000C9494000C949400B0
:100080000C9494000C9494000C9494000C949400A0
:100090000C9494000C9494000C9494000C94940090
:1000A0000C9494000C9494000C9494000C94940080
:1000B0000C9494000C9494000C9494000C94940070
:1000C0000C9494000C9494000C9494000C94940060
:1000D0000C9494000C9494000C9494000C94940050
:1000E0000C94940011241FBECFEFD1E2DEBFCDBF30
:1000F00000E00CBF12E0A0E0B2E0EAECF8E000E0C3
:100100000BBF02C007900D92AE34B107D9F71BBEEA
:1001100012E0AEE4B2E001C01D92A535B107E1F7EF
:100120000E9427010C9463040C9400008FEF8093CD
:100130000B0180930A01089510920B0110924E0258
:1001400008958FEF80930B0180934E02089521E074
:1001500030E002C0220F331F8A95E2F7209580918C
:100160004E02282320934E0220930B01089521E094
:1001700030E002C0220F331F8A95E2F780914E02D1
:10018000822B80934E0280930B010895809580937B
:100190004E0280930B0108959C0162E070E00E9482
:1001A000550182E090E02170307004C021153105C6
:1001B00039F0019668177907CCF781E090E008954F
:1001C00080E090E00895CF93C82F8A3019F48DE035
:1001D0000E94E3008091C00085FFFCCFC093C60061
:1001E00081E090E0CF91089580E492E090935202F4
:1001F000809351021092C50087E08093C400E0EC28
:10020000F0E0808182608083E1ECF0E080818860B2
:1002100080830895CF93C82F8A3019F48DE00E940F
:100220000A018FEF97E40197F1F700C00000C09337
:10023000C600CF910895CF93DF93EC0102C00E94D6
:100240000A0189918823D9F7DF91CF9108950E94FF
:10025000F400C3E0D0E00AE112E080E0E82E82E0A2
:10026000F82ECE010E94CC00009739F000D00F92FA
:10027000EDB7FEB7F282E18206C000D00F92EDB773
:10028000FEB712830183D483C3830E947C010F9045
:100290000F900F900F902196F3E0C93EDF0709F70A
:1002A00088E392E00E948E01FFCF97FB092E07267C
:1002B0000AD077FD04D00CD006D000201AF4709537
:1002C00061957F4F0895F6F7909581959F4F08951A
:1002D000AA1BBB1B51E107C0AA1FBB1FA617B7076C
:1002E00010F0A61BB70B881F991F5A95A9F7809588
:1002F0009095BC01CD010895CF93DF93CDB7DEB7C4
:10030000FE01369661917191809151029091520255
:10031000AF010E94BC01DF91CF9108950F931F930D
:10032000CF93DF938C01E0915102F09152028381CF
:1003300081FF1AC0C0E0D0E005C01995009711F008
:10034000CFEFDFEFF80181918F0160915102709141
:100350005202DB011896ED91FC911997882369F7F9
:100360008AE01995009711F0CFEFDFEFCE01DF9112
:10037000CF911F910F9108952F923F924F925F92CC
:100380006F927F928F929F92AF92BF92CF92DF92A5
:10039000EF92FF920F931F93CF93DF93CDB7DEB70A
:1003A0002D970FB6F894DEBF0FBECDBF3C017D8701
:1003B0006C875A01FC0117821682838181FFC8C1B4
:1003C0002E010894411C511CF3019381EC85FD859D
:1003D00093FD859193FF8191FD87EC87882309F434
:1003E000B3C1853241F493FD859193FF8191FD87DF
:1003F000EC87853229F490E0B3010E94D903E4CF61
:10040000FF24EE2410E01032B0F48B3269F08C320D
:1004100028F4803251F0833271F40BC08D3239F000
:10042000803349F411602CC01260146029C0186038
:1004300027C0106125C017FD2EC0282F20532A3059
:1004400098F416FF08C08F2D880FF82EFF0CFF0CB4
:10045000F80EF20E15C08E2D880FE82EEE0CEE0C65
:10046000E80EE20E10620CC08E3221F416FD6CC153
:10047000106406C08C3611F4106802C0883659F436
:10048000EC85FD8593FD859193FF8191FD87EC8738
:10049000882309F0B8CF982F9554933018F09052D4
:1004A000933038F424E030E0A20EB31E3FE33983EA
:1004B0000FC0833631F0833781F0833509F05AC09D
:1004C00022C0F5018081898322E030E0A20EB31EB4
:1004D00021E0C22ED12C420114C092E0292E312CF1
:1004E0002A0C3B1CF5018080918016FF03C06F2D04
:1004F00070E002C06FEF7FEFC4010E94CE036C0179
:1005000051011F7715C082E0282E312C2A0C3B1C8C
:10051000F5018080918016FF03C06F2D70E002C04E
:100520006FEF7FEFC4010E94C3036C01106851019B
:1005300013FD1CC006C080E290E0B3010E94D90305
:10054000EA948E2D90E0C816D906A8F30FC0F401E6
:1005500017FD859117FF81914F0190E0B3010E9433
:10056000D903E110EA940894C108D108C114D10458
:1005700071F7E7C0843611F0893651F5F50117FFA0
:1005800007C080819181A281B38124E030E008C05E
:1005900080819181AA2797FDA095BA2F22E030E0B3
:1005A000A20EB31E012F0F76B7FF08C0B095A0951D
:1005B000909581959F4FAF4FBF4F0068BC01CD0113
:1005C000A2012AE030E00E940504D82ED4183FC0D2
:1005D000853721F41F7E2AE030E020C0197F8F3656
:1005E000A9F0803720F4883509F0AEC00BC0803701
:1005F00021F0883709F0A8C001C0106114FF09C0BC
:10060000146007C014FF08C0166006C028E030E080
:1006100005C020E130E002C020E132E0F50117FF23
:1006200007C0608171818281938144E050E006C0FF
:100630006081718180E090E042E050E0A40EB51E40
:10064000A2010E940504D82ED418012F0F7706FFAF
:1006500009C00E7FDF1430F404FF06C002FD04C0A1
:100660000F7E02C01D2D01C01F2D802F90E004FFC2
:100670000CC0FE01ED0DF11D2081203311F4097E27
:1006800009C002FF06C01E5F05C086789070009703
:1006900009F01F5F802E992403FD12C000FF0DC0DA
:1006A000FD2C1E1550F4FE0CF11A1E2D06C080E222
:1006B00090E0B3010E94D9031F5F1E15C0F304C070
:1006C0001E1510F4E11A01C0EE2484FE0FC080E371
:1006D00090E0B3010E94D90382FE1FC081FE03C0D7
:1006E00088E590E010C088E790E00DC0C4018678EE
:1006F0009070009791F081FC02C080E201C08BE213
:1007000007FD8DE290E0B3010E94D90306C080E3AB
:1007100090E0B3010E94D903FA94DF14C0F3DA9495
:10072000F201ED0DF11D808190E0B3010E94D9032B
:10073000DD20A9F706C080E290E0B3010E94D90352
:10074000EA94EE20C1F740CEF3018681978102C082
:100750008FEF9FEF2D960FB6F894DEBF0FBECDBF83
:10076000DF91CF911F910F91FF90EF90DF90CF908D
:10077000BF90AF909F908F907F906F905F904F90C1
:100780003F902F900895FC0105906150704001103A
:10079000D8F7809590958E0F9F1F0895FC016150AA
:1007A000704001900110D8F7809590958E0F9F1F93
:1007B00008950F931F93CF93DF938C01EB018B81EF
:1007C00081FF1BC082FF0DC02E813F818C819D81E6
:1007D0002817390764F4E881F9810193F983E883E4
:1007E00006C0E885F985802F1995009731F48E8130
:1007F0009F8101969F838E8302C00FEF1FEFC80178
:10080000DF91CF911F910F910895FA01AA27283007
:1008100051F1203181F1E8946F936E7F6E5F7F4FCD
:100820008F4F9F4FAF4FB1E03ED0B4E03CD0670F49
:10083000781F891F9A1FA11D680F791F8A1F911D9C
:10084000A11D6A0F711D811D911DA11D20D009F4EC
:1008500068943F912AE0269F11243019305D31932E
:10086000DEF6CF010895462F4770405D4193B3E017
:100870000FD0C9F7F6CF462F4F70405D4A3318F0BE
:10088000495D31FD4052419302D0A9F7EACFB4E06F
:10089000A6959795879577956795BA95C9F7009727
:1008A0006105710508959B01AC010A2E06945795C8
:1008B000479537952795BA95C9F7620F731F841F1F
:0A08C000951FA01D0895F894FFCFC6
:1008CA0025642069732061207072696D65206E75D8
:1008DA006D626572202121210A0025642069732036
:1008EA006E6F742061207072696D65206E756D621D
:1008FA006572202121210A0054686520656E640012
:0E090A000000000200000000E30000000000FA
:00000001FF
