:100000000C9472000C9494000C9494000C94940042
:100010000C9494000C9494000C9494000C94940010
:100020000C9494000C9494000C9494000C94940000
:100030000C9494000C9494000C9494000C949F07DE
:100040000C9494000C9494000C9494000C949400E0
:100050000C9494000C9494000C9494000C949400D0
:100060000C94A1040C9484080C9494000C945508EE
:100070000C9494000C94FB000C9494000C94940049
:100080000C9494000C9494000C9494000C949400A0
:100090000C9494000C9494000C9494000C94940090
:1000A0000C9494000C9494000C9494000C94940080
:1000B0000C9494000C9494000C9494000C94940070
:1000C0000C9494000C9494000C9494000C94940060
:1000D0000C9494000C9494000C9494000C94940050
:1000E0000C94940011241FBECFEFD1E2DEBFCDBF30
:1000F00000E00CBF15E0A0E0B2E0E4E7FCE200E0C5
:100100000BBF02C007900D92A439B107D9F71BBEEF
:1001100016E0A4E9B5E001C01D92A93DB107E1F7E1
:100120000E9461100C9438160C940000809880E8AE
:1001300080937C000895EAE7F0E080818068808306
:100140008DED90E00197F1F7808188608083808158
:10015000806480830895FC012081222319F50E9488
:100160009B0081E090E090939505809394058091A9
:100170009405909195050097D1F700D00F9280E0FB
:1001800092E0EDB7FEB792838183809196059091BE
:100190009705948383830E94DB120F900F900F903A
:1001A0000F9008950E941F129C01B901882777FDC6
:1001B0008095982F0E942C0D29E030EF4CE85AE3EF
:1001C0000E94FA0B20E030E04AE754E40E94FA0B68
:1001D0000E94A30DDC01CB01845F91406AE070E0D6
:1001E0000E94921070939705609396051092950562
:1001F0001092940508951F920F920FB60F920BB6AE
:100200000F9211240F931F932F933F934F935F935C
:100210006F937F938F939F93AF93BF93EF93FF93CE
:10022000CF93DF93CDB7DEB72897DEBFCDBF8091E8
:10023000780090917900EAE7F0E020812F77208321
:1002400000D000D0EDB7FEB731968E010F5F1F4F83
:10025000ADB7BEB712961C930E93119723E232E00E
:10026000338322839370958384830E9422138DB7F6
:100270009EB706960FB6F8949EBF0FBE8DBFC801FD
:100280000E94AB002896DEBFCDBFDF91CF91FF91DA
:10029000EF91BF91AF919F918F917F916F915F91FE
:1002A0004F913F912F911F910F910F900BBE0F9087
:1002B0000FBE0F901F901895CF92DF92FF920F9371
:1002C0001F93CF93DF93CDB7DEB728970FB6F8947F
:1002D000DEBF0FBECDBF009719F0FC01F08002C059
:1002E00091E6F92E86E2C82E82E0D82E0F920F9268
:1002F000EDB7FEB7D282C1820E94DB120F900F9041
:100300004091D3065091D406CE01019668E070E08A
:100310000E9481120097E9F00E9487038C01CE01B0
:1003200001960E941F12F80191838083F8E6FF1660
:1003300021F084E7F81649F404C0C8010E948F0335
:10034000D5CFC8010E94A403D1CFC8010E94B80331
:10035000CDCF0E94EF030E941C0428960FB6F8949C
:10036000DEBF0FBECDBFDF91CF911F910F91FF90E8
:10037000DF90CF900895CF93DF93FC0162E070E0AF
:100380000E949210EB0122E030E008C0CF01B901D9
:100390000E949210009741F02F5F3F4FC217D30782
:1003A000ACF781E090E002C080E090E0DF91CF9177
:1003B0000895CF92DF92EF92FF920F931F93CF9306
:1003C000DF93009721F00E941F127C0104C090ED82
:1003D000E92E97E0F92EC2E0D0E000E010E089E2DB
:1003E000C82E82E0D82E16C0CE010E94BB01009715
:1003F00081F00F5F1F4F00D00F92EDB7FEB7D28292
:10040000C182D483C3830E94DB120F900F900F90A0
:100410000F902196EC16FD063CF700D00F9282E477
:1004200092E0EDB7FEB792838183148303830E9429
:10043000DB120F900F900F900F90DF91CF911F91D3
:100440000F91FF90EF90DF90CF900895CF92DF92C1
:10045000EF92FF920F931F93CF93DF93009741F09A
:10046000FC012081222321F00E941F128C0102C076
:1004700000ED17E0EE24FF24C2E0D0E029E2C22E16
:1004800022E0D22E17C0CE010E94BB01009789F056
:100490000894E11CF11C00D00F92EDB7FEB7D28298
:1004A000C182D483C3830E94DB120F900F900F9000
:1004B0000F9021960C171D0734F700D00F9282E49D
:1004C00092E0EDB7FEB792838183F482E3820E94CB
:1004D000DB120F900F908CE492E0EDB7FEB79283A1
:1004E00081830E94DB120F900F90DF91CF911F91BB
:1004F0000F91FF90EF90DF90CF900895009741F01B
:10050000FC012081222321F00E941F129C0102C0C5
:1005100024E630E000D00F928FE492E0EDB7FEB712
:1005200092838183A9014F5F5F4F429FC001439F28
:10053000900D529F900D112462E070E00E94921085
:10054000748363830E94DB120F900F900F900F90C3
:1005500008951092E7051092E6051092E5051092B5
:10056000E4051092E9051092E8051092A305109297
:10057000A2050895482F2091E8053091E9052F5FE5
:100580003F4FC90160E470E00E9492109C0180918D
:10059000A2059091A3052817390759F03093E90572
:1005A0002093E80526513A4FF901408381E090E01D
:1005B000089580E090E008958091A2059091A305B0
:1005C0002091E8053091E9052817390779F001965F
:1005D00060E470E00E9492109093A3058093A205BE
:1005E00086519A4FFC01808190E0089580E090E070
:1005F0000895482F2091E6053091E7052F5F3F4F82
:10060000C90160E470E00E9492109C018091E405B1
:100610009091E5052817390759F03093E7052093A5
:10062000E6052C553A4FF901408381E090E00895AA
:1006300080E090E008958091E4059091E505209197
:10064000E6053091E7052817390779F0019660E44F
:1006500070E00E9492109093E5058093E4058C551C
:100660009A4FFC01808190E0089580E090E0089529
:100670008091A2059091A3052091E8053091E905AC
:100680008217930759F0019660E470E00E9492107F
:1006900086519A4FFC01808190E0089580E090E0BF
:1006A00008958FEF80930B0180930A0108951092B3
:1006B0000B011092980508958FEF80930B018093A2
:1006C0009805089521E030E002C0220F331F8A957B
:1006D000E2F7209580919805282320939805209390
:1006E0000B01089521E030E002C0220F331F8A95EC
:1006F000E2F780919805822B8093980580930B01F7
:10070000089580958093980580930B01089584E067
:1007100090E00E94F01008950E9486110895FC0157
:100720008091990590919A05009739F4F0939A0574
:10073000E093990513821282089593838283F09344
:100740009A05E09399050895E0919905F0919A052D
:10075000309731F490939A05809399050895F901A3
:100760002281338121153105D1F793838283089546
:10077000CF93DF93FC012091990530919A052115C3
:10078000310531F040815181D901C0E0D0E00FC086
:1007900090939A0580939905138212821DC0129638
:1007A0008D919C911397ED01009739F0DC018D91AB
:1007B0009C9111978417950794F3209739F433830C
:1007C0002283F0939A05E093990506C08A819B8164
:1007D00093838283FB83EA83DF91CF9108950F9304
:1007E0001F93CF93DF938AE090E00E94ED12C091B7
:1007F0009905D0919A0507E512E013C000D00F9239
:10080000EDB7FEB712830183888199819483838336
:100810000E94DB120A80DB81C02D0F900F900F9099
:100820000F90209759F78AE090E00E94ED12DF9137
:10083000CF911F910F91089509C0FC01228133814E
:1008400030939A05209399050E948611809199050D
:1008500090919A05009789F70895209A219A229AF3
:1008600023988DB581608DBD80ED8CBD089528984D
:100870000895289A0895CF92DF92EF92FF92DC01BB
:100880002C91222331F481E080939B050E94370450
:1008900011C020919B05213021F0223009F044C085
:1008A0000BC00E941F1210929C0580939D0582E050
:1008B00080939B051EBC3EC0C0909C05D0909D05BA
:1008C0000E941F12C82AD92A23E0D694C7942A95D9
:1008D000E1F7B60180E090E00E94F40D20E030E006
:1008E00040E85DE30E94FA0B0E940D0A6B017C0157
:1008F00070939D0560939C050E94390400D00F926F
:10090000EDB7FEB7319681E692E0ADB7BEB712966D
:100910009C938E931197D382C2820E94DB120F9018
:100920000F900F900F9006C00E94390480E992E06A
:100930000E94F412FF90EF90DF90CF9008958EBD4B
:1009400008951F920F920FB60F920BB60F921124BB
:100950002F933F934F935F936F937F938F939F93C7
:10096000AF93BF93EF93FF93CF93DF93CDB7DEB7F2
:100970002A97DEBFCDBF2EB58BE394E09A8389839F
:1009800000D000D0EDB7FEB73196CE010396ADB7DB
:10099000BEB712969C938E9311978CEB92E0938343
:1009A0008283248315820E9422138DB79EB70696F8
:1009B0000FB6F8949EBF0FBE8DBFCE0101960E9468
:1009C00002052A96DEBFCDBFDF91CF91FF91EF9157
:1009D000BF91AF919F918F917F916F915F914F9157
:1009E0003F912F910F900BBE0F900FBE0F901F9055
:1009F000189510922B0610922A061092CD0610928E
:100A0000CC060895CF93DF93482FE92F80912A06D3
:100A100090912B06C091CC06D091CD06019620E195
:100A200030E0B9010E9492108C179D0731F180913E
:100A30002A0690912B060196B9010E94921090937C
:100A40002B0680932A0680912A0690912B06DC01C2
:100A5000AA0FBB1F63E0880F991F6A95E1F7A80FE3
:100A6000B91FA45DB94FC42FDE2F8AE009900D9203
:100A70008150E1F781E090E002C080E090E0DF91FA
:100A8000CF9108959C0140912A0650912B068091A8
:100A9000CC069091CD064817590731F18091CC06CC
:100AA0009091CD06019660E170E00E9492109093C3
:100AB000CD068093CC068091CC069091CD06FC01AA
:100AC000EE0FFF1FA3E0880F991FAA95E1F7E80F2B
:100AD000F91FD901E45DF94F8AE001900D92815030
:100AE000E1F781E090E0089580E090E00895EF92D2
:100AF000FF920F931F93CF93DF937C0100E010E0F0
:100B000017C0E801CC0FDD1FC80125E0880F991F31
:100B10002A95E1F7C80FD91FC050DD4FC701BE01AC
:100B20000E944212009711F4CE010BC00F5F1F4FBD
:100B30008091FE029091FF020817190714F380E0DC
:100B400090E0DF91CF911F910F91FF90EF9008956A
:100B5000AF92BF92CF92DF92EF92FF920F931F93CB
:100B6000CF93DF93CDB7DEB7CA54D0400FB6F89419
:100B7000DEBF0FBECDBF0E945208009709F491C09E
:100B8000CE010B960E94B512009729F48FEB92E0EC
:100B90000E94F412FFCFCE010B9664ED72E00E942A
:100BA0003D128C0180E090E064ED72E00E943D1205
:100BB0007C0180E090E064ED72E00E943D126C01E7
:100BC00080E090E064ED72E00E943D125C0101154E
:100BD000110559F40F920F9289ED92E0ADB7BEB7AF
:100BE00012969C938E93119758C0C8016CED72E0D9
:100BF0000E944212009791F5E114F10419F0C1141A
:100C0000D10429F482EE92E00E94F4123EC0C701A2
:100C10000E941F128C01C6010E947705009719F1EE
:100C2000DC0190968D919C9191979A838983CE0156
:100C30000396A114B10411F0B50102C06DEF72E08A
:100C40000E944B12F894C80160E071E00E9492107B
:100C5000CE0101960E949A06789417C0C8010E949E
:100C60007705009729F48AEE92E00E94F41219C0E9
:100C7000DC019096ED91FC919197C114D10411F093
:100C8000C70102C08DEF92E019950F920F9289ED86
:100C900092E0EDB7FEB7928381830E94DB120F9042
:100CA0000F90C65BDF4F0FB6F894DEBF0FBECDBF0F
:100CB000DF91CF911F910F91FF90EF90DF90CF9038
:100CC000BF90AF9008951092B200E6EBF0E0808103
:100CD00080628083E0E7F0E0808181608083E1EBE7
:100CE000F0E08081816080838081826080830895CC
:100CF000CF93DF930DC08C859D8590939F05809346
:100D00009E05CE0102960E940205CE010E94861128
:100D1000C0919E05D0919F05209721F088819981EF
:100D2000009749F3DF91CF9108958EE090E00E9403
:100D3000F0100895EF92FF920F931F93CF93DF93DC
:100D4000F82EE92E8B010E949506EC01DC0112962B
:100D5000EF2DFE2D8AE001900D928150E1F719836D
:100D60000883E0919E05F0919F05309729F4D09378
:100D70009F05C0939E052FC040E050E020E030E08A
:100D800001C0FD0180819181280F391F2017310793
:100D900034F4A485B585AF01109799F701C0DF0140
:100DA0004115510579F48D919C911197801B910B00
:100DB00011969C938E93BD87AC87D0939F05C0936B
:100DC0009E0524C0109751F4021B130B198308834E
:100DD000FA01D587C4871D861C8618C08D919C9109
:100DE0001197B901681B790B9801261B370B3983C2
:100DF00028838D919C911197821B930B11969C9344
:100E00008E93FA01D587C487BD87AC87DF91CF91D8
:100E10001F910F91FF90EF900895EF92FF920F9323
:100E20001F93CF93DF938AE090E00E94ED12C09170
:100E30009E05D0919F0500E010E08AEAE82E83E04D
:100E4000F82E20C088819981080F191F00D000D08A
:100E5000EDB7FEB73196ADB7BEB71296FC92EE92E3
:100E6000119793838283158304830E94DB120C8481
:100E7000DD85C02D8DB79EB706960FB6F8949EBF40
:100E80000FBE8DBF2097F1F68AE090E00E94ED1230
:100E9000DF91CF911F910F91FF90EF90089509C0BE
:100EA000FC012485358530939F0520939E050E9483
:100EB000861180919E0590919F05009789F708956E
:100EC0000F931F93CF93DF93CDB7DEB762970FB623
:100ED000F894DEBF0FBECDBF05EB13E00F920F926B
:100EE000EDB7FEB7128301830E94DB120F900F90C3
:100EF0004091D3065091D406CE01019668E070E08F
:100F00000E948112009761F0CE0101960E941F128B
:100F1000BC01009729F0CE0109960E949A06DECF07
:100F20000E940D070E944F0762960FB6F894DEBF2D
:100F30000FBECDBFDF91CF911F910F9108951F92EA
:100F40000F920FB60F920BB60F9211242F933F936F
:100F50004F935F936F937F938F939F93AF93BF93C1
:100F6000EF93FF93E0919E05F0919F05309749F034
:100F700080819181019791838083009711F40E9471
:100F80007806FF91EF91BF91AF919F918F917F91E3
:100F90006F915F914F913F912F910F900BBE0F90EA
:100FA0000FBE0F901F901895F8940E94DC02789461
:100FB0008823D1F3843011F090E008958FEF9FEFF4
:100FC0000895CF93C82F8A3019F48DE00E94E1076D
:100FD000F8948091CE06882359F4C093C60081E02E
:100FE0008093CE060AC0789486EF8A95F1F7F8943C
:100FF0008C2F0E94F9020097B1F3789481E090E081
:10100000CF9108958AEB93E09093D4068093D30612
:1010100088EC93E09093D6068093D5061092CE0686
:101020000E94A9021092C50087E08093C400E0EC02
:10103000F0E0808182608083E1ECF0E08081886074
:1010400080838081806480838081806180838081CF
:10105000806880830895CF93C82F8A3019F48DE07B
:101060000E942B088091C00085FFFCCFC093C60072
:1010700081E090E0CF910895CF93C82F8A3019F482
:101080008DE00E943C088091CE06882331F4C09305
:10109000C60081E08093CE0603C08C2F0E94F90227
:1010A000CF9108950E94380308951F920F920FB6B2
:1010B0000F920BB60F9211242F933F934F935F9390
:1010C0006F937F938F939F93AF93BF93EF93FF9310
:1010D0000E941B03882319F41092CE0602C080934D
:1010E000C600FF91EF91BF91AF919F918F917F913A
:1010F0006F915F914F913F912F910F900BBE0F9089
:101100000FBE0F901F9018951F920F920FB60F925F
:101110000BB60F9211241F932F933F934F935F931E
:101120006F937F938F939F93AF93BF93EF93FF93AF
:10113000CF93DF93CDB7DEB72A97DEBFCDBF109137
:10114000C6001B3161F48091D6039091D7030196BC
:10115000817090709093D7038093D60324C014308D
:1011600069F01D3009F41AE02091D6033091D703BD
:101170002115310519F0812F0E943C08812F0E9412
:10118000BA02143011F01A3071F488EA95E09A83AB
:101190008983CE01039669EB73E00E944B12CE0166
:1011A00001960E9402052A96DEBFCDBFDF91CF9146
:1011B000FF91EF91BF91AF919F918F917F916F912F
:1011C0005F914F913F912F911F910F900BBE0F9008
:1011D0000FBE0F901F901895519A599A509A589A8D
:1011E00008955898599A00000000589A000000008D
:1011F000599822E02A95F1F700C0519A88E090E0D2
:1012000020E8589800000000322F307911F0599AE8
:1012100001C0599832E03A95F1F700C0589A42E07F
:101220004A95F1F700C02695019759F751985898BB
:1012300082E08A95F1F700C0589A92E09A95F1F70A
:1012400000C089B181FF0FC0589859980000000074
:10125000589A00000000599AE2E0EA95F1F700C0C0
:1012600088ED93E06FC0519A88E090E058980000B4
:1012700000005998F2E0FA95F1F700C0589A22E080
:101280002A95F1F700C0019789F75198589832E0F4
:101290003A95F1F700C0589A42E04A95F1F700C03C
:1012A00089B1589881FF0EC0599800000000589AE3
:1012B00000000000599A82E08A95F1F700C08FEF94
:1012C00093E040C0599A00000000589A00000000C6
:1012D000599892E09A95F1F700C0519A88E090E011
:1012E00020E8589800000000322F317911F0599A07
:1012F00001C05998E2E0EA95F1F700C0589AF2E08F
:10130000FA95F1F700C02695019759F7519858982A
:1013100022E02A95F1F700C0589A32E03A95F1F7A9
:1013200000C089B181FF11C0589859980000000091
:10133000589A00000000599A42E04A95F1F700C01F
:1013400088E294E00E94F4120895519898E080E0B9
:101350005898E2E0EA95F1F700C0589AF2E0FA9561
:10136000F1F700C0880F49998160915089F7519A2F
:10137000589800000000599822E02A95F1F700C023
:10138000589A32E03A95F1F700C0382F20E0519892
:1013900098E080E0589842E04A95F1F700C0589AEA
:1013A000E2E0EA95F1F700C0880F49998160915019
:1013B00089F7519A589800000000599AF2E0FA957E
:1013C000F1F700C0589A42E04A95F1F700C090E06A
:1013D000822B932B880F892F881F990B5898599827
:1013E00000000000589A00000000599AE2E0EA95D7
:1013F000F1F700C000D00F922FE434E0EDB7FEB754
:101400003283218396958795948383830E94DB1290
:101410000F900F900F900F900895CF92DF92EF9260
:10142000FF920F931F936B017C0120E030E040E0BE
:101430005FE40E94FB0C87FD11C0C701B60120E0EC
:1014400030E040E05FE40E94C20B0E94A30D8B01DC
:101450009C01005010402040304806C0C701B60132
:101460000E94A30D8B019C01B801C9011F910F912E
:10147000FF90EF90DF90CF900895A0E0B0E0E3E41C
:10148000FAE00C94BB10EC014B01FA018881823028
:1014900008F43EC1DB019C91923008F436C18430DF
:1014A00059F4943009F034C1998111968C911197B7
:1014B000981709F027C12CC1943009F426C1923045
:1014C000A9F4823009F024C1CE0128E0DC010D909E
:1014D000CD01DA010D92AD012150C1F7D401119671
:1014E0008C91119799818923818311C1823009F4EC
:1014F0000CC1AA80BB80DB0112964D915C911397C1
:10150000CC80DD80EE80FF8014960D911D912D9191
:101510003C911797C501841B950BDC0197FF04C014
:10152000AA27BB27A81BB90BA032B1050CF067C0D6
:101530001816190684F5280139010A2E04C076947C
:101540006794579447940A94D2F741E050E060E0E2
:1015500070E004C0440F551F661F771FAA95D2F78D
:101560004150504060407040402351236223732318
:1015700081E090E0A0E0B0E0411551056105710502
:1015800019F480E090E0DC018C019D01042915290B
:10159000262937293FC00097E9F1AA0EBB1E260174
:1015A00037010A2E04C076946794579447940A949E
:1015B000D2F741E050E060E070E004C0440F551FF6
:1015C000661F771FAA95D2F7415050406040704087
:1015D0004C215D216E217F2181E090E0A0E0B0E010
:1015E000411551056105710519F480E090E0DC01B9
:1015F0006C017D01C428D528E628F7280BC04A15C0
:101600005B0524F400E010E0980104C05A01CC24EA
:10161000DD2476018981D40111969C911197891757
:1016200009F445C0882329F00C191D092E093F092A
:1016300008C0D701C601801B910BA20BB30B8C0114
:101640009D0137FD04C01182B382A2820BC081E0EC
:101650008183B382A28230952095109501951F4F0A
:101660002F4F3F4F04831583268337830DC0880F88
:10167000991FAA1FBB1F84839583A683B78382818A
:10168000938101979383828384819581A681B78119
:10169000AC01BD0141505040604070404F3F2FEFC2
:1016A00052072FEF62072FE3720708F30BC0818305
:1016B000B382A2820C0D1D1D2E1D3F1D04831583B8
:1016C0002683378383E080834481558166817781D7
:1016D00077FF1DC0DB01CA0181709070A070B070EF
:1016E0007695679557954795842B952BA62BB72B09
:1016F00084839583A683B7838281938101969383A4
:10170000828305C0C6E8D4E003C0E40101C0EF0154
:10171000CE01CDB7DEB7E0E10C94D710A0E2B0E087
:10172000E4E9FBE00C94C910DC01CB018D839E83BE
:10173000AF83B88729833A834B835C83CE010596B8
:10174000BE01675E7F4F0E949B0FCE010196BE01D6
:101750006F5E7F4F0E949B0FCE014996BE016F5E68
:101760007F4FAE01475F5F4F0E943D0A0E94C40E4B
:10177000462F572F682F792FCB01BA01A096E2E0B0
:101780000C94E510A0E2B0E0E8ECFBE00C94C9108A
:10179000DC01CB018D839E83AF83B88729833A8395
:1017A0004B835C83CE010596BE01675E7F4F0E942E
:1017B0009B0FCE010196BE016F5E7F4F0E949B0F73
:1017C0008A8991E089278A8BCE014996BE016F5E96
:1017D0007F4FAE01475F5F4F0E943D0A0E94C40EDB
:1017E000462F572F682F792FCB01BA01A096E2E040
:1017F0000C94E510A0E2B0E0E0E0FCE00C94BB103B
:10180000DC01CB018D839E83AF83B88729833A8324
:101810004B835C83CE010596BE01675E7F4F0E94BD
:101820009B0FCE010196BE016F5E7F4F0E949B0F02
:10183000998D923078F089898230C0F0943019F413
:10184000823041F4CAC0843019F4923079F4C5C0B2
:10185000923051F481E02A8D9A89291709F480E0A9
:101860008A8FCE014996BBC0823051F481E02A8D27
:101870009A89291709F480E08A8BCE014196AFC07E
:101880004D8C5E8C6F8C78A00D891E892F89388DC8
:10189000E0E2F0E040E050E0BA01882499245401ED
:1018A000CC24DD247601C201817090700097D1F0C4
:1018B000C00ED11EE21EF31EDB01CA01880D991D68
:1018C000AA1DBB1D41E050E060E070E0C016D106EB
:1018D000E206F30618F040E050E0BA01480F591F45
:1018E0006A1F7B1F880C991CAA1CBB1C37FF08C0F1
:1018F00081E090E0A0E0B0E0882A992AAA2ABB2AD9
:10190000000F111F221F331F76946794579447943A
:10191000319749F68B8D9C8D2B893C89820F931FC3
:1019200002969C878B8781E02A8D9A89291709F472
:1019300080E08A872B853C8517C0CA018170907032
:10194000009761F0F694E794D794C79480E090E014
:10195000A0E0B0E8C82AD92AEA2AFB2A769567953A
:10196000579547952F5F3F4F77FDE7CFC9010BC0D4
:10197000440F551F661F771FF7FC4160CC0CDD1C20
:10198000EE1CFF1C01974030A0E05A07A0E06A0758
:10199000A0E47A0768F38B879C87DB01CA018F7705
:1019A0009070A070B07080349105A105B10561F40C
:1019B00047FD0AC0C114D104E104F10429F0405CE0
:1019C0005F4F6F4F7F4F40784D875E876F87788B73
:1019D00083E08987CE01099602C086E894E00E94E0
:1019E000C40E462F572F682F792FCB01BA01A0962E
:1019F000E0E10C94D710A8E1B0E0E1E0FDE00C9448
:101A0000C910DC01CB018D839E83AF83B887298306
:101A10003A834B835C83CE010596BE016F5E7F4F98
:101A20000E949B0FCE010196BE01675F7F4F0E940F
:101A30009B0F8989823058F08985823040F0CE0131
:101A40004196BE01675F7F4F0E94041001C08FEF77
:101A50006896E2E00C94E510CF92DF92EF92FF924D
:101A6000CF93DF93CDB7DEB728970FB6F894DEBFDC
:101A70000FBECDBF6B017C0183E08983D701C60116
:101A80008827B7FD83959927AA27BB27282F8A8304
:101A9000C114D104E104F10419F482E0898335C052
:101AA0008EE190E09C838B83222389F080E0C8162E
:101AB00080E0D80680E0E80680E8F80659F1F09466
:101AC000E094D094C094C11CD11CE11CF11CCD82C7
:101AD000DE82EF82F886C701B6010E94710E01977F
:101AE0001816190694F4082E04C0CC0CDD1CEE1C4C
:101AF000FF1C0A94D2F7CD82DE82EF82F8862EE1B7
:101B000030E0281B390B3C832B83CE0101960E94C9
:101B1000C40E04C060E070E080E09FEC382F292FF5
:101B2000862F972FA32FB22FBC01CD0128960FB679
:101B3000F894DEBF0FBECDBFDF91CF91FF90EF9045
:101B4000DF90CF900895ACE0B0E0E9EAFDE00C94BE
:101B5000C710DC01CB0189839A83AB83BC83CE01A0
:101B60000196BE016B5F7F4F0E949B0F8D8182307B
:101B700069F1823058F1843039F02F81388537FD92
:101B800025C02F31310544F08E81882319F100E002
:101B900010E020E030E822C08EE190E0821B930B41
:101BA00009851A852B853C8504C0369527951795A0
:101BB00007958A95D2F78E81882381F030952095FC
:101BC000109501951F4F2F4F3F4F08C000E010E0C8
:101BD000980104C00FEF1FEF2FEF3FE7B801C901D5
:101BE0002C96E4E00C94E310A8E0B0E0EAEFFDE00E
:101BF0000C94C3106B017C011A826115710581057B
:101C0000910519F482E089835EC083E089830EE147
:101C100010E01C830B83CD82DE82EF82F886C70141
:101C2000B6010E94710E9C012150304037FF38C030
:101C3000EE27FF27E21BF30B81E090E0A0E0B0E08D
:101C40000E2E04C0880F991FAA1FBB1F0A94D2F73B
:101C50000197A109B1098C219D21AE21BF2141E04D
:101C600050E060E070E00097A105B10519F440E094
:101C700050E0BA0104C0F694E794D794C794EA956B
:101C8000D2F7C42AD52AE62AF72ACD82DE82EF824D
:101C9000F8868EE190E0821B930B9C838B8313C0AC
:101CA0002115310581F0022E04C0CC0CDD1CEE1C88
:101CB000FF1C0A94D2F7CD82DE82EF82F886021BE7
:101CC000130B1C830B83CE0101960E94C40E462F7A
:101CD000572F682F792FCB01BA012896E8E00C9492
:101CE000DF10CF92DF92EF92FF920F931F938B0141
:101CF0009C01003080E0180781E0280780E0380769
:101D000050F40F3F11052105310509F088F480E0FA
:101D100090E0DC0116C00030E0E01E07E0E02E0796
:101D2000E1E03E0750F480E190E0A0E0B0E009C0BF
:101D300088E090E0A0E0B0E004C088E190E0A0E09E
:101D4000B0E040E250E060E070E0481B590B6A0BE5
:101D50007B0B6801790104C0F694E794D794C7948B
:101D60008A95D2F7D701C60182579B4FFC0180812B
:101D7000481B510961097109CA011F910F91FF9018
:101D8000EF90DF90CF900895CF92DF92EF92FF9285
:101D90000F931F93DC0114964D915D916D917C9191
:101DA00017971196EC9111978C91823020F4606115
:101DB0008FEF90E0A5C0843009F49DC0823009F413
:101DC00094C0411551056105710509F491C0129641
:101DD0008D919C9113972FEF823892070CF059C088
:101DE00022E83FEF281B390B2A31310564F56A01DF
:101DF0007B01022E04C0F694E794D794C7940A940A
:101E0000D2F781E090E0A0E0B0E004C0880F991F15
:101E1000AA1FBB1F2A95D2F70197A109B1098423F4
:101E20009523A623B72341E050E060E070E00097DF
:101E3000A105B10519F440E050E0BA014C295D2933
:101E40006E297F2903C040E050E0BA01DB01CA01DE
:101E50008F779070A070B07080349105A105B105A6
:101E600039F447FF09C0405C5F4F6F4F7F4F04C09C
:101E7000415C5F4F6F4F7F4F81E090E0403020E04A
:101E8000520720E0620720E4720738F580E090E016
:101E900024C0803891057CF58A019B010F77107072
:101EA00020703070003411052105310539F447FFE9
:101EB00009C0405C5F4F6F4F7F4F04C0415C5F4F74
:101EC0006F4F7F4F77FD03C081589F4F06C07695B7
:101ED00067955795479580589F4F97E076956795FA
:101EE000579547959A95D1F70BC080E090E005C0D3
:101EF00080E090E005C08FEF90E040E050E0BA0154
:101F0000982F979599279795A62FAF77E795EE2766
:101F1000E79586953A2F392B282F2E2B842F952F36
:101F2000A32FB22FBC01CD011F910F91FF90EF9015
:101F3000DF90CF900895DC01FB014C9111965C91EC
:101F4000119712968C911297682F6F7770E0982FE7
:101F5000991F9927991F13962C911397822F880FF9
:101F6000892B90E0221F2227221F2183009739F519
:101F7000411551056105710511F482E029C082E81F
:101F80009FEF9383828327E0440F551F661F771FBF
:101F90002A95D1F783E0808309C0440F551F661F3F
:101FA000771F82819381019793838283403080E001
:101FB000580780E0680780E4780778F320C08F3FF7
:101FC000910579F4411551056105710519F484E015
:101FD0008083089564FF03C081E0808310C0108275
:101FE0000EC08F5790409383828383E0808387E085
:101FF000440F551F661F771F8A95D1F7706444837D
:102000005583668377830895CF93FC01DB0190812C
:10201000923008F44CC08C91823008F448C094305F
:1020200069F42181843039F411968C91119790E0F4
:10203000821B910944C02223D1F13FC0843021F09A
:10204000923041F48230B1F111968C91119788232E
:10205000A1F12DC0C181823001F111968C911197AF
:10206000C817D9F48281938112962D913C911397D0
:102070002817390794F082179307BCF044815581E3
:102080006681778114968D919D910D90BC91A02DC4
:1020900084179507A607B70718F4CC2341F00DC0A5
:1020A000481759076A077B0728F4CC2331F081E0F1
:1020B00090E005C080E090E002C08FEF9FEFCF91ED
:1020C0000895CF93DF93CDB7DEB72A970FB6F89474
:1020D000DEBF0FBECDBF78940E9402080E94F904B3
:1020E0000E9463060E9496000E942D040E94EC0844
:1020F0000F920F928EE592E0EDB7FEB79283818347
:102100000E94DB120F900F90F894CE0101960E946E
:10211000420578940097C1F3E981FA81CE010396D4
:102120001995F2CF97FB092E07260AD077FD04D028
:102130000CD006D000201AF4709561957F4F089559
:10214000F6F7909581959F4F0895AA1BBB1B51E10F
:1021500007C0AA1FBB1FA617B70710F0A61BB70B17
:10216000881F991F5A95A9F780959095BC01CD01BC
:1021700008952F923F924F925F926F927F928F922B
:102180009F92AF92BF92CF92DF92EF92FF920F9306
:102190001F93CF93DF93CDB7DEB7CA1BDB0B0FB610
:1021A000F894DEBF0FBECDBF19942A8839884888BD
:1021B0005F846E847D848C849B84AA84B984C88463
:1021C000DF80EE80FD800C811B81AA81B981CE0F5A
:1021D000D11D0FB6F894DEBF0FBECDBFED0108953F
:1021E000CF93DF93AC018230910510F442E050E0D0
:1021F000E091D106F091D20620E030E0A0E0B0E01E
:1022000024C08081918184179507D0F084179507A9
:1022100071F482819381109729F013969C938E9389
:1022200012972CC09093D2068093D10627C0211517
:10223000310519F08217930718F49C01BD01EF01D5
:1022400092818381DF01E92FF82F3097D1F6211594
:102250003105F9F0C901841B950B8430910580F498
:102260008A819B816115710521F0FB019383828333
:1022700004C09093D2068093D106FE01329642C0EC
:10228000FE01E80FF91F41935193029799838883C8
:1022900039C08091CF069091D006009741F480918B
:1022A0009005909191059093D0068093CF06209150
:1022B0008E0530918F052115310541F42DB73EB7BC
:1022C0008091920590919305281B390BE091CF06E0
:1022D000F091D006E217F30798F42E1B3F0B24175A
:1022E000350770F0CA0102962817390748F08E0F9B
:1022F0009F1F9093D0068093CF064193519302C0C5
:10230000E0E0F0E0CF01DF91CF9108950F931F93AC
:10231000CF93DF939C01009709F48CC0DC011297E6
:1023200013961C921E9212976091D1067091D2065C
:102330006115710589F48D919C911197820F931FFE
:102340002091CF063091D0062817390769F5B09350
:10235000D006A093CF066EC0FB0140E050E001C064
:10236000FC01EA17FB0730F482819381AF010097EB
:10237000B9F71FC0E9012297FB83EA83088119811D
:10238000C901800F911F8E179F0759F48081918199
:10239000800F911F029699838883828193819B830A
:1023A0008A834115510529F4B093D206A093D10632
:1023B00041C0FA01B383A283C191D191EC0FFD1FFB
:1023C000AE17BF0781F4F901929182918C0F9D1F86
:1023D0000296DA0111969C938E93828193811396D3
:1023E0009C938E931297E0E0F0E002C0FB01BC01E9
:1023F000DB0112968D919C9113970097B9F7CB0151
:1024000002962D913C911197820F931F2091CF0638
:102410003091D0062817390769F4309729F41092C3
:10242000D2061092D10602C0138212827093D00697
:102430006093CF06DF91CF911F910F910895FC011A
:1024400088279927E89421912032E9F3293010F068
:102450002E30C8F32B3241F02D3239F4689404C089
:102460000E947912820F911D219120532A30C0F3CE
:102470001EF4909581959F4F089540EA55E00E9483
:1024800052120895FB01DC018D9101908019011019
:10249000D9F3990B0895FB01DC0101900D92002006
:1024A000E1F70895FA01A191B081009719F410970E
:1024B000E1F0CD01DC01CD010D90002011F4C0014F
:1024C00013C0FB012191222319F02015D9F7F3CF76
:1024D000FB012191201519F41E92119606C02223AA
:1024E000C1F70D900020A1F7D001FA01A193B083AC
:1024F00008957AE0979F902D879F802D910D11244C
:102500000895CF92DF92EF92FF920F931F93CF9394
:10251000DF938C016A01FA01838180FF1AC01616CD
:102520001706BCF47B01E8010EC0C6010E946E15BF
:10253000FFEF8F3F9F0769F089930894E108F10846
:102540008A30910521F021E0E216F10471F718823A
:1025500002C000E010E0C801DF91CF911F910F9100
:10256000FF90EF90DF90CF9008950F931F93CF933C
:10257000DF938C01E091D306F091D406838180FF34
:1025800012C0E8018091D3069091D4060E946E1586
:102590002FEF8F3F920739F089938A30910591F799
:1025A0002197188202C000E010E0C801DF91CF91AE
:1025B0001F910F910895CF93DF93CDB7DEB7FE0142
:1025C0003696619171918091D5069091D606AF01B2
:1025D0000E945113DF91CF9108956091D5067091BB
:1025E000D6060E94AE1508950F931F93CF93DF93E5
:1025F0008C01E091D506F091D606838181FF1AC047
:10260000C0E0D0E005C01995009711F0CFEFDFEFE3
:10261000F80181918F016091D5067091D606DB019A
:102620001896ED91FC911997882369F78AE019951E
:10263000009711F0CFEFDFEFCE01DF91CF911F9127
:102640000F9108950F931F93CF93DF93CDB7DEB70C
:102650002E970FB6F894DEBF0FBECDBF0E891F892F
:1026600086E08C831A8309838FEF9FE79E838D8397
:10267000AE01465E5F4FCE010196688D798D0E9456
:102680005113EF81F885E00FF11F10822E960FB6DF
:10269000F894DEBF0FBECDBFDF91CF911F910F9198
:1026A00008952F923F924F925F926F927F928F92F6
:1026B0009F92AF92BF92CF92DF92EF92FF920F93D1
:1026C0001F93CF93DF93CDB7DEB72D970FB6F89456
:1026D000DEBF0FBECDBF3C017D876C875A01FC0178
:1026E00017821682838181FFC8C12E010894411C84
:1026F000511CF3019381EC85FD8593FD859193FF3A
:102700008191FD87EC87882309F4B3C1853241F4B8
:1027100093FD859193FF8191FD87EC87853229F4A4
:1027200090E0B3010E94AE15E4CFFF24EE2410E048
:102730001032B0F48B3269F08C3228F4803251F0D0
:10274000833271F40BC08D3239F0803349F411605B
:102750002CC01260146029C0186027C0106125C009
:1027600017FD2EC0282F20532A3098F416FF08C0DA
:102770008F2D880FF82EFF0CFF0CF80EF20E15C0EF
:102780008E2D880FE82EEE0CEE0CE80EE20E106295
:102790000CC08E3221F416FD6CC1106406C08C365C
:1027A00011F4106802C0883659F4EC85FD8593FD5C
:1027B000859193FF8191FD87EC87882309F0B8CF3D
:1027C000982F9554933018F09052933038F424E0B9
:1027D00030E0A20EB31E3FE339830FC0833631F0E1
:1027E000833781F0833509F05AC022C0F50180811A
:1027F000898322E030E0A20EB31E21E0C22ED12C4C
:10280000420114C092E0292E312C2A0C3B1CF50108
:102810008080918016FF03C06F2D70E002C06FEFC3
:102820007FEFC4010E9463156C0151011F7715C031
:1028300082E0282E312C2A0C3B1CF50180809180EF
:1028400016FF03C06F2D70E002C06FEF7FEFC40171
:102850000E9458156C011068510113FD1CC006C080
:1028600080E290E0B3010E94AE15EA948E2D90E0D4
:10287000C816D906A8F30FC0F40117FD859117FFFC
:1028800081914F0190E0B3010E94AE15E110EA94EE
:102890000894C108D108C114D10471F7E7C0843687
:1028A00011F0893651F5F50117FF07C0808191813C
:1028B000A281B38124E030E008C080819181AA2701
:1028C00097FDA095BA2F22E030E0A20EB31E012F93
:1028D0000F76B7FF08C0B095A095909581959F4F52
:1028E000AF4FBF4F0068BC01CD01A2012AE030E02C
:1028F0000E94DA15D82ED4183FC0853721F41F7EE8
:102900002AE030E020C0197F8F36A9F0803720F40C
:10291000883509F0AEC00BC0803721F0883709F048
:10292000A8C001C0106114FF09C0146007C014FFE3
:1029300008C0166006C028E030E005C020E130E0A5
:1029400002C020E132E0F50117FF07C0608171810C
:102950008281938144E050E006C06081718180E013
:1029600090E042E050E0A40EB51EA2010E94DA15EC
:10297000D82ED418012F0F7706FF09C00E7FDF1461
:1029800030F404FF06C002FD04C00F7E02C01D2DFE
:1029900001C01F2D802F90E004FF0CC0FE01ED0D43
:1029A000F11D2081203311F4097E09C002FF06C009
:1029B0001E5F05C086789070009709F01F5F802E1B
:1029C000992403FD12C000FF0DC0FD2C1E1550F40C
:1029D000FE0CF11A1E2D06C080E290E0B3010E94A9
:1029E000AE151F5F1E15C0F304C01E1510F4E11ACA
:1029F00001C0EE2484FE0FC080E390E0B3010E948A
:102A0000AE1582FE1FC081FE03C088E590E010C0B5
:102A100088E790E00DC0C40186789070009791F02F
:102A200081FC02C080E201C08BE207FD8DE290E0F4
:102A3000B3010E94AE1506C080E390E0B3010E948E
:102A4000AE15FA94DF14C0F3DA94F201ED0DF11D26
:102A5000808190E0B3010E94AE15DD20A9F706C089
:102A600080E290E0B3010E94AE15EA94EE20C1F737
:102A700040CEF3018681978102C08FEF9FEF2D96A4
:102A80000FB6F894DEBF0FBECDBFDF91CF911F917F
:102A90000F91FF90EF90DF90CF90BF90AF909F90FD
:102AA0008F907F906F905F904F903F902F90089500
:102AB000FC010590615070400110D8F78095909509
:102AC0008E0F9F1F0895FC0161507040019001100E
:102AD000D8F7809590958E0F9F1F0895CF93DF9321
:102AE000EC012B8120FF35C026FF09C02F7B2B83F3
:102AF0008E819F8101969F838E838A8128C022FFC9
:102B00000FC0E881F9818081992787FD9095009712
:102B100019F420622B831DC03196F983E88311C01C
:102B2000EA85FB85CE01199597FF0BC02B813FEFFE
:102B30008F3F930711F480E101C080E2822B8B83E9
:102B400008C02E813F812F5F3F4F3F832E8390E04F
:102B500002C08FEF9FEFDF91CF9108950F931F93E6
:102B6000CF93DF938C01EB018B8181FF1BC082FF30
:102B70000DC02E813F818C819D812817390764F417
:102B8000E881F9810193F983E88306C0E885F98536
:102B9000802F1995009731F48E819F8101969F8334
:102BA0008E8302C00FEF1FEFC801DF91CF911F91FD
:102BB0000F910895FA01AA27283051F1203181F1AF
:102BC000E8946F936E7F6E5F7F4F8F4F9F4FAF4F35
:102BD000B1E03ED0B4E03CD0670F781F891F9A1F48
:102BE000A11D680F791F8A1F911DA11D6A0F711DFC
:102BF000811D911DA11D20D009F468943F912AE008
:102C0000269F11243019305D3193DEF6CF010895EF
:102C1000462F4770405D4193B3E00FD0C9F7F6CF20
:102C2000462F4F70405D4A3318F0495D31FD4052E8
:102C3000419302D0A9F7EACFB4E0A695979587957E
:102C400077956795BA95C9F700976105710508955D
:102C50009B01AC010A2E0694579547953795279509
:102C6000BA95C9F7620F731F841F951FA01D0895A1
:042C7000F894FFCF06
:102C74004375727272656E742074656D70657274DA
:102C840075726520697320256420646567726565C3
:102C94002E0A002564003E2000256420697320610B
:102CA400207072696D65206E756D626572212121D7
:102CB4000A00636F756E743D25640A002420007356
:102CC400756D3D25640A002D2D3E256420002420C9
:102CD400007461736B5F746337372829203A20636B
:102CE4007272656E745F74656D706572617475720D
:102CF400202D3E202564206465677265652E0A00D8
:102D04007461736B5F746337372829203A20756EBA
:102D1400656370656365746420737461746520749D
:102D240061736B5F746337372E2E2E002564006C3D
:102D34006F676F75742C20676F6F642062796520EC
:102D44002121210020090A0D0024200074696D65E9
:102D540072002121212D32323200556E6B6E6F7755
:102D64006E20636F6D6D616E642E2E2E0000050063
:102D74007072696D65000000000000000000000032
:102D8400000000000000000000000000000000003F
:102D9400260273756D0000000000000000000000B2
:102DA400000000000000000000000000000000001F
:102DB40000007E02746331303437000000000000EC
:102DC40000000000000000000000000000000000FF
:102DD40000000000AB0074633737000000000000FF
:102DE40000000000000000000000000000000000DF
:102DF4000000000000003B0474636E3735000000DF
:102E040000000000000000000000000000000000BE
:102E14000000000000000000F1082D2D3E2564286C
:102E240025642920003E3E2000000000000100002F
:102E340000000000D40700000000000200000000B1
:102E4400E1070000000001007461736B5F74636E3E
:102E540037355F6932632829203A20534C412B5778
:102E6400207772697465206661696C2E2E2E007459
:102E740061736B5F74636E37355F69326328292031
:102E84003A20706F696E7465722077726974652078
:102E94006661696C2E2E2E007461736B5F74636EB1
:102EA40037355F6932632829203A20534C412B522D
:102EB400207772697465206661696C2E2E2E007409
:102EC40061736B5F74636E37355F693263282920E1
:102ED4003A2063757272656E745F74656D706572A5
:102EE4006174757265202D3E2025642064656772C7
:102EF40065652E200A0000000000000000000001AB
:102F04000202030303030404040404040404050583
:102F1400050505050505050505050505050506065B
:102F2400060606060606060606060606060606063D
:102F3400060606060606060606060606060607072B
:102F4400070707070707070707070707070707070D
:102F540007070707070707070707070707070707FD
:102F640007070707070707070707070707070707ED
:102F740007070707070707070707070707070808DB
:102F840008080808080808080808080808080808BD
:102F940008080808080808080808080808080808AD
:102FA400080808080808080808080808080808089D
:102FB400080808080808080808080808080808088D
:102FC400080808080808080808080808080808087D
:102FD400080808080808080808080808080808086D
:102FE400080808080808080808080808080808085D
:102FF400080808080808080808080808080800005D
:04300400D9062000C9
:00000001FF
