:100000000C9472000C9494000C9494000C94940042
:100010000C9494000C9494000C9494000C94940010
:100020000C9494000C9494000C9494000C94940000
:100030000C9494000C9494000C9494000C949400F0
:100040000C9494000C9494000C9494000C949400E0
:100050000C9494000C9494000C9494000C949400D0
:100060000C9494000C9478030C9494000C94490321
:100070000C9494000C9494000C9494000C949400B0
:100080000C9494000C9494000C9494000C949400A0
:100090000C9494000C9494000C9494000C94940090
:1000A0000C9494000C9494000C9494000C94940080
:1000B0000C9494000C9494000C9494000C94940070
:1000C0000C9494000C9494000C9494000C94940060
:1000D0000C9494000C9494000C9494000C94940050
:1000E0000C94940011241FBECFEFD1E2DEBFCDBF30
:1000F00000E00CBF12E0A0E0B2E0EEE5F4E100E0C9
:100100000BBF02C007900D92A03AB107D9F71BBEF2
:1001100013E0A0EAB2E001C01D92AA33B107E1F7F3
:100120000E94B7040C942D0A0C940000CF92DF9229
:10013000FF920F931F93CF93DF93CDB7DEB728972E
:100140000FB6F894DEBF0FBECDBF009719F0FC01CB
:10015000F08002C091E6F92E80E0C82E82E0D82E11
:100160000F920F92EDB7FEB7D282C1820E94FF06B6
:100170000F900F904091340350913503CE010196BA
:1001800068E070E00E94CB060097E9F00E9425022B
:100190008C01CE0101960E947006F8019183808344
:1001A000F8E6FF1621F084E7F81649F404C0C80108
:1001B0000E942D02D5CFC8010E944202D1CFC801B2
:1001C0000E945602CDCF0E948D020E94BA0228964C
:1001D0000FB6F894DEBF0FBECDBFDF91CF911F9158
:1001E0000F91FF90DF90CF900895CF93DF93FC01A4
:1001F00062E070E00E941A05EB0122E030E008C0E6
:10020000CF01B9010E941A05009741F02F5F3F4FBF
:10021000C217D307ACF781E090E002C080E090E025
:10022000DF91CF910895CF92DF92EF92FF920F93DB
:100230001F93CF93DF93009721F00E9470067C01FB
:1002400004C090EDE92E97E0F92EC2E0D0E000E086
:1002500010E083E0C82E82E0D82E16C0CE010E94A6
:10026000F500009781F00F5F1F4F00D00F92EDB7A0
:10027000FEB7D282C182D483C3830E94FF060F904F
:100280000F900F900F902196EC16FD063CF700D0D2
:100290000F928CE192E0EDB7FEB7928381831483D5
:1002A00003830E94FF060F900F900F900F90DF9135
:1002B000CF911F910F91FF90EF90DF90CF90089515
:1002C0001092EC021092EB021092EA021092E902F4
:1002D0001092EE021092ED021092A8021092A70264
:1002E0000895482F2091ED023091EE022F5F3F4F8D
:1002F000C90160E470E00E941A059C018091A70288
:100300009091A8022817390759F03093EE022093F4
:10031000ED0221513D4FF901408381E090E00895C5
:1003200080E090E008958091A7029091A80220912A
:10033000ED023091EE022817390779F0019660E45A
:1003400070E00E941A059093A8028093A702815141
:100350009D4FFC01808190E0089580E090E0089539
:10036000482F2091EB023091EC022F5F3F4FC901E3
:1003700060E470E00E941A059C018091E90290916E
:10038000EA022817390759F03093EC022093EB0268
:1003900027553D4FF901408381E090E0089580E0CA
:1003A00090E008958091E9029091EA022091EB0299
:1003B0003091EC022817390779F0019660E470E07B
:1003C0000E941A059093EA028093E90287559D4F97
:1003D000FC01808190E0089580E090E008958FEF27
:1003E00080930B0180930A01089510920B011092E3
:1003F000A00208958FEF80930B018093A0020895CF
:1004000021E030E002C0220F331F8A95E2F72095E9
:100410008091A00228232093A00220930B0108952D
:1004200021E030E002C0220F331F8A95E2F780916D
:10043000A002822B8093A00280930B0108958095E7
:100440008093A00280930B01089584E090E00E94C5
:10045000410508950E94D7050895FC018091A102ED
:100460009091A202009739F4F093A202E093A102C6
:1004700013821282089593838283F093A202E09301
:10048000A1020895E091A102F091A202309731F407
:100490009093A2028093A1020895F90122813381F1
:1004A00021153105D1F7938382830895CF93DF938C
:1004B000FC012091A1023091A2022115310531F0F9
:1004C00040815181D901C0E0D0E00FC09093A202D9
:1004D0008093A102138212821DC012968D919C916D
:1004E0001397ED01009739F0DC018D919C911197E4
:1004F0008417950794F3209739F433832283F0937C
:10050000A202E093A10206C08A819B819383828329
:10051000FB83EA83DF91CF9108950F931F93CF93CD
:10052000DF938AE090E00E941107C091A102D09170
:10053000A20206E212E013C000D00F92EDB7FEB7A0
:100540001283018388819981948383830E94FF06AB
:100550000A80DB81C02D0F900F900F900F90209795
:1005600059F78AE090E00E941107DF91CF911F9127
:100570000F91089509C0FC01228133813093A202BA
:100580002093A1020E94D7058091A1029091A2021E
:10059000009789F70895F8940E949301789488232E
:1005A000D1F3843011F090E008958FEF9FEF08951C
:1005B000CF93C82F8A3019F48DE00E94D802F894A6
:1005C00080912F03882359F4C093C60081E0809363
:1005D0002F030AC0789486EF8A95F1F7F8948C2F50
:1005E0000E94B0010097B1F3789481E090E0CF9140
:1005F00008958EE692E090933503809334038CE760
:1006000092E0909337038093360310922F030E9459
:1006100060011092C50087E08093C400E0ECF0E038
:10062000808182608083E1ECF0E08081886080835B
:100630008081806480838081806180838081806804
:1006400080830895CF93C82F8A3019F48DE00E94DB
:1006500022038091C00085FFFCCFC093C60081E0DB
:1006600090E0CF910895CF93C82F8A3019F48DE090
:100670000E94330380912F03882331F4C093C60076
:1006800081E080932F0303C08C2F0E94B001CF9193
:1006900008951F920F920FB60F920BB60F9211246E
:1006A0002F933F934F935F936F937F938F939F937A
:1006B000AF93BF93EF93FF930E94D201882319F465
:1006C00010922F0302C08093C600FF91EF91BF915B
:1006D000AF919F918F917F916F915F914F913F91DA
:1006E0002F910F900BBE0F900FBE0F901F9018957B
:1006F0001F920F920FB60F920BB60F9211242F93E9
:100700003F934F935F936F937F938F939F93AF9399
:10071000BF93CF93EF93FF93C091C600C43031F0E5
:10072000CD3009F4CAE08C2F0E9433038C2F0E9435
:100730007101FF91EF91CF91BF91AF919F918F91F7
:100740007F916F915F914F913F912F910F900BBED1
:100750000F900FBE0F901F9018958EE090E00E94B2
:1007600041050895EF92FF920F931F93CF93DF936C
:10077000F82EE92E8B010E94AD03EC01DC011296EC
:10078000EF2DFE2D8AE001900D928150E1F7198343
:100790000883E091A302F091A402309729F4D0934A
:1007A000A402C093A3022FC040E050E020E030E05C
:1007B00001C0FD0180819181280F391F2017310769
:1007C00034F4A485B585AF01109799F701C0DF0116
:1007D0004115510579F48D919C911197801B910BD6
:1007E00011969C938E93BD87AC87D093A402C0933F
:1007F000A30224C0109751F4021B130B1983088322
:10080000FA01D587C4871D861C8618C08D919C91DE
:100810001197B901681B790B9801261B370B398397
:1008200028838D919C911197821B930B11969C9319
:100830008E93FA01D587C487BD87AC87DF91CF91AE
:100840001F910F91FF90EF900895EF92FF920F93F9
:100850001F93CF93DF938AE090E00E941107C0912D
:10086000A302D091A40200E010E08AE8E82E82E022
:10087000F82E20C088819981080F191F00D000D060
:10088000EDB7FEB73196ADB7BEB71296FC92EE92B9
:10089000119793838283158304830E94FF060C843F
:1008A000DD85C02D8DB79EB706960FB6F8949EBF16
:1008B0000FBE8DBF2097F1F68AE090E00E941107ED
:1008C000DF91CF911F910F91FF90EF90089509C094
:1008D000FC01248535853093A4022093A3020E9455
:1008E000D7058091A3029091A402009789F70895FB
:1008F0000F931F93CF93DF93CDB7DEB762970FB6F9
:10090000F894DEBF0FBECDBF05E912E00F920F9243
:10091000EDB7FEB7128301830E94FF060F900F9080
:100920004091340350913503CE01019668E070E0A8
:100930000E94CB06009761F0CE0101960E947006DE
:10094000BC01009729F0CE0109960E94B203DECFC8
:100950000E9425040E94670462960FB6F894DEBFD9
:100960000FBECDBFDF91CF911F910F910895CF930F
:10097000DF93CDB7DEB7C058D0400FB6F894DEBFD6
:100980000FBECDBF0E94F90278948DE2C82E82E09E
:10099000D82E0F920F92EDB7FEB7D282C1820E947D
:1009A000FF060F900F904091340350913503CE0114
:1009B000019660E870E00E94CB060097B1F1CE018D
:1009C000019660E372E00E948E068C01009709F3A5
:1009D00080E090E060E372E00E948E067C01C80136
:1009E00065E372E00E949306009721F4C7010E941C
:1009F0001301CFCFC8016BE372E00E94930600970A
:100A000021F4C7010E949600C4CFC80160E472E0DF
:100A10000E949306009721F4C7010E947804B9CF81
:100A200086E492E00E941807B4CF89E592E00E9424
:100A30001807FFCF97FB092E07260AD077FD04D0B1
:100A40000CD006D000201AF4709561957F4F089560
:100A5000F6F7909581959F4F0895AA1BBB1B51E116
:100A600007C0AA1FBB1FA617B70710F0A61BB70B1E
:100A7000881F991F5A95A9F780959095BC01CD01C3
:100A80000895CF93DF93AC018230910510F442E0DA
:100A900050E0E0913203F091330320E030E0A0E039
:100AA000B0E024C08081918184179507D0F084172D
:100AB000950771F482819381109729F013969C9386
:100AC0008E9312972CC0909333038093320327C0E8
:100AD0002115310519F08217930718F49C01BD0107
:100AE000EF0192818381DF01E92FF82F3097D1F652
:100AF00021153105F9F0C901841B950B843091054E
:100B000080F48A819B816115710521F0FB0193833B
:100B1000828304C09093330380933203FE013296A4
:100B200042C0FE01E80FF91F419351930297998348
:100B3000888339C08091300390913103009741F44C
:100B400080919B0290919C0290933103809330039B
:100B50002091990230919A022115310541F42DB767
:100B60003EB780919D0290919E02281B390BE09127
:100B70003003F0913103E217F30798F42E1B3F0B7B
:100B80002417350770F0CA0102962817390748F074
:100B90008E0F9F1F909331038093300341935193A5
:100BA00002C0E0E0F0E0CF01DF91CF9108950F9314
:100BB0001F93CF93DF939C01009709F48CC0DC0155
:100BC000129713961C921E921297609132037091A5
:100BD00033036115710589F48D919C911197820FF2
:100BE000931F20913003309131032817390769F59D
:100BF000B0933103A09330036EC0FB0140E050E09E
:100C000001C0FC01EA17FB0730F482819381AF0138
:100C10000097B9F71FC0E9012297FB83EA83088197
:100C20001981C901800F911F8E179F0759F4808188
:100C30009181800F911F029699838883828193818D
:100C40009B838A834115510529F4B0933303A09304
:100C5000320341C0FA01B383A283C191D191EC0F59
:100C6000FD1FAE17BF0781F4F901929182918C0F9D
:100C70009D1F0296DA0111969C938E938281938137
:100C800013969C938E931297E0E0F0E002C0FB0174
:100C9000BC01DB0112968D919C9113970097B9F7D7
:100CA000CB0102962D913C911197820F931F2091B9
:100CB0003003309131032817390769F4309729F44C
:100CC000109233031092320302C013821282709387
:100CD000310360933003DF91CF911F910F910895FD
:100CE000FC0188279927E89421912032E9F32930E3
:100CF00010F02E30C8F32B3241F02D3239F46894C5
:100D000004C00E94C306820F911D219120532A30F6
:100D1000C0F31EF4909581959F4F089545EA52E0E7
:100D20000E949C060895FB01DC018D9101908019C1
:100D30000110D9F3990B0895FA01A191B0810097A0
:100D400019F41097E1F0CD01DC01CD010D900020E8
:100D500011F4C00113C0FB012191222319F02015C9
:100D6000D9F7F3CFFB012191201519F41E921196AA
:100D700006C02223C1F70D900020A1F7D001FA018F
:100D8000A193B08308957AE0979F902D879F802D3F
:100D9000910D11240895CF92DF92EF92FF920F935D
:100DA0001F93CF93DF938C016A01FA01838180FF47
:100DB0001AC016161706BCF47B01E8010EC0C60166
:100DC0000E946309FFEF8F3F9F0769F089930894A2
:100DD000E108F1088A30910521F021E0E216F104E2
:100DE00071F7188202C000E010E0C801DF91CF91D6
:100DF0001F910F91FF90EF90DF90CF900895CF93C8
:100E0000DF93CDB7DEB7FE01369661917191809187
:100E1000360390913703AF010E944607DF91CF91CF
:100E2000089560913603709137030E94A3090895D5
:100E30000F931F93CF93DF938C01E0913603F091D2
:100E40003703838181FF1AC0C0E0D0E005C0199547
:100E5000009711F0CFEFDFEFF80181918F016091E2
:100E6000360370913703DB011896ED91FC911997C9
:100E7000882369F78AE01995009711F0CFEFDFEF2B
:100E8000CE01DF91CF911F910F9108952F923F9244
:100E90004F925F926F927F928F929F92AF92BF928A
:100EA000CF92DF92EF92FF920F931F93CF93DF9336
:100EB000CDB7DEB72D970FB6F894DEBF0FBECDBF0E
:100EC0003C017D876C875A01FC0117821682838161
:100ED00081FFC8C12E010894411C511CF30193816C
:100EE000EC85FD8593FD859193FF8191FD87EC87CE
:100EF000882309F4B3C1853241F493FD859193FFB2
:100F00008191FD87EC87853229F490E0B3010E943E
:100F1000A309E4CFFF24EE2410E01032B0F48B32AA
:100F200069F08C3228F4803251F0833271F40BC0B6
:100F30008D3239F0803349F411602CC01260146096
:100F400029C0186027C0106125C017FD2EC0282FAA
:100F500020532A3098F416FF08C08F2D880FF82EE2
:100F6000FF0CFF0CF80EF20E15C08E2D880FE82E28
:100F7000EE0CEE0CE80EE20E10620CC08E3221F484
:100F800016FD6CC1106406C08C3611F4106802C0E6
:100F9000883659F4EC85FD8593FD859193FF819109
:100FA000FD87EC87882309F0B8CF982F95549330AC
:100FB00018F09052933038F424E030E0A20EB31EC3
:100FC0003FE339830FC0833631F0833781F08335B7
:100FD00009F05AC022C0F5018081898322E030E007
:100FE000A20EB31E21E0C22ED12C420114C092E009
:100FF000292E312C2A0C3B1CF5018080918016FF94
:1010000003C06F2D70E002C06FEF7FEFC4010E943C
:1010100058096C0151011F7715C082E0282E312C30
:101020002A0C3B1CF5018080918016FF03C06F2DB8
:1010300070E002C06FEF7FEFC4010E944D096C01A8
:101040001068510113FD1CC006C080E290E0B3019E
:101050000E94A309EA948E2D90E0C816D906A8F341
:101060000FC0F40117FD859117FF81914F0190E0AA
:10107000B3010E94A309E110EA940894C108D108C1
:10108000C114D10471F7E7C0843611F0893651F5E7
:10109000F50117FF07C080819181A281B38124E00F
:1010A00030E008C080819181AA2797FDA095BA2FD2
:1010B00022E030E0A20EB31E012F0F76B7FF08C06A
:1010C000B095A095909581959F4FAF4FBF4F006809
:1010D000BC01CD01A2012AE030E00E94CF09D82E48
:1010E000D4183FC0853721F41F7E2AE030E020C0AD
:1010F000197F8F36A9F0803720F4883509F0AEC00B
:101100000BC0803721F0883709F0A8C001C01061FA
:1011100014FF09C0146007C014FF08C0166006C0A1
:1011200028E030E005C020E130E002C020E132E0FC
:10113000F50117FF07C0608171818281938144E0CE
:1011400050E006C06081718180E090E042E050E0B4
:10115000A40EB51EA2010E94CF09D82ED418012FCB
:101160000F7706FF09C00E7FDF1430F404FF06C0BE
:1011700002FD04C00F7E02C01D2D01C01F2D802F57
:1011800090E004FF0CC0FE01ED0DF11D2081203325
:1011900011F4097E09C002FF06C01E5F05C08678F3
:1011A0009070009709F01F5F802E992403FD12C0F4
:1011B00000FF0DC0FD2C1E1550F4FE0CF11A1E2D63
:1011C00006C080E290E0B3010E94A3091F5F1E15D4
:1011D000C0F304C01E1510F4E11A01C0EE2484FE11
:1011E0000FC080E390E0B3010E94A30982FE1FC0FC
:1011F00081FE03C088E590E010C088E790E00DC054
:10120000C40186789070009791F081FC02C080E262
:1012100001C08BE207FD8DE290E0B3010E94A309BB
:1012200006C080E390E0B3010E94A309FA94DF14A2
:10123000C0F3DA94F201ED0DF11D808190E0B3016D
:101240000E94A309DD20A9F706C080E290E0B30167
:101250000E94A309EA94EE20C1F740CEF3018681F3
:10126000978102C08FEF9FEF2D960FB6F894DEBFE7
:101270000FBECDBFDF91CF911F910F91FF90EF90E7
:10128000DF90CF90BF90AF909F908F907F906F90A6
:101290005F904F903F902F900895FC010590615012
:1012A00070400110D8F7809590958E0F9F1F08957C
:1012B000FC016150704001900110D8F78095909525
:1012C0008E0F9F1F0895CF93DF93EC012B8120FF9A
:1012D00035C026FF09C02F7B2B838E819F8101960D
:1012E0009F838E838A8128C022FF0FC0E881F98105
:1012F0008081992787FD9095009719F420622B83B0
:101300001DC03196F983E88311C0EA85FB85CE01C3
:10131000199597FF0BC02B813FEF8F3F930711F477
:1013200080E101C080E2822B8B8308C02E813F8147
:101330002F5F3F4F3F832E8390E002C08FEF9FEFE0
:10134000DF91CF9108950F931F93CF93DF938C017B
:10135000EB018B8181FF1BC082FF0DC02E813F817D
:101360008C819D812817390764F4E881F981019304
:10137000F983E88306C0E885F985802F19950097E1
:1013800031F48E819F8101969F838E8302C00FEF7F
:101390001FEFC801DF91CF911F910F910895FA01BE
:1013A000AA27283051F1203181F1E8946F936E7FA4
:1013B0006E5F7F4F8F4F9F4FAF4FB1E03ED0B4E095
:1013C0003CD0670F781F891F9A1FA11D680F791FD6
:1013D0008A1F911DA11D6A0F711D811D911DA11DE7
:1013E00020D009F468943F912AE0269F11243019F7
:1013F000305D3193DEF6CF010895462F4770405D92
:101400004193B3E00FD0C9F7F6CF462F4F70405D40
:101410004A3318F0495D31FD4052419302D0A9F79B
:10142000EACFB4E0A6959795879577956795BA9595
:10143000C9F700976105710508959B01AC010A2E5B
:1014400006945795479537952795BA95C9F7620F32
:0E145000731F841F951FA01D0895F894FFCFF1
:10145E003E200025642069732061207072696D65DD
:10146E00206E756D6265722121210A00636F756EA3
:10147E00743D25640A002D2D3E2564200024200095
:10148E000A0D0920007072696D65006C6973740035
:10149E0074696D657200556E6B6E6F776E20636F3B
:1014AE006D6D616E642E2E2E006C6F676F75742CD1
:1014BE0020676F6F64206279652121212000000072
:1014CE000001000000000000CB020000000000023E
:1014DE0000000000D802000000002D2D3E256428DB
:1014EE0025642920003E3E200000003A0320000023
:00000001FF
