:100000000C9472000C9494000C9494000C94940042
:100010000C9494000C9494000C9494000C94940010
:100020000C9494000C9494000C9494000C94940000
:100030000C9494000C9494000C9494000C940D0671
:100040000C9494000C9494000C9494000C949400E0
:100050000C9494000C9494000C9494000C949400D0
:100060000C9494000C94F2060C9494000C94C30627
:100070000C9494000C94BF070C9494000C9494007E
:100080000C9494000C9494000C9494000C949400A0
:100090000C9494000C9494000C9494000C94940090
:1000A0000C9494000C9494000C9494000C94940080
:1000B0000C9494000C9494000C9494000C94940070
:1000C0000C9494000C9494000C9494000C94940060
:1000D0000C9494000C9494000C9494000C94940050
:1000E0000C94940011241FBECFEFD1E2DEBFCDBF30
:1000F00000E00CBF14E0A0E0B2E0E2EAF2E200E0CF
:100100000BBF02C007900D92A434B107D9F71BBEF4
:1001100015E0A4E4B4E001C01D92A638B107E1F7F0
:100120000E947C0B0C944F110C940000CF92DF9234
:10013000FF920F931F93CF93DF93CDB7DEB728972E
:100140000FB6F894DEBF0FBECDBF009719F0FC01CB
:10015000F08002C091E6F92E80E0C82E82E0D82E11
:100160000F920F92EDB7FEB7D282C1820E94F20DBC
:100170000F900F904091800550918105CE0101961E
:1001800068E070E00E94980D0097E9F00E94C102BB
:100190008C01CE0101960E94360DF8019183808377
:1001A000F8E6FF1621F084E7F81649F404C0C80108
:1001B0000E94C902D5CFC8010E94DE02D1CFC8017A
:1001C0000E94F202CDCF0E9429030E945603289676
:1001D0000FB6F894DEBF0FBECDBFDF91CF911F9158
:1001E0000F91FF90DF90CF900895CF93DF93FC01A4
:1001F00062E070E00E94A90BEB0122E030E008C051
:10020000CF01B9010E94A90B009741F02F5F3F4F2A
:10021000C217D307ACF781E090E002C080E090E025
:10022000DF91CF910895CF92DF92EF92FF920F93DB
:100230001F93CF93DF93009721F00E94360D7C012E
:1002400004C090EDE92E97E0F92EC2E0D0E000E086
:1002500010E083E0C82E82E0D82E16C0CE010E94A6
:10026000F500009781F00F5F1F4F00D00F92EDB7A0
:10027000FEB7D282C182D483C3830E94F20D0F9055
:100280000F900F900F902196EC16FD063CF700D0D2
:100290000F928CE192E0EDB7FEB7928381831483D5
:1002A00003830E94F20D0F900F900F900F90DF913B
:1002B000CF911F910F91FF90EF90DF90CF90089515
:1002C000CF92DF92EF92FF920F931F93CF93DF9322
:1002D000009741F0FC012081222321F00E94360D7D
:1002E0008C0102C000ED17E0EE24FF24C2E0D0E054
:1002F00023E0C22E22E0D22E17C0CE010E94F500CC
:10030000009789F00894E11CF11C00D00F92EDB722
:10031000FEB7D282C182D483C3830E94F20D0F90B4
:100320000F900F900F9021960C171D0734F700D0F7
:100330000F928CE192E0EDB7FEB792838183F48255
:10034000E3820E94F20D0F900F9086E292E0EDB7EB
:10035000FEB7928381830E94F20D0F900F90DF9180
:10036000CF911F910F91FF90EF90DF90CF90089564
:10037000009741F0FC012081222321F00E94360DDC
:100380009C0102C024E630E000D00F9289E292E0A6
:10039000EDB7FEB792838183A9014F5F5F4F429F04
:1003A000C001439F900D529F900D112462E070E0B8
:1003B0000E94A90B748363830E94F20D0F900F902B
:1003C0000F900F900895109294041092930410923D
:1003D0009204109291041092960410929504109237
:1003E000500410924F040895482F209195043091A5
:1003F00096042F5F3F4FC90160E470E00E94A90B93
:100400009C0180914F04909150042817390759F0AE
:10041000309396042093950429563B4FF90140836D
:1004200081E090E0089580E090E0089580914F048D
:100430009091500420919504309196042817390723
:1004400079F0019660E470E00E94A90B909350044B
:1004500080934F0489569B4FFC01808190E0089562
:1004600080E090E00895482F209193043091940407
:100470002F5F3F4FC90160E470E00E94A90B9C010F
:1004800080919104909192042817390759F0309384
:100490009404209393042F5A3B4FF901408381E049
:1004A00090E0089580E090E008958091910490910B
:1004B000920420919304309194042817390779F01D
:1004C000019660E470E00E94A90B909392048093DF
:1004D00091048F5A9B4FFC01808190E0089580E049
:1004E00090E0089580914F049091500420919504DC
:1004F000309196048217930759F0019660E470E0FA
:100500000E94A90B89569B4FFC01808190E00895C1
:1005100080E090E008958FEF80930B0180930A01B3
:10052000089510920B011092440408958FEF809368
:100530000B0180934404089521E030E002C0220FB3
:10054000331F8A95E2F72095809144042823209355
:10055000440420930B01089521E030E002C0220FF3
:10056000331F8A95E2F780914404822B80934404E0
:1005700080930B01089580958093440480930B0130
:10058000089584E090E00E94070C08950E949D0C5D
:100590000895FC018091450490914604009739F438
:1005A000F0934604E09345041382128208959383E6
:1005B0008283F0934604E09345040895E091450456
:1005C000F0914604309731F49093460480934504AB
:1005D0000895F9012281338121153105D1F79383E3
:1005E00082830895CF93DF93FC01209145043091DD
:1005F00046042115310531F040815181D901C0E017
:10060000D0E00FC090934604809345041382128279
:100610001DC012968D919C911397ED01009739F0B2
:10062000DC018D919C9111978417950794F3209785
:1006300039F433832283F0934604E093450406C0E3
:100640008A819B8193838283FB83EA83DF91CF91AD
:1006500008950F931F93CF93DF938AE090E00E9459
:10066000040EC0914504D091460401E312E013C08A
:1006700000D00F92EDB7FEB7128301838881998174
:10068000948383830E94F20D0A80DB81C02D0F903A
:100690000F900F900F90209759F78AE090E00E94FA
:1006A000040EDF91CF911F910F91089509C0FC01B5
:1006B0002281338130934604209345040E949D0C8F
:1006C0008091450490914604009789F7089510920F
:1006D000D8041092D70410927A05109279050895E3
:1006E000CF93DF93482FE92F8091D7049091D804BE
:1006F000C0917905D0917A05019620E130E0B901E9
:100700000E94A90B8C179D0731F18091D70490911D
:10071000D8040196B9010E94A90B9093D804809344
:10072000D7048091D7049091D804DC01AA0FBB1F95
:1007300063E0880F991F6A95E1F7A80FB91FA752C8
:10074000BB4FC42FDE2F8AE009900D928150E1F754
:1007500081E090E002C080E090E0DF91CF910895C9
:100760009C014091D7045091D804809179059091D3
:100770007A054817590731F18091790590917A05EA
:10078000019660E170E00E94A90B90937A05809336
:1007900079058091790590917A05FC01EE0FFF1F94
:1007A000A3E0880F991FAA95E1F7E80FF91FD90177
:1007B000E752FB4F8AE001900D928150E1F781E012
:1007C00090E0089580E090E00895EF92FF920F93FB
:1007D0001F93CF93DF937C0100E010E017C0E80186
:1007E000CC0FDD1FC80125E0880F991F2A95E1F77E
:1007F000C80FD91FC458DD4FC701BE010E94590D53
:10080000009711F4CE010BC00F5F1F4F80917A0249
:1008100090917B020817190714F380E090E0DF91B4
:10082000CF911F910F91FF90EF900895AF92BF92DB
:10083000CF92DF92EF92FF920F931F93CF93DF93AC
:10084000CDB7DEB7CA54D0400FB6F894DEBF0FBEA6
:10085000CDBF0E94C006009709F491C0CE010B964F
:100860000E94CC0D009729F48BE392E00E940B0EBE
:10087000FFCFCE010B9660E572E00E94540D8C0113
:1008800080E090E060E572E00E94540D7C0180E021
:1008900090E060E572E00E94540D6C0180E090E011
:1008A00060E572E00E94540D5C010115110559F4D8
:1008B0000F920F9285E592E0ADB7BEB712969C936A
:1008C0008E93119758C0C80168E572E00E94590DD7
:1008D000009791F5E114F10419F0C114D10429F441
:1008E0008EE592E00E940B0E3EC0C7010E94360DBD
:1008F0008C01C6010E94E503009719F1DC01909676
:100900008D919C9191979A838983CE010396A1142E
:10091000B10411F0B50102C069E772E00E94620DF6
:10092000F894C80160E071E00E94A90BCE01019625
:100930000E940805789417C0C8010E94E50300973B
:1009400029F486E692E00E940B0E19C0DC01909615
:10095000ED91FC919197C114D10411F0C70102C02F
:1009600089E792E019950F920F9285E592E0EDB735
:10097000FEB7928381830E94F20D0F900F90C65BA9
:10098000DF4F0FB6F894DEBF0FBECDBFDF91CF9122
:100990001F910F91FF90EF90DF90CF90BF90AF909D
:1009A00008951092B200E6EBF0E0808180628083CF
:1009B000E0E7F0E0808181608083E1EBF0E080811E
:1009C000816080838081826080830895CF93DF93EC
:1009D0000DC08C859D859093480480934704CE017B
:1009E00002960E947003CE010E949D0CC0914704A4
:1009F000D0914804209721F088819981009749F38C
:100A0000DF91CF9108958EE090E00E94070C089549
:100A1000EF92FF920F931F93CF93DF93F82EE92E5F
:100A20008B010E940305EC01DC011296EF2DFE2DD7
:100A30008AE001900D928150E1F719830883E091DB
:100A40004704F0914804309729F4D0934804C093A8
:100A500047042FC040E050E020E030E001C0FD013D
:100A600080819181280F391F2017310734F4A48524
:100A7000B585AF01109799F701C0DF014115510508
:100A800079F48D919C911197801B910B11969C93F9
:100A90008E93BD87AC87D0934804C093470424C08D
:100AA000109751F4021B130B19830883FA01D587A1
:100AB000C4871D861C8618C08D919C911197B90121
:100AC000681B790B9801261B370B398328838D917E
:100AD0009C911197821B930B11969C938E93FA0114
:100AE000D587C487BD87AC87DF91CF911F910F91C8
:100AF000FF90EF900895EF92FF920F931F93CF9383
:100B0000DF938AE090E00E94040EC0914704D091E8
:100B1000480400E010E082EEE82E82E0F82E20C0CB
:100B200088819981080F191F00D000D0EDB7FEB75A
:100B30003196ADB7BEB71296FC92EE9211979383A1
:100B40008283158304830E94F20D0C84DD85C02D01
:100B50008DB79EB706960FB6F8949EBF0FBE8DBF99
:100B60002097F1F68AE090E00E94040EDF91CF9189
:100B70001F910F91FF90EF90089509C0FC0124850B
:100B8000358530934804209347040E949D0C809142
:100B9000470490914804009789F708950F931F9395
:100BA000CF93DF93CDB7DEB762970FB6F894DEBF71
:100BB0000FBECDBF0DEE12E00F920F92EDB7FEB754
:100BC000128301830E94F20D0F900F9040918005D7
:100BD00050918105CE01019668E070E00E94980D69
:100BE000009761F0CE0101960E94360DBC0100977E
:100BF00029F0CE0109960E940805DECF0E947B05F0
:100C00000E94BD0562960FB6F894DEBF0FBECDBF41
:100C1000DF91CF911F910F9108951F920F920FB600
:100C20000F920BB60F9211242F933F934F935F9324
:100C30006F937F938F939F93AF93BF93EF93FF93A4
:100C4000E0914704F0914804309749F08081918108
:100C5000019791838083009711F40E94E604FF912D
:100C6000EF91BF91AF919F918F917F916F915F9124
:100C70004F913F912F910F900BBE0F900FBE0F9091
:100C80001F901895F8940E94160278948823D1F347
:100C9000843011F090E008958FEF9FEF0895CF9387
:100CA000C82F8A3019F48DE00E944F06F894809185
:100CB0007B05882359F4C093C60081E080937B05AF
:100CC0000AC0789486EF8A95F1F7F8948C2F0E94E9
:100CD00033020097B1F3789481E090E0CF910895CA
:100CE00082EF92E0909381058093800580E093E00D
:100CF000909383058093820510927B050E94E30107
:100D00001092C50087E08093C400E0ECF0E08081A1
:100D100082608083E1ECF0E0808188608083808164
:100D2000806480838081806180838081806880830B
:100D30000895CF93C82F8A3019F48DE00E94990648
:100D40008091C00085FFFCCFC093C60081E090E099
:100D5000CF910895CF93C82F8A3019F48DE00E9467
:100D6000AA0680917B05882331F4C093C60081E0F8
:100D700080937B0503C08C2F0E943302CF9108958E
:100D80000E94720208951F920F920FB60F920BB637
:100D90000F9211242F933F934F935F936F937F9301
:100DA0008F939F93AF93BF93EF93FF930E9455024E
:100DB000882319F410927B0502C08093C600FF912E
:100DC000EF91BF91AF919F918F917F916F915F91C3
:100DD0004F913F912F910F900BBE0F900FBE0F9030
:100DE0001F9018951F920F920FB60F920BB60F928D
:100DF00011241F932F933F934F935F936F937F9390
:100E00008F939F93AF93BF93EF93FF93CF93DF9312
:100E1000CDB7DEB72A97DEBFCDBF1091C6001B311C
:100E200061F480910E0390910F0301968170907090
:100E300090930F0380930E0324C0143069F01D308B
:100E400009F41AE020910E0330910F0321153105AA
:100E500019F0812F0E94AA06812F0E94F4011430FC
:100E600011F01A3071F486E194E09A838983CE01FF
:100E7000039661EF72E00E94620DCE0101960E941E
:100E800070032A96DEBFCDBFDF91CF91FF91EF9126
:100E9000BF91AF919F918F917F916F915F914F9192
:100EA0003F912F911F910F900BBE0F900FBE0F908F
:100EB0001F901895809880E880937C000895EAE759
:100EC000F0E08081806880838DED90E00197F1F7FC
:100ED0008081886080838081806480830895FC01A4
:100EE0002081222319F50E945F0781E090E0909312
:100EF0004A04809349048091490490914A040097E0
:100F0000D1F700D00F9280E193E0EDB7FEB7928366
:100F1000818380914B0490914C04948383830E943D
:100F2000F20D0F900F900F900F9008950E94360DC4
:100F30009C01B901882777FD8095982F0E9421098F
:100F400029E030EF4CE85AE30E94200820E030E02E
:100F50004AE754E40E9420080E949809DC01CB0172
:100F6000845F91406AE070E00E94A90B70934C048A
:100F700060934B0410924A041092490408951F9202
:100F80000F920FB60F920BB60F9211240F931F936F
:100F90002F933F934F935F936F937F938F939F9381
:100FA000AF93BF93EF93FF93CF93DF93CDB7DEB7AC
:100FB0002897DEBFCDBF8091780090917900EAE755
:100FC000F0E020812F77208300D000D0EDB7FEB76E
:100FD00031968E010F5F1F4FADB7BEB712961C93AF
:100FE0000E93119723E333E0338322839370958329
:100FF00084830E94390E8DB79EB706960FB6F8947B
:101000009EBF0FBE8DBFC8010E946F072896DEBF2E
:10101000CDBFDF91CF91FF91EF91BF91AF919F91A4
:101020008F917F916F915F914F913F912F911F9180
:101030000F910F900BBE0F900FBE0F901F90189541
:10104000A0E2B0E0E6E2F8E00C94D20BDC01CB01C8
:101050008D839E83AF83B88729833A834B835C83D8
:10106000CE010596BE01675E7F4F0E94130BCE0135
:101070000196BE016F5E7F4F0E94130B998D9230D7
:1010800078F089898230C0F0943019F4823041F4CC
:10109000CAC0843019F4923079F4C5C0923051F44A
:1010A00081E02A8D9A89291709F480E08A8FCE0180
:1010B0004996BBC0823051F481E02A8D9A89291764
:1010C00009F480E08A8BCE014196AFC04D8C5E8CD6
:1010D0006F8C78A00D891E892F89388DE0E2F0E0B1
:1010E00040E050E0BA01882499245401CC24DD2446
:1010F0007601C201817090700097D1F0C00ED11EB0
:10110000E21EF31EDB01CA01880D991DAA1DBB1D3D
:1011100041E050E060E070E0C016D106E206F30660
:1011200018F040E050E0BA01480F591F6A1F7B1FBA
:10113000880C991CAA1CBB1C37FF08C081E090E0FA
:10114000A0E0B0E0882A992AAA2ABB2A000F111F22
:10115000221F331F7694679457944794319749F62A
:101160008B8D9C8D2B893C89820F931F02969C87C7
:101170008B8781E02A8D9A89291709F480E08A8774
:101180002B853C8517C0CA0181709070009761F073
:10119000F694E794D794C79480E090E0A0E0B0E89C
:1011A000C82AD92AEA2AFB2A769567955795479542
:1011B0002F5F3F4F77FDE7CFC9010BC0440F551F8D
:1011C000661F771FF7FC4160CC0CDD1CEE1CFF1C7A
:1011D00001974030A0E05A07A0E06A07A0E47A0730
:1011E00068F38B879C87DB01CA018F779070A070B2
:1011F000B07080349105A105B10561F447FD0AC0C6
:10120000C114D104E104F10429F0405C5F4F6F4F39
:101210007F4F40784D875E876F87788B83E0898723
:10122000CE01099602C086E393E00E943C0A462F55
:10123000572F682F792FCB01BA01A096E0E10C94CB
:10124000EE0BCF92DF92EF92FF92CF93DF93CDB769
:10125000DEB728970FB6F894DEBF0FBECDBF6B0187
:101260007C0183E08983D701C6018827B7FD839578
:101270009927AA27BB27282F8A83C114D104E10408
:10128000F10419F482E0898335C08EE190E09C83FB
:101290008B83222389F080E0C81680E0D80680E0A6
:1012A000E80680E8F80659F1F094E094D094C094F0
:1012B000C11CD11CE11CF11CCD82DE82EF82F886BC
:1012C000C701B6010E94E90901971816190694F49E
:1012D000082E04C0CC0CDD1CEE1CFF1C0A94D2F7B7
:1012E000CD82DE82EF82F8862EE130E0281B390BBA
:1012F0003C832B83CE0101960E943C0A04C060E02F
:1013000070E080E09FEC382F292F862F972FA32F96
:10131000B22FBC01CD0128960FB6F894DEBF0FBEE8
:10132000CDBFDF91CF91FF90EF90DF90CF900895E8
:10133000ACE0B0E0EEE9F9E00C94DE0BDC01CB01AF
:1013400089839A83AB83BC83CE010196BE016B5F18
:101350007F4F0E94130B8D81823069F1823058F1EA
:10136000843039F02F81388537FD25C02F31310584
:1013700044F08E81882319F100E010E020E030E88D
:1013800022C08EE190E0821B930B09851A852B8584
:101390003C8504C036952795179507958A95D2F711
:1013A0008E81882381F030952095109501951F4FEF
:1013B0002F4F3F4F08C000E010E0980104C00FEF2E
:1013C0001FEF2FEF3FE7B801C9012C96E4E00C9422
:1013D000FA0BCF92DF92EF92FF920F931F938B0144
:1013E0009C01003080E0180781E0280780E0380782
:1013F00050F40F3F11052105310509F088F480E014
:1014000090E0DC0116C00030E0E01E07E0E02E07AF
:10141000E1E03E0750F480E190E0A0E0B0E009C0D8
:1014200088E090E0A0E0B0E004C088E190E0A0E0B7
:10143000B0E040E250E060E070E0481B590B6A0BFE
:101440007B0B6801790104C0F694E794D794C794A4
:101450008A95D2F7D701C601825C9C4FFC0180813E
:10146000481B510961097109CA011F910F91FF9031
:10147000EF90DF90CF900895CF92DF92EF92FF929E
:101480000F931F93DC0114964D915D916D917C91AA
:1014900017971196EC9111978C91823020F460612E
:1014A0008FEF90E0A5C0843009F49DC0823009F42C
:1014B00094C0411551056105710509F491C012965A
:1014C0008D919C9113972FEF823892070CF059C0A1
:1014D00022E83FEF281B390B2A31310564F56A01F8
:1014E0007B01022E04C0F694E794D794C7940A9423
:1014F000D2F781E090E0A0E0B0E004C0880F991F2F
:10150000AA1FBB1F2A95D2F70197A109B10984230D
:101510009523A623B72341E050E060E070E00097F8
:10152000A105B10519F440E050E0BA014C295D294C
:101530006E297F2903C040E050E0BA01DB01CA01F7
:101540008F779070A070B07080349105A105B105BF
:1015500039F447FF09C0405C5F4F6F4F7F4F04C0B5
:10156000415C5F4F6F4F7F4F81E090E0403020E063
:10157000520720E0620720E4720738F580E090E02F
:1015800024C0803891057CF58A019B010F7710708B
:1015900020703070003411052105310539F447FF02
:1015A00009C0405C5F4F6F4F7F4F04C0415C5F4F8D
:1015B0006F4F7F4F77FD03C081589F4F06C07695D0
:1015C00067955795479580589F4F97E07695679513
:1015D000579547959A95D1F70BC080E090E005C0EC
:1015E00080E090E005C08FEF90E040E050E0BA016D
:1015F000982F979599279795A62FAF77E795EE2780
:10160000E79586953A2F392B282F2E2B842F952F4F
:10161000A32FB22FBC01CD011F910F91FF90EF902E
:10162000DF90CF900895DC01FB014C9111965C9105
:10163000119712968C911297682F6F7770E0982F00
:10164000991F9927991F13962C911397822F880F12
:10165000892B90E0221F2227221F2183009739F532
:10166000411551056105710511F482E029C082E838
:101670009FEF9383828327E0440F551F661F771FD8
:101680002A95D1F783E0808309C0440F551F661F58
:10169000771F82819381019793838283403080E01A
:1016A000580780E0680780E4780778F320C08F3F10
:1016B000910579F4411551056105710519F484E02E
:1016C0008083089564FF03C081E0808310C010828E
:1016D0000EC08F5790409383828383E0808387E09E
:1016E000440F551F661F771F8A95D1F77064448396
:1016F0005583668377830895CF93DF93CDB7DEB7A5
:101700002A970FB6F894DEBF0FBECDBF78940E9423
:1017100070060E9467030E94D1040E945A070F922C
:101720000F9288E392E0EDB7FEB7928381830E9427
:10173000F20D0F900F90F894CE0101960E94B00325
:1017400078940097C1F3E981FA81CE010396199547
:10175000F2CF97FB092E07260AD077FD04D00CD0D4
:1017600006D000201AF4709561957F4F0895F6F722
:10177000909581959F4F0895AA1BBB1B51E107C00F
:10178000AA1FBB1FA617B70710F0A61BB70B881F11
:10179000991F5A95A9F780959095BC01CD010895A0
:1017A0002F923F924F925F926F927F928F929F9271
:1017B000AF92BF92CF92DF92EF92FF920F931F935F
:1017C000CF93DF93CDB7DEB7CA1BDB0B0FB6F89410
:1017D000DEBF0FBECDBF19942A88398848885F8440
:1017E0006E847D848C849B84AA84B984C884DF80C1
:1017F000EE80FD800C811B81AA81B981CE0FD11DA5
:101800000FB6F894DEBF0FBECDBFED010895CF93A4
:10181000DF93AC018230910510F442E050E0E0919A
:101820007E05F0917F0520E030E0A0E0B0E024C02C
:101830008081918184179507D0F08417950771F402
:1018400082819381109729F013969C938E9312971F
:101850002CC090937F0580937E0527C0211531050C
:1018600019F08217930718F49C01BD01EF019281D2
:101870008381DF01E92FF82F3097D1F6211531054B
:10188000F9F0C901841B950B8430910580F48A819D
:101890009B816115710521F0FB019383828304C054
:1018A00090937F0580937E05FE01329642C0FE0133
:1018B000E80FF91F4193519302979983888339C0A8
:1018C00080917C0590917D05009741F480914004C2
:1018D0009091410490937D0580937C0520913E0476
:1018E00030913F042115310541F42DB73EB7809169
:1018F000420490914304281B390BE0917C05F09140
:101900007D05E217F30798F42E1B3F0B24173507CC
:1019100070F0CA0102962817390748F08E0F9F1FF2
:1019200090937D0580937C054193519302C0E0E044
:10193000F0E0CF01DF91CF9108950F931F93CF93E4
:10194000DF939C01009709F48CC0DC011297139679
:101950001C921E92129760917E0570917F05611511
:10196000710589F48D919C911197820F931F20919D
:101970007C0530917D052817390769F5B0937D0501
:10198000A0937C056EC0FB0140E050E001C0FC016B
:10199000EA17FB0730F482819381AF010097B9F712
:1019A0001FC0E9012297FB83EA8308811981C901DD
:1019B000800F911F8E179F0759F480819181800FAE
:1019C000911F029699838883828193819B838A8366
:1019D0004115510529F4B0937F05A0937E0541C0C0
:1019E000FA01B383A283C191D191EC0FFD1FAE1711
:1019F000BF0781F4F901929182918C0F9D1F02968D
:101A0000DA0111969C938E938281938113969C9315
:101A10008E931297E0E0F0E002C0FB01BC01DB0115
:101A200012968D919C9113970097B9F7CB0102966E
:101A30002D913C911197820F931F20917C0530913D
:101A40007D052817390769F4309729F410927F052E
:101A500010927E0502C01382128270937D056093FE
:101A60007C05DF91CF911F910F910895FC0188278C
:101A70009927E89421912032E9F3293010F02E3093
:101A8000C8F32B3241F02D3239F4689404C00E941F
:101A9000900D820F911D219120532A30C0F31EF426
:101AA000909581959F4F08954DE454E00E94690DF3
:101AB0000895FB01DC018D91019080190110D9F38B
:101AC000990B0895FB01DC0101900D920020E1F7D4
:101AD0000895FA01A191B081009719F41097E1F0EF
:101AE000CD01DC01CD010D90002011F4C00113C027
:101AF000FB012191222319F02015D9F7F3CFFB0127
:101B00002191201519F41E92119606C02223C1F7C7
:101B10000D900020A1F7D001FA01A193B0830895A0
:101B20007AE0979F902D879F802D910D1124089525
:101B3000CF92DF92EF92FF920F931F93CF93DF9399
:101B40008C016A01FA01838180FF1AC016161706FC
:101B5000BCF47B01E8010EC0C6010E948510FFEFB6
:101B60008F3F9F0769F089930894E108F1088A3054
:101B7000910521F021E0E216F10471F7188202C00C
:101B800000E010E0C801DF91CF911F910F91FF900D
:101B9000EF90DF90CF9008950F931F93CF93DF9333
:101BA0008C01E0918005F0918105838180FF12C056
:101BB000E80180918005909181050E9485102FEFAA
:101BC0008F3F920739F089938A30910591F72197D9
:101BD000188202C000E010E0C801DF91CF911F9190
:101BE0000F910895CF93DF93CDB7DEB7FE01369600
:101BF000619171918091820590918305AF010E945E
:101C0000680EDF91CF9108956091820570918305F0
:101C10000E94C51008950F931F93CF93DF938C01FB
:101C2000E0918205F0918305838181FF1AC0C0E0B5
:101C3000D0E005C01995009711F0CFEFDFEFF80164
:101C400081918F016091820570918305DB01189667
:101C5000ED91FC911997882369F78AE0199500970F
:101C600011F0CFEFDFEFCE01DF91CF911F910F91F8
:101C700008950F931F93CF93DF93CDB7DEB72E97C1
:101C80000FB6F894DEBF0FBECDBF0E891F8986E068
:101C90008C831A8309838FEF9FE79E838D83AE0128
:101CA000465E5F4FCE010196688D798D0E94680E69
:101CB000EF81F885E00FF11F10822E960FB6F89491
:101CC000DEBF0FBECDBFDF91CF911F910F91089561
:101CD0002F923F924F925F926F927F928F929F923C
:101CE000AF92BF92CF92DF92EF92FF920F931F932A
:101CF000CF93DF93CDB7DEB72D970FB6F894DEBF45
:101D00000FBECDBF3C017D876C875A01FC01178255
:101D10001682838181FFC8C12E010894411C511C89
:101D2000F3019381EC85FD8593FD859193FF81916E
:101D3000FD87EC87882309F4B3C1853241F493FD14
:101D4000859193FF8191FD87EC87853229F490E09E
:101D5000B3010E94C510E4CFFF24EE2410E010323E
:101D6000B0F48B3269F08C3228F4803251F0833237
:101D700071F40BC08D3239F0803349F411602CC0FE
:101D80001260146029C0186027C0106125C017FDBB
:101D90002EC0282F20532A3098F416FF08C08F2D0C
:101DA000880FF82EFF0CFF0CF80EF20E15C08E2DCA
:101DB000880FE82EEE0CEE0CE80EE20E10620CC05E
:101DC0008E3221F416FD6CC1106406C08C3611F4FD
:101DD000106802C0883659F4EC85FD8593FD859125
:101DE00093FF8191FD87EC87882309F0B8CF982F66
:101DF0009554933018F09052933038F424E030E04A
:101E0000A20EB31E3FE339830FC0833631F0833710
:101E100081F0833509F05AC022C0F50180818983A1
:101E200022E030E0A20EB31E21E0C22ED12C4201EE
:101E300014C092E0292E312C2A0C3B1CF501808025
:101E4000918016FF03C06F2D70E002C06FEF7FEF2F
:101E5000C4010E947A106C0151011F7715C082E005
:101E6000282E312C2A0C3B1CF5018080918016FF16
:101E700003C06F2D70E002C06FEF7FEFC4010E94BE
:101E80006F106C011068510113FD1CC006C080E288
:101E900090E0B3010E94C510EA948E2D90E0C81620
:101EA000D906A8F30FC0F40117FD859117FF8191A2
:101EB0004F0190E0B3010E94C510E110EA9408942C
:101EC000C108D108C114D10471F7E7C0843611F0FC
:101ED000893651F5F50117FF07C080819181A281F4
:101EE000B38124E030E008C080819181AA2797FD6A
:101EF000A095BA2F22E030E0A20EB31E012F0F767C
:101F0000B7FF08C0B095A095909581959F4FAF4FB2
:101F1000BF4F0068BC01CD01A2012AE030E00E9461
:101F2000F110D82ED4183FC0853721F41F7E2AE047
:101F300030E020C0197F8F36A9F0803720F4883533
:101F400009F0AEC00BC0803721F0883709F0A8C077
:101F500001C0106114FF09C0146007C014FF08C05D
:101F6000166006C028E030E005C020E130E002C085
:101F700020E132E0F50117FF07C0608171818281A5
:101F8000938144E050E006C06081718180E090E080
:101F900042E050E0A40EB51EA2010E94F110D82E1E
:101FA000D418012F0F7706FF09C00E7FDF1430F41D
:101FB00004FF06C002FD04C00F7E02C01D2D01C03B
:101FC0001F2D802F90E004FF0CC0FE01ED0DF11DD0
:101FD0002081203311F4097E09C002FF06C01E5F74
:101FE00005C086789070009709F01F5F802E9924B5
:101FF00003FD12C000FF0DC0FD2C1E1550F4FE0C99
:10200000F11A1E2D06C080E290E0B3010E94C510B7
:102010001F5F1E15C0F304C01E1510F4E11A01C0A5
:10202000EE2484FE0FC080E390E0B3010E94C5104F
:1020300082FE1FC081FE03C088E590E010C088E7E3
:1020400090E00DC0C40186789070009791F081FCFB
:1020500002C080E201C08BE207FD8DE290E0B30197
:102060000E94C51006C080E390E0B3010E94C51035
:10207000FA94DF14C0F3DA94F201ED0DF11D8081C2
:1020800090E0B3010E94C510DD20A9F706C080E2F0
:1020900090E0B3010E94C510EA94EE20C1F740CE53
:1020A000F3018681978102C08FEF9FEF2D960FB6C7
:1020B000F894DEBF0FBECDBFDF91CF911F910F917E
:1020C000FF90EF90DF90CF90BF90AF909F908F9058
:1020D0007F906F905F904F903F902F900895FC01FC
:1020E0000590615070400110D8F7809590958E0F43
:1020F0009F1F0895FC016150704001900110D8F7B6
:10210000809590958E0F9F1F0895CF93DF93EC01DC
:102110002B8120FF35C026FF09C02F7B2B838E81AA
:102120009F8101969F838E838A8128C022FF0FC0E2
:10213000E881F9818081992787FD9095009719F4AE
:1021400020622B831DC03196F983E88311C0EA8594
:10215000FB85CE01199597FF0BC02B813FEF8F3F79
:10216000930711F480E101C080E2822B8B8308C0C9
:102170002E813F812F5F3F4F3F832E8390E002C02F
:102180008FEF9FEFDF91CF9108950F931F93CF9320
:10219000DF938C01EB018B8181FF1BC082FF0DC09F
:1021A0002E813F818C819D812817390764F4E88155
:1021B000F9810193F983E88306C0E885F985802FCA
:1021C0001995009731F48E819F8101969F838E83AC
:1021D00002C00FEF1FEFC801DF91CF911F910F9148
:1021E0000895FA01AA27283051F1203181F1E894AD
:1021F0006F936E7F6E5F7F4F8F4F9F4FAF4FB1E0FA
:102200003ED0B4E03CD0670F781F891F9A1FA11DF4
:10221000680F791F8A1F911DA11D6A0F711D811DF5
:10222000911DA11D20D009F468943F912AE0269FBA
:1022300011243019305D3193DEF6CF010895462F19
:102240004770405D4193B3E00FD0C9F7F6CF462FFA
:102250004F70405D4A3318F0495D31FD4052419363
:1022600002D0A9F7EACFB4E0A69597958795779520
:102270006795BA95C9F700976105710508959B01A7
:10228000AC010A2E06945795479537952795BA9530
:10229000C9F7620F731F841F951FA01D0895F8943E
:0222A000FFCF6E
:1022A2003E200025642069732061207072696D658B
:1022B200206E756D6265722121210A00636F756E51
:1022C200743D25640A0024200073756D3D25640A5F
:1022D200002D2D3E256420002420006C6F676F7551
:1022E200742C20676F6F64206279652021212100A0
:1022F20020090A0D0024200074696D6572002121F5
:10230200212D32323200556E6B6E6F776E20636F05
:102312006D6D616E642E2E2E000003007072696D69
:102322006500000000000000000000000000000046
:102332000000000000000000000000006001737552
:102342006D0000000000000000000000000000001E
:102352000000000000000000000000000000B801C2
:1023620074633130343700000000000000000000C8
:10237200000000000000000000000000000000005B
:102382006F072D2D3E25642825642920003E3E201E
:1023920000000000000100000000000042060000F2
:1023A20000000002000000004F06000000000100D3
:1023B2004375727272656E742074656D70657274A5
:1023C200757265206973202564206465677265658E
:1023D2002E0A002564000000000000000000000139
:1023E20002020303030304040404040404040505B1
:1023F2000505050505050505050505050505060689
:10240200060606060606060606060606060606066A
:102412000606060606060606060606060606070758
:10242200070707070707070707070707070707073A
:10243200070707070707070707070707070707072A
:10244200070707070707070707070707070707071A
:102452000707070707070707070707070707080808
:1024620008080808080808080808080808080808EA
:1024720008080808080808080808080808080808DA
:1024820008080808080808080808080808080808CA
:1024920008080808080808080808080808080808BA
:1024A20008080808080808080808080808080808AA
:1024B200080808080808080808080808080808089A
:1024C200080808080808080808080808080808088A
:1024D200080808080808080808080808080800008A
:0424E200860520004B
:00000001FF
