:100000000C949F000C94C1000C94C1000C94C1008E
:100010000C94C1000C94C1000C94C1000C94C1005C
:100020000C94C1000C94C1000C94C1000C94C1004C
:100030000C94C1000C94C1000C94C1000C94C1003C
:100040000C94C1000C94C1000C94C1000C94C1002C
:100050000C94C1000C94C1000C94C1000C94C1001C
:100060000C94C1000C94C1000C94C1000C941B01B1
:100070000C94C1000C94C1000C94C1000C94C100FC
:100080000C94C1000C94C1000C94C1000C94C100EC
:100090000C94C1000C94C1000C94C1000C94C100DC
:1000A0000C94C1000C94C1000C94C1000C94C100CC
:1000B0000C94C1000C94C1000C94C1000C94C100BC
:1000C0000C94C1000C94C1000C94C1000C94C100AC
:1000D0000C94C1000C94C1000C94C1000C94C1009C
:1000E0000C94C10008000000BE922449123EABAA45
:1000F000AA2ABECDCCCC4C3E00000080BEABAAAA42
:10010000AA3E00000000BF000000803F0000000089
:1001100000084178D3BB4387D1133D190E3CC3BDC2
:100120004282AD2B3E68EC8276BED98FE1A93E4C6F
:1001300080EFFFBE01C4FF7F3F00000000001124DC
:100140001FBECFEFD1E2DEBFCDBF00E00CBF13E09A
:10015000A0E0B2E0E2EAF2E100E00BBF02C00790EB
:100160000D92A431B107D9F71BBE13E0A4E1B3E0AF
:1001700001C01D92A735B107E1F70E94EC030C9472
:100180004F090C9400001092C50087E08093C400D2
:10019000E0ECF0E0808182608083E1ECF0E080813F
:1001A000886080838081806480830895CF93DF930B
:1001B000BC01C7E1D3E0809117038823B9F0FE01A9
:1001C00001900020E9F7AF01FB0101900020E9F761
:1001D0003197E61BF70B28E533E0241B350BE217BC
:1001E000F30720F4CE010E948F0422C02091110257
:1001F0003091120221153105C9F3109212021092AA
:10020000110287E193E00E949A0410921603109263
:1002100015038091150390911603FC01E95EFC4FD4
:100220002081019690931603809315032093C600B6
:10023000DF91CF9108951F920F920FB60F920BB6D8
:100240000F9211242F938F939F93EF93FF93E0913D
:100250001503F0911603E95EFC4F2081222349F437
:1002600081E090E0909312028093110210921703A4
:1002700016C02A3049F4E0911503F0911603E95EA7
:10028000FC4F8DE0808309C0809115039091160387
:10029000019690931603809315032093C600FF9157
:1002A000EF919F918F912F910F900BBE0F900FBEEA
:1002B0000F901F9018958FEF80930B0180930A0188
:1002C000089510920B011092140308958FEF8093FC
:1002D0000B0180931403089521E030E002C0220F47
:1002E000331F8A95E2F720958091140328232093E9
:1002F000140320930B01089521E030E002C0220F87
:10030000331F8A95E2F780911403822B80931403A4
:1003100080930B01089580958093140380930B01C3
:100320000895CF92DF92EF92FF92CF93DF93CDB7F4
:10033000DEB728970FB6F894DEBF0FBECDBF6B01B6
:100340007C0183E08983D701C6018827B7FD8395A7
:100350009927AA27BB27282F8A83C114D104E10437
:10036000F10419F482E0898335C08EE190E09C832A
:100370008B83222389F080E0C81680E0D80680E0D5
:10038000E80680E8F80659F1F094E094D094C0941F
:10039000C11CD11CE11CF11CCD82DE82EF82F886EB
:1003A000C701B6010E94590201971816190694F464
:1003B000082E04C0CC0CDD1CEE1CFF1C0A94D2F7E6
:1003C000CD82DE82EF82F8862EE130E0281B390BE9
:1003D0003C832B83CE0101960E94AC0204C060E0F6
:1003E00070E080E09FEC382F292F862F972FA32FC6
:1003F000B22FBC01CD0128960FB6F894DEBF0FBE18
:10040000CDBFDF91CF91FF90EF90DF90CF90089517
:10041000ACE0B0E0EEE0F2E00C946604DC01CB016D
:1004200089839A83AB83BC83CE010196BE016B5F47
:100430007F4F0E9483038D81823069F1823058F1B1
:10044000843039F02F81388537FD25C02F313105B3
:1004500044F08E81882319F100E010E020E030E8BC
:1004600022C08EE190E0821B930B09851A852B85B3
:100470003C8504C036952795179507958A95D2F740
:100480008E81882381F030952095109501951F4F1E
:100490002F4F3F4F08C000E010E0980104C00FEF5D
:1004A0001FEF2FEF3FE7B801C9012C96E4E00C9451
:1004B0008204CF92DF92EF92FF920F931F938B01F2
:1004C0009C01003080E0180781E0280780E03807B1
:1004D00050F40F3F11052105310509F088F480E043
:1004E00090E0DC0116C00030E0E01E07E0E02E07DF
:1004F000E1E03E0750F480E190E0A0E0B0E009C008
:1005000088E090E0A0E0B0E004C088E190E0A0E0E6
:10051000B0E040E250E060E070E0481B590B6A0B2D
:100520007B0B6801790104C0F694E794D794C794D3
:100530008A95D2F7D701C6018D5E9D4FFC0180815F
:10054000481B510961097109CA011F910F91FF9060
:10055000EF90DF90CF900895CF92DF92EF92FF92CD
:100560000F931F93DC0114964D915D916D917C91D9
:1005700017971196EC9111978C91823020F460615D
:100580008FEF90E0A5C0843009F49DC0823009F45B
:1005900094C0411551056105710509F491C0129689
:1005A0008D919C9113972FEF823892070CF059C0D0
:1005B00022E83FEF281B390B2A31310564F56A0127
:1005C0007B01022E04C0F694E794D794C7940A9452
:1005D000D2F781E090E0A0E0B0E004C0880F991F5E
:1005E000AA1FBB1F2A95D2F70197A109B10984233D
:1005F0009523A623B72341E050E060E070E0009728
:10060000A105B10519F440E050E0BA014C295D297B
:100610006E297F2903C040E050E0BA01DB01CA0126
:100620008F779070A070B07080349105A105B105EE
:1006300039F447FF09C0405C5F4F6F4F7F4F04C0E4
:10064000415C5F4F6F4F7F4F81E090E0403020E092
:10065000520720E0620720E4720738F580E090E05E
:1006600024C0803891057CF58A019B010F771070BA
:1006700020703070003411052105310539F447FF31
:1006800009C0405C5F4F6F4F7F4F04C0415C5F4FBC
:100690006F4F7F4F77FD03C081589F4F06C07695FF
:1006A00067955795479580589F4F97E07695679542
:1006B000579547959A95D1F70BC080E090E005C01B
:1006C00080E090E005C08FEF90E040E050E0BA019C
:1006D000982F979599279795A62FAF77E795EE27AF
:1006E000E79586953A2F392B282F2E2B842F952F7F
:1006F000A32FB22FBC01CD011F910F91FF90EF905E
:10070000DF90CF900895DC01FB014C9111965C9134
:10071000119712968C911297682F6F7770E0982F2F
:10072000991F9927991F13962C911397822F880F41
:10073000892B90E0221F2227221F2183009739F561
:10074000411551056105710511F482E029C082E867
:100750009FEF9383828327E0440F551F661F771F07
:100760002A95D1F783E0808309C0440F551F661F87
:10077000771F82819381019793838283403080E049
:10078000580780E0680780E4780778F320C08F3F3F
:10079000910579F4411551056105710519F484E05D
:1007A0008083089564FF03C081E0808310C01082BD
:1007B0000EC08F5790409383828383E0808387E0CD
:1007C000440F551F661F771F8A95D1F770644483C5
:1007D0005583668377830895CF93DF93CDB7DEB7D4
:1007E000C054D0400FB6F894DEBF0FBECDBF789492
:1007F0000E945B010E94C30000E010E02E010894FB
:10080000411C511C80E0282E82E0382EB801882738
:1008100077FD8095982F0E9491016B017C010E94C9
:100820007A054B015C01C701B6010E94D5046B013A
:100830007C018DB79EB708970FB6F8949EBF0FBE88
:100840008DBF6DB67EB60894611C711CEDB7FEB706
:1008500052824182F30133822282C501B4010E9497
:100860000802DC01CB01F30195838483C701B60143
:100870000E940802DC01CB01F301978386830E946A
:10088000A1048DB79EB708960FB6F8949EBF0FBE11
:100890008DBFC2010E94D6000F5F1F4F97E200314B
:1008A000190709F0B3CF88E092E00E94D600FFCF8D
:1008B0002F923F924F925F926F927F928F929F9270
:1008C000AF92BF92CF92DF92EF92FF920F931F935E
:1008D000CF93DF93CDB7DEB7CA1BDB0B0FB6F8940F
:1008E000DEBF0FBECDBF19942A88398848885F843F
:1008F0006E847D848C849B84AA84B984C884DF80C0
:10090000EE80FD800C811B81AA81B981CE0FD11DA3
:100910000FB6F894DEBF0FBECDBFED010895FB0109
:10092000DC010D900020E9F7119701900D92002055
:10093000E1F70895FB01DC0101900D920020E1F741
:1009400008950F931F93CF93DF93CDB7DEB72E9704
:100950000FB6F894DEBF0FBECDBF0E891F8986E0AB
:100960008C831A8309838FEF9FE79E838D83AE016B
:10097000465E5F4FCE010196688D798D0E94B80565
:10098000EF81F885E00FF11F10822E960FB6F894D4
:10099000DEBF0FBECDBFDF91CF911F910F910895A4
:1009A0000EF0F8C305C46894EFC358D4C8F3992374
:1009B000D1F3C6F3DF93CF931F930F93FF92C92F09
:1009C000DD2788232AF02197660F771F881FDAF723
:1009D00020E030E040E85FEB9FE3883920F0803E84
:1009E00030F021968F776CD3E4EEF0E003C068D34B
:1009F000E1E1F1E0E7D38B01BE01EC01FB2E6F5783
:100A000071097595771F880B990B8BDC28E132E70C
:100A100041E35FE314D0AF2D9801AE01FF900F9139
:100A20001F91CF91DF915DD300C4F1D328F0F6D3AD
:100A300018F0952309F0A8C3BBC311242AC406D417
:100A4000A0F3959FD1F3950F50E0551F629FF001E1
:100A5000729FBB27F00DB11D639FAA27F00DB11D3A
:100A6000AA1F649F6627B00DA11D661F829F2227C3
:100A7000B00DA11D621F739FB00DA11D621F839F4A
:100A8000A00D611D221F749F3327A00D611D231F20
:100A9000849F600D211D822F762F6A2F11249F576E
:100AA00050408AF0E1F088234AF0EE0FFF1FBB1F91
:100AB000661F771F881F91505040A9F79E3F510530
:100AC00070F062C3E6C35F3FECF3983EDCF38695BB
:100AD00077956795B795F795E7959F5FC1F7FE2BDB
:100AE000880F911D9695879597F9089511F40EF446
:100AF0005FC350C3B3D3D0F39923D9F3CEF39F5739
:100B0000550B87FF58D30024A0E640EA9001805897
:100B10005695979528F4805C660F771F881F20F004
:100B200026173707480730F4621B730B840B202904
:100B300031294A2BA69517940794202531254A2759
:100B400058F7660F771F881F20F0261737074807CA
:100B500030F4620B730B840B200D311D411DA095E9
:100B600081F7B901842F9158880F9695879508953C
:100B70002F923F924F925F926F927F928F929F92AD
:100B8000AF92BF92CF92DF92EF92FF920F931F939B
:100B9000CF93DF93CDB7DEB72D970FB6F894DEBFB6
:100BA0000FBECDBF3C017D876C875A01FC011782C7
:100BB0001682838181FFC8C12E010894411C511CFB
:100BC000F3019381EC85FD8593FD859193FF8191E0
:100BD000FD87EC87882309F4B3C1853241F493FD86
:100BE000859193FF8191FD87EC87853229F490E010
:100BF000B3010E94D507E4CFFF24EE2410E01032A9
:100C0000B0F48B3269F08C3228F4803251F08332A8
:100C100071F40BC08D3239F0803349F411602CC06F
:100C20001260146029C0186027C0106125C017FD2C
:100C30002EC0282F20532A3098F416FF08C08F2D7D
:100C4000880FF82EFF0CFF0CF80EF20E15C08E2D3B
:100C5000880FE82EEE0CEE0CE80EE20E10620CC0CF
:100C60008E3221F416FD6CC1106406C08C3611F46E
:100C7000106802C0883659F4EC85FD8593FD859196
:100C800093FF8191FD87EC87882309F0B8CF982FD7
:100C90009554933018F09052933038F424E030E0BB
:100CA000A20EB31E3FE339830FC0833631F0833782
:100CB00081F0833509F05AC022C0F5018081898313
:100CC00022E030E0A20EB31E21E0C22ED12C420160
:100CD00014C092E0292E312C2A0C3B1CF501808097
:100CE000918016FF03C06F2D70E002C06FEF7FEFA1
:100CF000C4010E94CA076C0151011F7715C082E030
:100D0000282E312C2A0C3B1CF5018080918016FF87
:100D100003C06F2D70E002C06FEF7FEFC4010E942F
:100D2000BF076C011068510113FD1CC006C080E2B2
:100D300090E0B3010E94D507EA948E2D90E0C8168A
:100D4000D906A8F30FC0F40117FD859117FF819113
:100D50004F0190E0B3010E94D507E110EA94089496
:100D6000C108D108C114D10471F7E7C0843611F06D
:100D7000893651F5F50117FF07C080819181A28165
:100D8000B38124E030E008C080819181AA2797FDDB
:100D9000A095BA2F22E030E0A20EB31E012F0F76ED
:100DA000B7FF08C0B095A095909581959F4FAF4F24
:100DB000BF4F0068BC01CD01A2012AE030E00E94D3
:100DC0000108D82ED4183FC0853721F41F7E2AE0B1
:100DD00030E020C0197F8F36A9F0803720F48835A5
:100DE00009F0AEC00BC0803721F0883709F0A8C0E9
:100DF00001C0106114FF09C0146007C014FF08C0CF
:100E0000166006C028E030E005C020E130E002C0F6
:100E100020E132E0F50117FF07C060817181828116
:100E2000938144E050E006C06081718180E090E0F1
:100E300042E050E0A40EB51EA2010E940108D82E87
:100E4000D418012F0F7706FF09C00E7FDF1430F48E
:100E500004FF06C002FD04C00F7E02C01D2D01C0AC
:100E60001F2D802F90E004FF0CC0FE01ED0DF11D41
:100E70002081203311F4097E09C002FF06C01E5FE5
:100E800005C086789070009709F01F5F802E992426
:100E900003FD12C000FF0DC0FD2C1E1550F4FE0C0A
:100EA000F11A1E2D06C080E290E0B3010E94D50722
:100EB0001F5F1E15C0F304C01E1510F4E11A01C017
:100EC000EE2484FE0FC080E390E0B3010E94D507BA
:100ED00082FE1FC081FE03C088E590E010C088E755
:100EE00090E00DC0C40186789070009791F081FC6D
:100EF00002C080E201C08BE207FD8DE290E0B30109
:100F00000E94D50706C080E390E0B3010E94D50798
:100F1000FA94DF14C0F3DA94F201ED0DF11D808133
:100F200090E0B3010E94D507DD20A9F706C080E25A
:100F300090E0B3010E94D507EA94EE20C1F740CEBD
:100F4000F3018681978102C08FEF9FEF2D960FB638
:100F5000F894DEBF0FBECDBFDF91CF911F910F91EF
:100F6000FF90EF90DF90CF90BF90AF909F908F90C9
:100F70007F906F905F904F903F902F900895FC016D
:100F80000590615070400110D8F7809590958E0FB4
:100F90009F1F0895FC016150704001900110D8F727
:100FA000809590958E0F9F1F08950F931F93CF9359
:100FB000DF938C01EB018B8181FF1BC082FF0DC091
:100FC0002E813F818C819D812817390764F4E88147
:100FD000F9810193F983E88306C0E885F985802FBC
:100FE0001995009731F48E819F8101969F838E839E
:100FF00002C00FEF1FEFC801DF91CF911F910F913A
:101000000895FA01AA27283051F1203181F1E8949E
:101010006F936E7F6E5F7F4F8F4F9F4FAF4FB1E0EB
:101020003ED0B4E03CD0670F781F891F9A1FA11DE6
:10103000680F791F8A1F911DA11D6A0F711D811DE7
:10104000911DA11D20D009F468943F912AE0269FAC
:1010500011243019305D3193DEF6CF010895462F0B
:101060004770405D4193B3E00FD0C9F7F6CF462FEC
:101070004F70405D4A3318F0495D31FD4052419355
:1010800002D0A9F7EACFB4E0A69597958795779512
:101090006795BA95C9F700976105710508959B0199
:1010A000AC010A2E06945795479537952795BA9522
:1010B000C9F7620F731F841F951FA01D0895505814
:1010C000BB27AA270ED0B1C0A2D030F0A7D020F005
:1010D00031F49F3F11F41EF46BC00EF4E095E7FB72
:1010E00053C0E92FB3D080F3BA17620773078407A0
:1010F000950718F071F49EF5CBC00EF4E0950B2E19
:10110000BA2FA02D0B01B90190010C01CA01A00159
:101110001124FF27591B99F0593F50F4503E68F1B4
:101120001A16F040A22F232F342F4427585FF3CFF5
:10113000469537952795A795F0405395C9F77EF4C6
:101140001F16BA0B620B730B840BBAF09150A1F00F
:10115000FF0FBB1F661F771F881FC2F70EC0BA0F95
:10116000621F731F841F48F4879577956795B7951D
:10117000F7959E3F08F0B3CF9395880F08F0992715
:10118000EE0F97958795089597F99F6780E870E02F
:1011900060E008959F3F31F0915020F48795779556
:1011A0006795B795880F911D9695879597F908953E
:1011B0009FEF80EC089591505040660F771F881F75
:1011C000D2F70895DF93CF931F930F93FF92EF927F
:1011D000DF927B018C01689405C0DA2EEF012FDCD1
:1011E000FE01E894A5912591359145915591AEF375
:1011F000EF0177DFFE019701A801DA9479F7DF901C
:10120000EF90FF900F911F91CF91DF9108950024EF
:101210000A941616170618060906089500240A945B
:1012200012161306140605060895092E0394000CE1
:1012300011F4882352F0BB0F40F4BF2B11F460FF70
:1012400004C06F5F7F4F8F4F9F4F089557FD905899
:10125000440F551F59F05F3F71F04795880F97FB7A
:10126000991F61F09F3F79F0879508951216130634
:101270001406551FF2CF4695F1DF08C01616170663
:101280001806991FF1CF8695710561050894089598
:10129000E894BB2766277727CB0197F90895F89440
:0212A000FFCF7E
:1012A20025642C2025640A00456E64202121210A30
:1012B2000001000001020203030303040404040406
:1012C20004040405050505050505050505050505CF
:1012D20005050506060606060606060606060606AF
:1012E200060606060606060606060606060606069C
:1012F200060606070707070707070707070707077F
:10130200070707070707070707070707070707076B
:10131200070707070707070707070707070707075B
:10132200070707070707070707070707070707074B
:10133200070707080808080808080808080808082E
:10134200080808080808080808080808080808081B
:10135200080808080808080808080808080808080B
:1013620008080808080808080808080808080808FB
:1013720008080808080808080808080808080808EB
:1013820008080808080808080808080808080808DB
:1013920008080808080808080808080808080808CB
:1013A20008080808080808080808080808080808BB
:0413B200080808001F
:00000001FF
